{"abi":[{"type":"constructor","inputs":[{"name":"_circuitDataPointer","type":"address","internalType":"address"},{"name":"_numWires","type":"uint8","internalType":"uint8"},{"name":"_numGates","type":"uint32","internalType":"uint32"},{"name":"_expectedOutputHash","type":"bytes32","internalType":"bytes32"},{"name":"_circuitSeed","type":"bytes32","internalType":"bytes32"},{"name":"_expectedBindingOutput","type":"uint256[4]","internalType":"uint256[4]"},{"name":"_secretExpiry","type":"uint256","internalType":"uint256"},{"name":"_lbloN","type":"uint256","internalType":"uint256"}],"stateMutability":"payable"},{"type":"receive","stateMutability":"payable"},{"type":"function","name":"BINDING_ROWS","inputs":[],"outputs":[{"name":"","type":"uint256","internalType":"uint256"}],"stateMutability":"view"},{"type":"function","name":"COMMIT_DELAY","inputs":[],"outputs":[{"name":"","type":"uint256","internalType":"uint256"}],"stateMutability":"view"},{"type":"function","name":"Q","inputs":[],"outputs":[{"name":"","type":"uint256","internalType":"uint256"}],"stateMutability":"view"},{"type":"function","name":"THRESHOLD","inputs":[],"outputs":[{"name":"","type":"uint256","internalType":"uint256"}],"stateMutability":"view"},{"type":"function","name":"check","inputs":[{"name":"input","type":"bytes32","internalType":"bytes32"}],"outputs":[{"name":"","type":"bool","internalType":"bool"}],"stateMutability":"view"},{"type":"function","name":"circuitDataPointer","inputs":[],"outputs":[{"name":"","type":"address","internalType":"address"}],"stateMutability":"view"},{"type":"function","name":"circuitSeed","inputs":[],"outputs":[{"name":"","type":"bytes32","internalType":"bytes32"}],"stateMutability":"view"},{"type":"function","name":"commit","inputs":[{"name":"commitHash","type":"bytes32","internalType":"bytes32"}],"outputs":[],"stateMutability":"nonpayable"},{"type":"function","name":"commitDelay","inputs":[],"outputs":[{"name":"","type":"uint256","internalType":"uint256"}],"stateMutability":"pure"},{"type":"function","name":"encryptedGates","inputs":[],"outputs":[{"name":"","type":"uint256","internalType":"uint256"}],"stateMutability":"pure"},{"type":"function","name":"estimatedGas","inputs":[],"outputs":[{"name":"","type":"uint256","internalType":"uint256"}],"stateMutability":"pure"},{"type":"function","name":"expectedBindingOutput0","inputs":[],"outputs":[{"name":"","type":"uint256","internalType":"uint256"}],"stateMutability":"view"},{"type":"function","name":"expectedBindingOutput1","inputs":[],"outputs":[{"name":"","type":"uint256","internalType":"uint256"}],"stateMutability":"view"},{"type":"function","name":"expectedBindingOutput2","inputs":[],"outputs":[{"name":"","type":"uint256","internalType":"uint256"}],"stateMutability":"view"},{"type":"function","name":"expectedBindingOutput3","inputs":[],"outputs":[{"name":"","type":"uint256","internalType":"uint256"}],"stateMutability":"view"},{"type":"function","name":"expectedOutputHash","inputs":[],"outputs":[{"name":"","type":"bytes32","internalType":"bytes32"}],"stateMutability":"view"},{"type":"function","name":"getCommit","inputs":[{"name":"committer","type":"address","internalType":"address"}],"outputs":[{"name":"","type":"bytes32","internalType":"bytes32"},{"name":"","type":"uint256","internalType":"uint256"}],"stateMutability":"view"},{"type":"function","name":"lbloN","inputs":[],"outputs":[{"name":"","type":"uint256","internalType":"uint256"}],"stateMutability":"view"},{"type":"function","name":"numGates","inputs":[],"outputs":[{"name":"","type":"uint32","internalType":"uint32"}],"stateMutability":"view"},{"type":"function","name":"numWires","inputs":[],"outputs":[{"name":"","type":"uint8","internalType":"uint8"}],"stateMutability":"view"},{"type":"function","name":"owner","inputs":[],"outputs":[{"name":"","type":"address","internalType":"address"}],"stateMutability":"view"},{"type":"function","name":"reveal","inputs":[{"name":"input","type":"bytes32","internalType":"bytes32"}],"outputs":[],"stateMutability":"nonpayable"},{"type":"function","name":"reward","inputs":[],"outputs":[{"name":"","type":"uint256","internalType":"uint256"}],"stateMutability":"view"},{"type":"function","name":"scheme","inputs":[],"outputs":[{"name":"","type":"string","internalType":"string"}],"stateMutability":"pure"},{"type":"function","name":"secretExpiry","inputs":[],"outputs":[{"name":"","type":"uint256","internalType":"uint256"}],"stateMutability":"view"},{"type":"event","name":"Claimed","inputs":[{"name":"claimer","type":"address","indexed":true,"internalType":"address"},{"name":"commitHash","type":"bytes32","indexed":true,"internalType":"bytes32"},{"name":"reward","type":"uint256","indexed":false,"internalType":"uint256"}],"anonymous":false},{"type":"event","name":"Committed","inputs":[{"name":"committer","type":"address","indexed":true,"internalType":"address"},{"name":"commitHash","type":"bytes32","indexed":true,"internalType":"bytes32"},{"name":"blockNumber","type":"uint256","indexed":false,"internalType":"uint256"}],"anonymous":false}],"bytecode":{"object":"0x61020060408190526118a23881900390601f8201601f19168301906001600160401b038211848310176103c35782916040528339810190610160818303126103be5780516001600160a01b038116928382036103be57602083015160ff8116948582036103be57604085015163ffffffff8116928382036103be576060870151926080880151948660bf8a0112156103be5760405196608088016001600160401b038111898210176103c357604052876101208b019182116103be5760a08b01905b8282106103ae57505061014090519901519980151590816103a2575b5015610368571561033157156102fa57428711156102b5576080881480156102aa575b801561029f575b8015610294575b1561024f5760609560a05260c05260e052610100526101205280516101605260208101516101805260408101516101a05201516101c05261014052608052336101e052346000556040516114c890816103da823960805181818161036201528181610f3e0152611253015260a0518181816106680152610bf3015260c05181818161085501528181610bc201528181610ff10152611127015260e0518181816106ef0152610c2c0152610100518181816101c60152610c8b015261012051818181610327015281816110130152818161114a015261128601526101405181818161029a015281816103cf01526107b90152610160518181816102060152610d5201526101805181818161072b0152610d2701526101a0518181816107830152610cf901526101c0518181816106af0152610ccf01526101e051816106230152f35b60405162461bcd60e51b815260206004820152601f60248201527f6e206d757374206265203132382c203235362c203531322c206f7220373638006044820152606490fd5b50610300881461010e565b506102008814610107565b506101008814610100565b60405162461bcd60e51b815260206004820152601860248201527f457870697279206d75737420626520696e2066757475726500000000000000006044820152606490fd5b60405162461bcd60e51b815260206004820152600f60248201526e24b73b30b634b2103837b4b73a32b960891b6044820152606490fd5b60405162461bcd60e51b815260206004820152600f60248201526e4d757374206861766520676174657360881b6044820152606490fd5b60405162461bcd60e51b815260206004820152601260248201527115da5c995cc81b5d5cdd081899480c4b4d8d60721b6044820152606490fd5b604091501115386100dd565b81518152602091820191016100c1565b600080fd5b634e487b7160e01b600052604160045260246000fdfe60806040526004361015610023575b361561001957600080fd5b610021610b1d565b005b60003560e01c80630bd48e60146101ae578063103117c7146101a95780631a69cad5146101a4578063228cb7331461019f578063342746aa1461019a578063363c058c14610195578063399e0792146101905780633fe8e80f1461018b5780634d26bf29146101865780634eb3ffbc1461018157806350857fb21461015e578063701fd0f11461017c578063785ffb37146101775780638518b0ad146101725780638696b8871461016d5780638da5cb5b146101685780639e9d2938146101635780639ffedd171461015e578063cdb27ded14610159578063d1b92e4314610154578063d262512b1461014f578063e493ef8c1461014a578063ed2cc90f14610145578063f14fcbc8146101405763faaf4d9a0361000e5761083b565b6107a6565b61076b565b61074e565b610713565b6106d2565b610697565b610385565b610652565b61060d565b6105aa565b610528565b61050a565b6103a1565b61034a565b61030f565b6102f2565b6102cf565b610282565b610263565b610245565b610229565b6101ee565b346101e95760003660031901126101e95760206040517f00000000000000000000000000000000000000000000000000000000000000008152f35b600080fd5b346101e95760003660031901126101e95760206040517f00000000000000000000000000000000000000000000000000000000000000008152f35b346101e95760003660031901126101e957602060405160408152f35b346101e95760003660031901126101e9576020600054604051908152f35b346101e95760003660031901126101e95760206040516301312d008152f35b346101e95760003660031901126101e95760206040517f00000000000000000000000000000000000000000000000000000000000000008152f35b60209060031901126101e95760043590565b346101e95760206102e76102e2366102bd565b610bb0565b506040519015158152f35b346101e95760003660031901126101e95760206040516101008152f35b346101e95760003660031901126101e95760206040517f00000000000000000000000000000000000000000000000000000000000000008152f35b346101e95760003660031901126101e95760206040517f00000000000000000000000000000000000000000000000000000000000000008152f35b346101e95760003660031901126101e957602060405160028152f35b346101e9576103af366102bd565b6103ca6103c56103c160015460ff1690565b1590565b610879565b6103f57f000000000000000000000000000000000000000000000000000000000000000042106108b7565b33600090815260026020526040902061047990610473906104159061094d565b9261043a6104326020860161042c8151151561096b565b516109a9565b4310156109e7565b6040805133602082019081529181018390526102e2919061046881606081015b03601f19810183528261092b565b519020855114610a26565b50610a63565b61048a600160ff1981541617600155565b3360009081526002602052604081208181556001015560005490600080556104c2600080808086335af16104bc610a9f565b50610adf565b516040519182529033907f9b01158d4bc10c112ba32b5240cda97e49e2eb86021f03f6a0f460342ac4dfda90602090a3005b634e487b7160e01b600052601160045260246000fd5b346101e95760003660031901126101e9576020613ffc604051908152f35b346101e95760003660031901126101e9576040805190610548818361092b565b600b82526a746c6f732d736565642d6160a81b6020830152805180926020825280519081602084015260005b8281106105935750506000828201840152601f01601f19168101030190f35b602082820181015187830187015286945001610574565b346101e95760203660031901126101e9576004356001600160a01b038116908190036101e9576000526002602052604060002060206040516105eb8161090a565b8254808252600190930154910181905260408051928352602083019190915290f35b346101e95760003660031901126101e9576040517f00000000000000000000000000000000000000000000000000000000000000006001600160a01b03168152602090f35b346101e95760003660031901126101e9576040517f00000000000000000000000000000000000000000000000000000000000000006001600160a01b03168152602090f35b346101e95760003660031901126101e95760206040517f00000000000000000000000000000000000000000000000000000000000000008152f35b346101e95760003660031901126101e957602060405163ffffffff7f0000000000000000000000000000000000000000000000000000000000000000168152f35b346101e95760003660031901126101e95760206040517f00000000000000000000000000000000000000000000000000000000000000008152f35b346101e95760003660031901126101e957602060405161fff18152f35b346101e95760003660031901126101e95760206040517f00000000000000000000000000000000000000000000000000000000000000008152f35b346101e9576107b4366102bd565b6107df7f000000000000000000000000000000000000000000000000000000000000000042106108b7565b6040516107eb8161090a565b818152600160208201438152336000526002602052604060002092518355519101556040514381527f550e735193e8f8bf0398f14bcadbbbf0329d5401f6786981e63f5b010662b00e60203392a3005b346101e95760003660031901126101e957602060405160ff7f0000000000000000000000000000000000000000000000000000000000000000168152f35b1561088057565b60405162461bcd60e51b815260206004820152600f60248201526e105b1c9958591e4818db185a5b5959608a1b6044820152606490fd5b156108be57565b60405162461bcd60e51b815260206004820152600e60248201526d14d958dc995d08195e1c1a5c995960921b6044820152606490fd5b634e487b7160e01b600052604160045260246000fd5b6040810190811067ffffffffffffffff82111761092657604052565b6108f4565b90601f8019910116810190811067ffffffffffffffff82111761092657604052565b9060405161095a8161090a565b602060018294805484520154910152565b1561097257565b60405162461bcd60e51b815260206004820152600f60248201526e139bc818dbdb5b5a5d08199bdd5b99608a1b6044820152606490fd5b90600282018092116109b757565b6104f4565b90608082018092116109b757565b60200190816020116109b757565b9061fff182018092116109b757565b156109ee57565b60405162461bcd60e51b815260206004820152601060248201526f52657665616c20746f6f206561726c7960801b6044820152606490fd5b15610a2d57565b60405162461bcd60e51b815260206004820152600e60248201526d125b9d985b1a59081c995d99585b60921b6044820152606490fd5b15610a6a57565b60405162461bcd60e51b815260206004820152600d60248201526c125b9d985b1a59081a5b9c1d5d609a1b6044820152606490fd5b3d15610ada573d9067ffffffffffffffff82116109265760405191610ace601f8201601f19166020018461092b565b82523d6000602084013e565b606090565b15610ae657565b60405162461bcd60e51b815260206004820152600f60248201526e151c985b9cd9995c8819985a5b1959608a1b6044820152606490fd5b6000543481018091116109b757600055565b604051906080610b3f818461092b565b368337565b6000198101919082116109b757565b60e0039060e082116109b757565b919082039182116109b757565b906003820291808304600314901517156109b757565b90600b820291808304600b14901517156109b757565b908160041b91808304601014901517156109b757565b610bb8610b2f565b50610be8600160ff7f0000000000000000000000000000000000000000000000000000000000000000161b610b44565b811690610c1d610c177f0000000000000000000000000000000000000000000000000000000000000000610ec1565b91610f3b565b610c2683610fe3565b91613ffc7f000000000000000000000000000000000000000000000000000000000000000063ffffffff16610c5a82610b6e565b6000945b828610610d79575050505050508091604051610c868161045a60208201948560209181520190565b5190207f0000000000000000000000000000000000000000000000000000000000000000149081610d4e575b81610d20575b81610cf2575b81610cc7575091565b6060019050517f00000000000000000000000000000000000000000000000000000000000000001491565b60408101517f0000000000000000000000000000000000000000000000000000000000000000149150610cbe565b60208101517f0000000000000000000000000000000000000000000000000000000000000000149150610cb8565b80517f0000000000000000000000000000000000000000000000000000000000000000149150610cb2565b909192939495610d88876109bc565b90848211610eb9575b875b828110610dda5750610dd09189610dca92610dc28151610db38360200190565b51186040830151189160600190565b511818611117565b966109bc565b9493929190610c5e565b98600190610def610dea8c610b84565b6109ca565b89015190610e74610e6c8d610e67610e618a610e5c603f610e108a60f81c90565b169861ffff603f610e218360f01c90565b168c8b610e3e8282603f610e358960e81c90565b161c1660011b90565b921c161791610e54610e4f84610b9a565b610b53565b1c1695611250565b611332565b916109d8565b610b61565b61fff1900690565b878a82119182610eaf575b5050600090600014610ea657508260ff815b168183851c1618831b921b1916179901610d93565b60ff8491610e91565b1090508738610e7f565b849150610d91565b803b906000198201908282116109b75760019060405193603e601f19910116840160405282845260208401903c90565b67ffffffffffffffff81116109265760051b60200190565b90610f1382610ef1565b610f20604051918261092b565b8281528092610f31601f1991610ef1565b0190602036910137565b907f000000000000000000000000000000000000000000000000000000000000000060041c610f6981610f09565b604051938452926020810160005b838110610f845750505050565b8082526040832060009081905b60108210610fae575050600582901b870160200152600101610f77565b909160019083600f0360041b61ffff84821c169061fff1821015610fd7575b1b17920190610f91565b9061fff0190190610fcd565b90610fec610b2f565b9160ff7f0000000000000000000000000000000000000000000000000000000000000000167f000000000000000000000000000000000000000000000000000000000000000091604051916000602084019060408501905b604081106110555750505050505050565b86865260008084528183526060872081805b8782106110975750505090600191601f1982841b168b019061ffff8251911660f08460041b161b17905201611044565b828a5280875260408a206000905b89841060108310166110bb575050600101611067565b909261ffff828560041b1c1661fff181101561110d575b60018c831c166110eb575b5060018091019301906110a5565b9095019461fff1861015611100575b386110dd565b61fff019909501946110fa565b61fff019016110d2565b919091611122610b2f565b9260ff7f000000000000000000000000000000000000000000000000000000000000000016917f000000000000000000000000000000000000000000000000000000000000000092604051926000602085019160408601915b6040811061118d575050505050505050565b8787528184528083526060872060009081825b8882106111d05750505090600191601f1982841b168c019061ffff8251911660f08460041b161b1790520161117b565b828b5280885260408b206000905b8a841060108310166111f45750506001016111a0565b909261ffff828560041b1c1661fff1811015611246575b60018d831c16611224575b5060018091019301906111de565b9095019461fff1861015611239575b38611216565b61fff01990950194611233565b61fff0190161120b565b907f000000000000000000000000000000000000000000000000000000000000000060041c9061127f82610f09565b92604051917f00000000000000000000000000000000000000000000000000000000000000008352602083019160418352604084015260608301526080822060005b8481106112d057505050505090565b8184528083526040842060009081905b601082106112fd575050600582901b8701602001526001016112c1565b909160019083600f0360041b61ffff84821c169061fff1821015611326575b1b179201906112e0565b9061fff019019061131c565b91908251926000916000915b8583106113525750505061fff19192500690565b9091926001908460051b6020808286010151918601015161ffff811661ffff8316029261ffff8260101c1661ffff8460101c16029261ffff8360201c1661ffff8260201c16029261ffff8160301c1661ffff8360301c16029261ffff8260401c1661ffff8460401c16029261ffff8360501c1661ffff8260501c16029261ffff8160601c1661ffff8360601c16029261ffff8260701c1661ffff8460701c16029261ffff8360801c1661ffff8260801c16029261ffff8160901c1661ffff8360901c16029261ffff8260a01c1661ffff8460a01c16029261ffff8360b01c1661ffff8260b01c16029261ffff8160c01c1661ffff8360c01c16029261ffff8260d01c1661ffff8460d01c16029261ffff8360e01c1661ffff8260e01c16029260f01c9060f01c02010101010101010101010101010101019301919061133e56fea26469706673582212205b5a4f9bcfa1d6fab54b622b450988d7d640c02738b3653fd87e23330a86b74b64736f6c634300081f0033","linkReferences":{}},"methodIdentifiers":{"BINDING_ROWS()":"1a69cad5","COMMIT_DELAY()":"50857fb2","Q()":"e493ef8c","THRESHOLD()":"785ffb37","check(bytes32)":"399e0792","circuitDataPointer()":"9e9d2938","circuitSeed()":"4d26bf29","commit(bytes32)":"f14fcbc8","commitDelay()":"9ffedd17","encryptedGates()":"3fe8e80f","estimatedGas()":"342746aa","expectedBindingOutput0()":"103117c7","expectedBindingOutput1()":"d262512b","expectedBindingOutput2()":"ed2cc90f","expectedBindingOutput3()":"cdb27ded","expectedOutputHash()":"0bd48e60","getCommit(address)":"8696b887","lbloN()":"4eb3ffbc","numGates()":"d1b92e43","numWires()":"faaf4d9a","owner()":"8da5cb5b","reveal(bytes32)":"701fd0f1","reward()":"228cb733","scheme()":"8518b0ad","secretExpiry()":"363c058c"},"id":2}