{"abi":[{"type":"function","name":"M_WEAK","inputs":[],"outputs":[{"name":"","type":"uint256","internalType":"uint256"}],"stateMutability":"view"},{"type":"function","name":"N_WEAK","inputs":[],"outputs":[{"name":"","type":"uint256","internalType":"uint256"}],"stateMutability":"view"},{"type":"function","name":"PUZZLE_DOMAIN","inputs":[],"outputs":[{"name":"","type":"bytes32","internalType":"bytes32"}],"stateMutability":"view"},{"type":"function","name":"Q_WEAK","inputs":[],"outputs":[{"name":"","type":"uint256","internalType":"uint256"}],"stateMutability":"view"},{"type":"function","name":"THRESHOLD_SQ","inputs":[],"outputs":[{"name":"","type":"uint256","internalType":"uint256"}],"stateMutability":"view"},{"type":"function","name":"getExpectedErrorNorm","inputs":[{"name":"x","type":"bytes32","internalType":"bytes32"}],"outputs":[{"name":"normSq","type":"uint256","internalType":"uint256"}],"stateMutability":"pure"},{"type":"function","name":"getPlantedSecret","inputs":[{"name":"x","type":"bytes32","internalType":"bytes32"}],"outputs":[{"name":"","type":"int8[40]","internalType":"int8[40]"}],"stateMutability":"pure"},{"type":"function","name":"getPuzzleSeed","inputs":[{"name":"x","type":"bytes32","internalType":"bytes32"}],"outputs":[{"name":"","type":"bytes32","internalType":"bytes32"}],"stateMutability":"pure"},{"type":"function","name":"verifyPuzzle","inputs":[{"name":"x","type":"bytes32","internalType":"bytes32"},{"name":"solution","type":"int8[40]","internalType":"int8[40]"}],"outputs":[{"name":"valid","type":"bool","internalType":"bool"},{"name":"sHash","type":"bytes32","internalType":"bytes32"}],"stateMutability":"pure"}],"bytecode":{"object":"0x6080806040523460155761092a908161001b8239f35b600080fdfe6080604052600436101561001257600080fd5b60003560e01c8063370d26ad146102c35780634bdbbf1c146102a657806370ad866a1461028957806381465e021461023c57806386ce902f14610213578063933bd7c3146101f757806399e602721461012e5780639a6218f5146100a05763d9d09c2f1461007f57600080fd5b3461009b57600036600319011261009b576020604051603c8152f35b600080fd5b3461009b57602036600319011261009b57610500806040516100c28282610320565b36903761010060405160208101906000805160206108d583398151915282526004356040820152604081526100f8606082610320565b5190206107b5565b604051906000825b6028821061011557505050f35b602080600192855160000b815201930191019091610108565b3461009b57602036600319011261009b57600060405160208101906000805160206108d58339815191528252600435604082015260408152610171606082610320565b519020906000915b603c831061018c57602082604051908152f35b906101ee6001916101e86101e2600560405160208101906101d9816101cb8c8c86909160459282526432b93937b960d91b602083015260258201520190565b03601f198101835282610320565b519020066103e8565b8061038a565b90610358565b92019190610179565b3461009b57600036600319011261009b57602060405160288152f35b3461009b57600036600319011261009b5760206040516000805160206108d58339815191528152f35b3461009b57602036600319011261009b576020604051818101906000805160206108d5833981519152825260043560408201526040815261027e606082610320565b519020604051908152f35b3461009b57600036600319011261009b57602060405161012c8152f35b3461009b57600036600319011261009b5760206040516107f78152f35b3461009b5761052036600319011261009b57366105241161009b5760406102eb6004356103fa565b825191151582526020820152f35b90602881101561030a5760051b0190565b634e487b7160e01b600052603260045260246000fd5b90601f8019910116810190811067ffffffffffffffff82111761034257604052565b634e487b7160e01b600052604160045260246000fd5b9190820180921161036557565b634e487b7160e01b600052601160045260246000fd5b60001981146103655760010190565b818102929160008212600160ff1b82141661036557818405149015171561036557565b906107f782019160006107f78412911290801582169115161761036557565b9190916000838201938412911290801582169115161761036557565b60011981019190821360011661036557565b602491600091825b60288110610725575060405160208101916000805160206108d58339815191528352604082015260408152610438606082610320565b519020610444816107b5565b60009182915b603c84106104b957505061012c91501092836104635750565b909150604051602081019182906000915b6028831061049657505050610500815261049061052082610320565b51902090565b8135908160000b80920361009b5760208160019382935201920192019190610474565b90916040516020810190848252856040820152604081526104db606082610320565b519020600090819082905b602882106105d75750506105346107f79161052e6005886101cb6101d98c604051928391602083019586909160459282526432b93937b960d91b602083015260258201520190565b906103cc565b0790600082126105c7575b6000828203921281831281169183139015161761058f576107f790076103fb8113156105a4576107f619810190811360011661058f576001916101e8610585928061038a565b930192919061044a565b87634e487b7160e01b60005260116004526000fd5b6001916101e8610585926103fa198112156101e2576105c2906103ad565b6101e2565b906105d1906103ad565b9061053f565b969160409a959a989691989493945160208101908982528a60041c604082015260408152610606606082610320565b519020996000955b6010871080610712575b156106df5786600f03600f81116106ca578060041b90810460101488600f1417156106ca5761ffff8d6107f7921c160790610653888d610358565b600060288210156106b7575060051b890135938460000b80950361009b5761052e8f936106a08f979561069a8d6106946106aa9861052e6106b09b8861038a565b9a610358565b906102f9565b5160000b9061038a565b9661037b565b959161060e565b634e487b7160e01b815260326004528a90fd5b88634e487b7160e01b60005260116004526000fd5b94955099509196909597999499601081018091116106fd57906104e6565b8a634e487b7160e01b60005260116004526000fd5b50602861071f888d610358565b10610618565b600060288210156107a257508060051b850180358060000b9081810361009b57600019821292831561076c575b50505061076157600101610402565b506000935083925050565b909192506000602885101561078f57505081900361009b57600112388080610752565b634e487b7160e01b815260326004528890fd5b634e487b7160e01b815260326004528590fd5b90610500604051906107c78183610320565b3682378092604051602081019182526d1c1b185b9d19590b5cd958dc995d60921b6040820152602e81526107fc604e82610320565b5190206000905b6028821061081057505050565b90919360405160208101908382528460041c604082015260408152610836606082610320565b5190209360005b60108110806108c1575b156108ab5780600f03600f8111610365578060041b90810460101482600f1417156103655761ffff876003921c1606906000198201918213600116610365576108a69160000b6108a061089a8389610358565b8a6102f9565b5261037b565b61083d565b5093509391601081018091116103655790610803565b5060286108ce8287610358565b1061084756fe08d92ec30286037d8f3fadb3a66687566f2b8d16c8e65588946faba8d46ef7ffa2646970667358221220469e7272ed27389f859e2f5f9ab484c53ce8e064fd277f065873e5b06feab0e664736f6c634300081f0033","linkReferences":{}},"methodIdentifiers":{"M_WEAK()":"d9d09c2f","N_WEAK()":"933bd7c3","PUZZLE_DOMAIN()":"86ce902f","Q_WEAK()":"4bdbbf1c","THRESHOLD_SQ()":"70ad866a","getExpectedErrorNorm(bytes32)":"99e60272","getPlantedSecret(bytes32)":"9a6218f5","getPuzzleSeed(bytes32)":"81465e02","verifyPuzzle(bytes32,int8[40])":"370d26ad"},"id":7}