{"abi":[{"type":"constructor","inputs":[{"name":"_itemDescription","type":"string","internalType":"string"},{"name":"_biddingDuration","type":"uint256","internalType":"uint256"},{"name":"_revealDuration","type":"uint256","internalType":"uint256"},{"name":"_minBid","type":"uint256","internalType":"uint256"}],"stateMutability":"nonpayable"},{"type":"function","name":"COMMIT_DELAY","inputs":[],"outputs":[{"name":"","type":"uint256","internalType":"uint256"}],"stateMutability":"view"},{"type":"function","name":"M_WEAK","inputs":[],"outputs":[{"name":"","type":"uint256","internalType":"uint256"}],"stateMutability":"view"},{"type":"function","name":"N_WEAK","inputs":[],"outputs":[{"name":"","type":"uint256","internalType":"uint256"}],"stateMutability":"view"},{"type":"function","name":"PUZZLE_DOMAIN","inputs":[],"outputs":[{"name":"","type":"bytes32","internalType":"bytes32"}],"stateMutability":"view"},{"type":"function","name":"PUZZLE_THRESHOLD_SQ","inputs":[],"outputs":[{"name":"","type":"uint256","internalType":"uint256"}],"stateMutability":"view"},{"type":"function","name":"Q_WEAK","inputs":[],"outputs":[{"name":"","type":"uint256","internalType":"uint256"}],"stateMutability":"view"},{"type":"function","name":"biddingEnd","inputs":[],"outputs":[{"name":"","type":"uint256","internalType":"uint256"}],"stateMutability":"view"},{"type":"function","name":"claimRefund","inputs":[],"outputs":[],"stateMutability":"nonpayable"},{"type":"function","name":"finalize","inputs":[],"outputs":[],"stateMutability":"nonpayable"},{"type":"function","name":"finalized","inputs":[],"outputs":[{"name":"","type":"bool","internalType":"bool"}],"stateMutability":"view"},{"type":"function","name":"forceFinalize","inputs":[],"outputs":[],"stateMutability":"nonpayable"},{"type":"function","name":"getBid","inputs":[{"name":"bidder","type":"address","internalType":"address"}],"outputs":[{"name":"commitHash","type":"bytes32","internalType":"bytes32"},{"name":"commitBlock","type":"uint256","internalType":"uint256"},{"name":"deposit","type":"uint256","internalType":"uint256"},{"name":"revealedAmount","type":"uint256","internalType":"uint256"},{"name":"revealed","type":"bool","internalType":"bool"}],"stateMutability":"view"},{"type":"function","name":"getBidPuzzleSeed","inputs":[{"name":"bidder","type":"address","internalType":"address"},{"name":"bidAmount","type":"uint256","internalType":"uint256"}],"outputs":[{"name":"","type":"bytes32","internalType":"bytes32"}],"stateMutability":"view"},{"type":"function","name":"getBidderCount","inputs":[],"outputs":[{"name":"","type":"uint256","internalType":"uint256"}],"stateMutability":"view"},{"type":"function","name":"getPhase","inputs":[],"outputs":[{"name":"","type":"uint8","internalType":"enum TLOSSealedAuction.AuctionPhase"}],"stateMutability":"view"},{"type":"function","name":"getPlantedSecret","inputs":[{"name":"seed","type":"bytes32","internalType":"bytes32"}],"outputs":[{"name":"secret","type":"int8[48]","internalType":"int8[48]"}],"stateMutability":"pure"},{"type":"function","name":"highestBid","inputs":[],"outputs":[{"name":"","type":"uint256","internalType":"uint256"}],"stateMutability":"view"},{"type":"function","name":"highestBidder","inputs":[],"outputs":[{"name":"","type":"address","internalType":"address"}],"stateMutability":"view"},{"type":"function","name":"itemDescription","inputs":[],"outputs":[{"name":"","type":"string","internalType":"string"}],"stateMutability":"view"},{"type":"function","name":"minBid","inputs":[],"outputs":[{"name":"","type":"uint256","internalType":"uint256"}],"stateMutability":"view"},{"type":"function","name":"owner","inputs":[],"outputs":[{"name":"","type":"address","internalType":"address"}],"stateMutability":"view"},{"type":"function","name":"placeBid","inputs":[{"name":"commitHash","type":"bytes32","internalType":"bytes32"}],"outputs":[],"stateMutability":"payable"},{"type":"function","name":"revealBid","inputs":[{"name":"bidAmount","type":"uint256","internalType":"uint256"},{"name":"puzzleSolution","type":"int8[48]","internalType":"int8[48]"},{"name":"salt","type":"bytes32","internalType":"bytes32"}],"outputs":[],"stateMutability":"nonpayable"},{"type":"function","name":"revealEnd","inputs":[],"outputs":[{"name":"","type":"uint256","internalType":"uint256"}],"stateMutability":"view"},{"type":"function","name":"timeUntilBiddingEnd","inputs":[],"outputs":[{"name":"","type":"uint256","internalType":"uint256"}],"stateMutability":"view"},{"type":"function","name":"timeUntilRevealEnd","inputs":[],"outputs":[{"name":"","type":"uint256","internalType":"uint256"}],"stateMutability":"view"},{"type":"function","name":"withdrawUnclaimedFunds","inputs":[],"outputs":[],"stateMutability":"nonpayable"},{"type":"event","name":"AuctionFinalized","inputs":[{"name":"winner","type":"address","indexed":true,"internalType":"address"},{"name":"winningBid","type":"uint256","indexed":false,"internalType":"uint256"}],"anonymous":false},{"type":"event","name":"BidPlaced","inputs":[{"name":"bidder","type":"address","indexed":true,"internalType":"address"},{"name":"commitHash","type":"bytes32","indexed":false,"internalType":"bytes32"},{"name":"deposit","type":"uint256","indexed":false,"internalType":"uint256"}],"anonymous":false},{"type":"event","name":"BidRevealed","inputs":[{"name":"bidder","type":"address","indexed":true,"internalType":"address"},{"name":"amount","type":"uint256","indexed":false,"internalType":"uint256"}],"anonymous":false},{"type":"event","name":"RefundClaimed","inputs":[{"name":"bidder","type":"address","indexed":true,"internalType":"address"},{"name":"amount","type":"uint256","indexed":false,"internalType":"uint256"}],"anonymous":false}],"bytecode":{"object":"0x6101006040523461036357611c4a8038038061001a81610368565b9283398101906080818303126103635780516001600160401b03811161036357810182601f82011215610363578051906001600160401b0382116102ae5761006b601f8301601f1916602001610368565b93828552602083830101116103635760005b82811061034e5750506020600091840101526020810151906060604082015191015191600160005580156103095781156102c4573360805283516001600160401b0381116102ae57600154600181811c911680156102a4575b602082101461028e57601f8111610229575b506020601f82116001146101b9579080610126939261012f96976000926101ae575b50508160011b916000199060031b1c1916176001555b4261038d565b8060a05261038d565b60c05260e05260405161189990816103b1823960805181818161020b0152818161045e01528181610a3a0152610e24015260a0518181816110db0152818161122a0152611436015260c0518181816103fc015281816106ec015281816111ed015261145d015260e051818181610b2601528181610ee601526111160152f35b01519050388061010a565b601f198216956001600052816000209660005b8181106102115750966001928492610126969561012f999a106101f8575b505050811b01600155610120565b015160001960f88460031b161c191690553880806101ea565b838301518955600190980197602093840193016101cc565b60016000527fb10e2d527612073b26eecdfd717e6a320cf44b4afac2b0732d9fcbe2b7fa0cf6601f830160051c81019160208410610284575b601f0160051c01905b81811061027857506100e8565b6000815560010161026b565b9091508190610262565b634e487b7160e01b600052602260045260246000fd5b90607f16906100d6565b634e487b7160e01b600052604160045260246000fd5b60405162461bcd60e51b815260206004820152601760248201527f496e76616c69642072657665616c206475726174696f6e0000000000000000006044820152606490fd5b60405162461bcd60e51b815260206004820152601860248201527f496e76616c69642062696464696e67206475726174696f6e00000000000000006044820152606490fd5b8060208092840101518282880101520161007d565b600080fd5b6040519190601f01601f191682016001600160401b038111838210176102ae57604052565b9190820180921161039a57565b634e487b7160e01b600052601160045260246000fdfe608080604052600436101561001357600080fd5b60003560e01c908163026c41af1461116f575080632191645a146111545780632ef724de146111395780633e109a19146110fe578063423b217f146110c3578063497ecfc514610eba5780634bb278f314610e115780634bdbbf1c14610df457806350857fb214610dd857806375e69fb214610aa457806386ce902f14610a695780638da5cb5b14610a2457806391f90157146109fb578063933bd7c3146109df5780639a6218f5146108515780639f3652261461070f578063a6e66477146106d4578063b3f05b97146106b1578063b5545a3c1461051a578063bee22cea146103bc578063c87da02d1461039e578063c8b342ab1461030b578063d30d1555146101f8578063d57bde79146101da578063d9d09c2f146101be578063e31f9c321461018f5763eced02801461014857600080fd5b3461018a57600036600319011261018a57610161611434565b6040516003821015610174576020918152f35b634e487b7160e01b600052602160045260246000fd5b600080fd5b3461018a57604036600319011261018a5760206101b66101ad6111c8565b60243590611491565b604051908152f35b3461018a57600036600319011261018a57602060405160488152f35b3461018a57600036600319011261018a576020600354604051908152f35b3461018a57600036600319011261018a577f000000000000000000000000000000000000000000000000000000000000000061023e336001600160a01b0383161461129e565b610246611434565b600381101561017457600261025b91146113f0565b6002546001600160a01b03166102c65747908161027457005b600080809381935af1610285611353565b501561028d57005b60405162461bcd60e51b815260206004820152601160248201527015da5d1a191c985dd85b0819985a5b1959607a1b6044820152606490fd5b60405162461bcd60e51b815260206004820152601f60248201527f57696e6e657220657869737473202d2075736520636c61696d526566756e64006044820152606490fd5b3461018a57602036600319011261018a576001600160a01b0361032c6111c8565b16600052600560205260a0604060002060806040519161034b8361118a565b805492838152600182015480602083015260028301549182604082015260ff6004600386015495866060850152015416151594859101526040519485526020850152604084015260608301526080820152f35b3461018a57600036600319011261018a576020600654604051908152f35b3461018a57600036600319011261018a576103d5611434565b60038110156101745760026103ea911461125c565b6004546103fa60ff8216156112d7565b7f000000000000000000000000000000000000000000000000000000000000000062093a8081018091116105045742106104c75760025460019190610449906001600160a01b03161515611317565b60ff19161760045561048d60008080806003547f00000000000000000000000000000000000000000000000000000000000000005af1610487611353565b50611393565b60018060a01b03600254167f357afab190ee87fe0ef1c717f2728d2904d9e415a069d99f4d9382873cb3279d6020600354604051908152a2005b60405162461bcd60e51b815260206004820152601560248201527423b930b1b2903832b934b7b2103737ba1037bb32b960591b6044820152606490fd5b634e487b7160e01b600052601160045260246000fd5b3461018a57600036600319011261018a5760016000540361067f576002600055610542611434565b600381101561017457600261055791146113f0565b336000526005602052604060002060028101908154908115610643576004015460ff166106195750600080915b5580610592575b6001600055005b600080808084335af16105a3611353565b50156105db576040519081527f358fe4192934d3bf28ae181feda1f4bd08ca67f5e2fad55582cce5eb67304ae960203392a28061058b565b60405162461bcd60e51b81526020600482015260166024820152751499599d5b99081d1c985b9cd9995c8819985a5b195960521b6044820152606490fd5b60025460009190336001600160a01b039091160361063d5760035461063d916111de565b91610584565b60405162461bcd60e51b8152602060048201526014602482015273139bc819195c1bdcda5d081d1bc81c99599d5b9960621b6044820152606490fd5b60405162461bcd60e51b815260206004820152600a6024820152695265656e7472616e637960b01b6044820152606490fd5b3461018a57600036600319011261018a57602060ff600454166040519015158152f35b3461018a57600036600319011261018a5760206040517f00000000000000000000000000000000000000000000000000000000000000008152f35b3461018a57600036600319011261018a576040516000600154908160011c91600181168015610847575b60208410811461083357838552849291811561081457506001146107b3575b610764925003826111a6565b60405190602082528181519182602083015260005b83811061079b5750508160006040809484010152601f80199101168101030190f35b60208282018101516040878401015285935001610779565b509060016000527fb10e2d527612073b26eecdfd717e6a320cf44b4afac2b0732d9fcbe2b7fa0cf6906000915b8183106107f857505090602061076492820101610758565b60209193508060019154838588010152019101909183926107e0565b6020925061076494915060ff191682840152151560051b820101610758565b634e487b7160e01b83526022600452602483fd5b92607f1692610739565b3461018a57602036600319011261018a5761060060405161087282826111a6565b8136823760405160208101907f63fa20280546824e71b86edfaf14e77c493c05e830f4486c556c6c258de4a56682526004356040820152604081526108b86060826111a6565b519020604051602081019182526d1c1b185b9d19590b5cd958dc995d60921b6040820152602e81526108eb604e826111a6565b51902060005b60038110610929575050604051906000825b6030821061091057505050f35b602080600192855160000b815201930191019091610903565b6040516020810190838252826040820152604081526109496060826111a6565b51902060005b60108110610962575b50506001016108f1565b8260041b9083820460101484151715610504578082018092116105045760308210156109d95780600f03600f8111610504578060041b90810460101482600f1417156105045761ffff846003921c1606916000198301928313600116610504576109d260019360000b91886113df565b520161094f565b50610958565b3461018a57600036600319011261018a57602060405160308152f35b3461018a57600036600319011261018a576002546040516001600160a01b039091168152602090f35b3461018a57600036600319011261018a576040517f00000000000000000000000000000000000000000000000000000000000000006001600160a01b03168152602090f35b3461018a57600036600319011261018a5760206040517f63fa20280546824e71b86edfaf14e77c493c05e830f4486c556c6c258de4a5668152f35b3461018a5761064036600319011261018a57600435366106241161018a57610aca611434565b6003811015610174576001610adf911461125c565b336000526005602052604060002060018101548015610da457600482019182549160ff8316610d6c5760028101809111610504574310610d345760028101548411610cf9577f00000000000000000000000000000000000000000000000000000000000000008410610cc05760405160208101903382528560408201526060810160246000915b60308310610c9d57505050610624356106608201526106608152610b8c610680826111a6565b519020815403610c5857610ba8610ba38533611491565b6114ce565b5015610c13578392600160039360ff191617905501556003548111610bf6575b6040519081527f9891bd98143d5a2c5f29be9a7ef8e5d7b723746fb3b75220234af7aa6caeecfe60203392a2005b336001600160601b0360a01b600254161760025580600355610bc8565b60405162461bcd60e51b815260206004820152601760248201527f496e76616c69642070757a7a6c6520736f6c7574696f6e0000000000000000006044820152606490fd5b60405162461bcd60e51b815260206004820152601e60248201527f496e76616c69642072657665616c202d2068617368206d69736d6174636800006044820152606490fd5b8135908160000b80920361018a5760208160019382935201920192019190610b66565b60405162461bcd60e51b81526020600482015260116024820152704269642062656c6f77206d696e696d756d60781b6044820152606490fd5b60405162461bcd60e51b8152602060048201526013602482015272109a5908195e18d959591cc819195c1bdcda5d606a1b6044820152606490fd5b60405162461bcd60e51b815260206004820152601060248201526f52657665616c20746f6f206561726c7960801b6044820152606490fd5b60405162461bcd60e51b815260206004820152601060248201526f105b1c9958591e481c995d99585b195960821b6044820152606490fd5b60405162461bcd60e51b815260206004820152600c60248201526b139bc8189a5908199bdd5b9960a21b6044820152606490fd5b3461018a57600036600319011261018a57602060405160028152f35b3461018a57600036600319011261018a5760206040516107f78152f35b3461018a57600036600319011261018a577f0000000000000000000000000000000000000000000000000000000000000000610e57336001600160a01b0383161461129e565b610e5f611434565b90600382101561017457600080808093610e7e600261048d971461125c565b6001600454610e9060ff8216156112d7565b610ea4828060a01b03600254161515611317565b60ff191617600455600354905af1610487611353565b602036600319011261018a57600435610ed1611434565b600381101561017457610ee4901561125c565b7f0000000000000000000000000000000000000000000000000000000000000000341061107e5733600052600560205260016040600020015461104457604051610f2d8161118a565b8181526004602082019143835260408101348152606082019060008252608083019460008652336000526005602052604060002093518455516001840155516002830155516003820155019051151560ff801983541691161790556006546801000000000000000081101561102e5760018101806006558110156110185760066000527ff652222313e28459528d920b65115c16c04f3efc82aaedc97be59f3f377c0d3f01336001600160601b0360a01b8254161790556040519081523460208201527fe4a81d118d35683a4504cbe9eca1a0dd6e2f0003e876407a80a0380de45e305f60403392a2005b634e487b7160e01b600052603260045260246000fd5b634e487b7160e01b600052604160045260246000fd5b60405162461bcd60e51b8152602060048201526012602482015271105b1c9958591e481c1b1858d95908189a5960721b6044820152606490fd5b60405162461bcd60e51b815260206004820152601960248201527f4465706f7369742062656c6f77206d696e696d756d20626964000000000000006044820152606490fd5b3461018a57600036600319011261018a5760206040517f00000000000000000000000000000000000000000000000000000000000000008152f35b3461018a57600036600319011261018a5760206040517f00000000000000000000000000000000000000000000000000000000000000008152f35b3461018a57600036600319011261018a5760206101b6611228565b3461018a57600036600319011261018a5760206101b66111eb565b3461018a57600036600319011261018a578061012c60209252f35b60a0810190811067ffffffffffffffff82111761102e57604052565b90601f8019910116810190811067ffffffffffffffff82111761102e57604052565b600435906001600160a01b038216820361018a57565b9190820391821161050457565b7f0000000000000000000000000000000000000000000000000000000000000000804210156112225761121f9042906111de565b90565b50600090565b7f0000000000000000000000000000000000000000000000000000000000000000804210156112225761121f9042906111de565b1561126357565b60405162461bcd60e51b815260206004820152601360248201527257726f6e672061756374696f6e20706861736560681b6044820152606490fd5b156112a557565b60405162461bcd60e51b815260206004820152600a60248201526927b7363c9037bbb732b960b11b6044820152606490fd5b156112de57565b60405162461bcd60e51b8152602060048201526011602482015270105b1c9958591e48199a5b985b1a5e9959607a1b6044820152606490fd5b1561131e57565b60405162461bcd60e51b815260206004820152600d60248201526c4e6f2076616c6964206269647360981b6044820152606490fd5b3d1561138e573d9067ffffffffffffffff821161102e5760405191611382601f8201601f1916602001846111a6565b82523d6000602084013e565b606090565b1561139a57565b60405162461bcd60e51b815260206004820152601760248201527f5061796d656e74207472616e73666572206661696c65640000000000000000006044820152606490fd5b9060308110156110185760051b0190565b156113f757565b60405162461bcd60e51b8152602060048201526015602482015274105d58dd1a5bdb881b9bdd08199a5b985b1a5e9959605a1b6044820152606490fd5b7f0000000000000000000000000000000000000000000000000000000000000000421061148c577f0000000000000000000000000000000000000000000000000000000000000000421061148757600290565b600190565b600090565b906040519060208201923060601b84526001600160601b03199060601b1660348301526048820152604881526114c86068826111a6565b51902090565b602491600091825b603081106117d3575060405160208101917f63fa20280546824e71b86edfaf14e77c493c05e830f4486c556c6c258de4a566835260408201526040815261151e6060826111a6565b519020926106009360405161153386826111a6565b8536823760405160208101908382526d1c1b185b9d19590b5cd958dc995d60921b6040820152602e8152611568604e826111a6565b51902060005b6003811061175a5750506000906000925b604884106115e657505061012c9150109384611599575050565b604051929350602083019291600090845b603083106115c35750505081526114c8610620826111a6565b8135908160000b80920361018a57602081600193829352019201920191906115aa565b90916040516020810190838252856040820152604081526116086060826111a6565b5190206000908190825b600381106116a5575050600192916107f78092604051906005602083018981526432b93937b960d91b60408501528b6045850152604584526116556065856111a6565b88199351902006010107906000821261169c575b03076103fb811315611688576107f619015b800201930192919061157f565b6103fa1981121561167b576107f70161167b565b90820190611669565b6040516020810190838252826040820152604081526116c56060826111a6565b5190206000905b601082106116df575b5050600101611612565b909394848360041b01956030871015611752576107f761ffff8488600f0360041b1c16076000603089101561173f57508760051b8d01358060000b80910361018a5760019361173291830201988c6113df565b51830b02019401906116cc565b634e487b7160e01b815260326004528d90fd5b9450946116d5565b60405160208101908382528260408201526040815261177a6060826111a6565b51902060005b60108110611793575b505060010161156e565b808360041b0160308110156117cd57906001916117c6600019600361ffff8786600f0360041b1c160601840b91886113df565b5201611780565b50611789565b6000603082101561185057508060051b850180358060000b9081810361018a57600019821292831561181a575b50505061180f576001016114d6565b506000935083925050565b909192506000603085101561183d57505081900361018a57600112388080611800565b634e487b7160e01b815260326004528890fd5b634e487b7160e01b815260326004528590fdfea264697066735822122099062a6128efd052b8bfac106a0c3a86360fc4373fa665357589a0be713a009d64736f6c634300081f0033","linkReferences":{}},"methodIdentifiers":{"COMMIT_DELAY()":"50857fb2","M_WEAK()":"d9d09c2f","N_WEAK()":"933bd7c3","PUZZLE_DOMAIN()":"86ce902f","PUZZLE_THRESHOLD_SQ()":"026c41af","Q_WEAK()":"4bdbbf1c","biddingEnd()":"423b217f","claimRefund()":"b5545a3c","finalize()":"4bb278f3","finalized()":"b3f05b97","forceFinalize()":"bee22cea","getBid(address)":"c8b342ab","getBidPuzzleSeed(address,uint256)":"e31f9c32","getBidderCount()":"c87da02d","getPhase()":"eced0280","getPlantedSecret(bytes32)":"9a6218f5","highestBid()":"d57bde79","highestBidder()":"91f90157","itemDescription()":"9f365226","minBid()":"3e109a19","owner()":"8da5cb5b","placeBid(bytes32)":"497ecfc5","revealBid(uint256,int8[48],bytes32)":"75e69fb2","revealEnd()":"a6e66477","timeUntilBiddingEnd()":"2ef724de","timeUntilRevealEnd()":"2191645a","withdrawUnclaimedFunds()":"d30d1555"},"id":1}