{"abi":[{"type":"function","name":"M_WEAK","inputs":[],"outputs":[{"name":"","type":"uint256","internalType":"uint256"}],"stateMutability":"view"},{"type":"function","name":"N_WEAK","inputs":[],"outputs":[{"name":"","type":"uint256","internalType":"uint256"}],"stateMutability":"view"},{"type":"function","name":"PUZZLE_DOMAIN","inputs":[],"outputs":[{"name":"","type":"bytes32","internalType":"bytes32"}],"stateMutability":"view"},{"type":"function","name":"Q_WEAK","inputs":[],"outputs":[{"name":"","type":"uint256","internalType":"uint256"}],"stateMutability":"view"},{"type":"function","name":"THRESHOLD_SQ","inputs":[],"outputs":[{"name":"","type":"uint256","internalType":"uint256"}],"stateMutability":"view"},{"type":"function","name":"getPlantedSecret","inputs":[{"name":"x","type":"bytes32","internalType":"bytes32"}],"outputs":[{"name":"secret","type":"int8[48]","internalType":"int8[48]"}],"stateMutability":"pure"},{"type":"function","name":"verifyPuzzle","inputs":[{"name":"x","type":"bytes32","internalType":"bytes32"},{"name":"solution","type":"int8[48]","internalType":"int8[48]"}],"outputs":[{"name":"valid","type":"bool","internalType":"bool"},{"name":"sHash","type":"bytes32","internalType":"bytes32"}],"stateMutability":"pure"}],"bytecode":{"object":"0x60808060405234601557610726908161001b8239f35b600080fdfe608080604052600436101561001357600080fd5b60003560e01c9081634bdbbf1c146102db5750806370ad866a146102be578063716b9efe1461028857806386ce902f1461024d578063933bd7c3146102315780639a6218f51461008d5763d9d09c2f1461006c57600080fd5b3461008857600036600319011261008857602060405160488152f35b600080fd5b34610088576020366003190112610088576106006040516100ae828261031d565b8136823760405160208101907f63fa20280546824e71b86edfaf14e77c493c05e830f4486c556c6c258de4a56682526004356040820152604081526100f460608261031d565b519020604051602081019182526d1c1b185b9d19590b5cd958dc995d60921b6040820152602e8152610127604e8261031d565b51902060005b60038110610165575050604051906000825b6030821061014c57505050f35b602080600192855160000b81520193019101909161013f565b60405160208101908382528260408201526040815261018560608261031d565b51902060005b6010811061019e575b505060010161012d565b8260041b90838204601014841517156102155780820180921161021557603082101561022b5780600f03600f8111610215578060041b90810460101482600f1417156102155761ffff846003921c16069160001983019283136001166102155761020e60019360000b91886102f6565b520161018b565b634e487b7160e01b600052601160045260246000fd5b50610194565b3461008857600036600319011261008857602060405160308152f35b346100885760003660031901126100885760206040517f63fa20280546824e71b86edfaf14e77c493c05e830f4486c556c6c258de4a5668152f35b34610088576106203660031901126100885736610624116100885760406102b0600435610355565b825191151582526020820152f35b3461008857600036600319011261008857602060405161012c8152f35b3461008857600036600319011261008857806107f760209252f35b9060308110156103075760051b0190565b634e487b7160e01b600052603260045260246000fd5b90601f8019910116810190811067ffffffffffffffff82111761033f57604052565b634e487b7160e01b600052604160045260246000fd5b602491600091825b60308110610660575060405160208101917f63fa20280546824e71b86edfaf14e77c493c05e830f4486c556c6c258de4a56683526040820152604081526103a560608261031d565b51902092610600936040516103ba868261031d565b8536823760405160208101908382526d1c1b185b9d19590b5cd958dc995d60921b6040820152602e81526103ef604e8261031d565b51902060005b600381106105e75750506000906000925b6048841061047357505061012c9150109384610420575050565b604051929350602083019291600090845b6030831061045057505050815261044a6106208261031d565b51902090565b8135908160000b8092036100885760208160019382935201920192019190610431565b909160405160208101908382528560408201526040815261049560608261031d565b5190206000908190825b60038110610532575050600192916107f78092604051906005602083018981526432b93937b960d91b60408501528b6045850152604584526104e260658561031d565b881993519020060101079060008212610529575b03076103fb811315610515576107f619015b8002019301929190610406565b6103fa19811215610508576107f701610508565b908201906104f6565b60405160208101908382528260408201526040815261055260608261031d565b5190206000905b6010821061056c575b505060010161049f565b909394848360041b019560308710156105df576107f761ffff8488600f0360041b1c1607600060308910156105cc57508760051b8d01358060000b809103610088576001936105bf91830201988c6102f6565b51830b0201940190610559565b634e487b7160e01b815260326004528d90fd5b945094610562565b60405160208101908382528260408201526040815261060760608261031d565b51902060005b60108110610620575b50506001016103f5565b808360041b01603081101561065a5790600191610653600019600361ffff8786600f0360041b1c160601840b91886102f6565b520161060d565b50610616565b600060308210156106dd57508060051b850180358060000b908181036100885760001982129283156106a7575b50505061069c5760010161035d565b506000935083925050565b90919250600060308510156106ca5750508190036100885760011238808061068d565b634e487b7160e01b815260326004528890fd5b634e487b7160e01b815260326004528590fdfea2646970667358221220507568a75711e3edec7f72a5427b17198bfc5e14f1d0bafc433772a5354d8d8c64736f6c634300081f0033","linkReferences":{}},"methodIdentifiers":{"M_WEAK()":"d9d09c2f","N_WEAK()":"933bd7c3","PUZZLE_DOMAIN()":"86ce902f","Q_WEAK()":"4bdbbf1c","THRESHOLD_SQ()":"70ad866a","getPlantedSecret(bytes32)":"9a6218f5","verifyPuzzle(bytes32,int8[48])":"716b9efe"},"id":11}