{"abi":[{"type":"function","name":"M_WEAK","inputs":[],"outputs":[{"name":"","type":"uint256","internalType":"uint256"}],"stateMutability":"view"},{"type":"function","name":"N_WEAK","inputs":[],"outputs":[{"name":"","type":"uint256","internalType":"uint256"}],"stateMutability":"view"},{"type":"function","name":"PUZZLE_DOMAIN","inputs":[],"outputs":[{"name":"","type":"bytes32","internalType":"bytes32"}],"stateMutability":"view"},{"type":"function","name":"Q_WEAK","inputs":[],"outputs":[{"name":"","type":"uint256","internalType":"uint256"}],"stateMutability":"view"},{"type":"function","name":"THRESHOLD_SQ","inputs":[],"outputs":[{"name":"","type":"uint256","internalType":"uint256"}],"stateMutability":"view"},{"type":"function","name":"getPlantedSecret","inputs":[{"name":"x","type":"bytes32","internalType":"bytes32"}],"outputs":[{"name":"","type":"int8[32]","internalType":"int8[32]"}],"stateMutability":"pure"},{"type":"function","name":"getPuzzleSeed","inputs":[{"name":"x","type":"bytes32","internalType":"bytes32"}],"outputs":[{"name":"","type":"bytes32","internalType":"bytes32"}],"stateMutability":"pure"},{"type":"function","name":"verifyPuzzle","inputs":[{"name":"x","type":"bytes32","internalType":"bytes32"},{"name":"solution","type":"int8[32]","internalType":"int8[32]"}],"outputs":[{"name":"valid","type":"bool","internalType":"bool"},{"name":"sHash","type":"bytes32","internalType":"bytes32"}],"stateMutability":"pure"}],"bytecode":{"object":"0x60808060405234601557610741908161001b8239f35b600080fdfe6080604052600436101561001257600080fd5b60003560e01c8063427c8c31146102f25780634bdbbf1c146102d557806370ad866a146102b957806381465e021461026c57806386ce902f14610243578063933bd7c3146102285780639a6218f5146100955763d9d09c2f1461007457600080fd5b3461009057600036600319011261009057602060405160308152f35b600080fd5b3461009057602036600319011261009057610400806040516100b7828261034f565b36903760405160208101906000805160206106ec83398151915282526004356040820152604081526100ea60608261034f565b519020604051906100fb838361034f565b82368337604051602081019182526d1c1b185b9d19590b5cd958dc995d60921b6040820152602e815261012f604e8261034f565b51902060005b6002811061016d575050604051906000825b6020821061015457505050f35b602080600192855160000b815201930191019091610147565b60405160208101908382528260408201526040815261018d60608261034f565b51902060005b601081106101a5575050600101610135565b80600f03600f8111610212578060041b90810460101482600f1417156102125761ffff836003921c1606906000198201918213600116610212578360041b84810460101485151715610212578181018091116102125761020b60019360000b9188610328565b5201610193565b634e487b7160e01b600052601160045260246000fd5b34610090576000366003190112610090576020604051818152f35b346100905760003660031901126100905760206040516000805160206106ec8339815191528152f35b34610090576020366003190112610090576020604051818101906000805160206106ec83398151915282526004356040820152604081526102ae60608261034f565b519020604051908152f35b3461009057600036600319011261009057602060405160c88152f35b346100905760003660031901126100905760206040516107f78152f35b346100905761042036600319011261009057366104241161009057604061031a600435610387565b825191151582526020820152f35b9060208110156103395760051b0190565b634e487b7160e01b600052603260045260246000fd5b90601f8019910116810190811067ffffffffffffffff82111761037157604052565b634e487b7160e01b600052604160045260246000fd5b602491600091825b6020811061065b575060405160208101916000805160206106ec83398151915283526040820152604081526103c560608261034f565b51902092610400936040516103da868261034f565b8536823760405160208101908382526d1c1b185b9d19590b5cd958dc995d60921b6040820152602e815261040f604e8261034f565b51902060005b600281106105f45750506000906000925b6030841061049257505060c8915010938461043f575050565b604051929350602083019291600090845b6020831061046f5750505081526104696104208261034f565b51902090565b8135908160000b8092036100905760208160019382935201920192019190610450565b90916040516020810190838252856040820152604081526104b460608261034f565b5190206000908190825b60028110610551575050600192916107f78092604051906005602083018981526432b93937b960d91b60408501528b60458501526045845261050160658561034f565b881993519020060101079060008212610548575b03076103fb811315610534576107f619015b8002019301929190610426565b6103fa19811215610527576107f701610527565b90820190610515565b60405160208101908382528260408201526040815261057160608261034f565b5190206000905b6010821061058a5750506001016104be565b909394848360041b01956107f761ffff8488600f0360041b1c1607600060208910156105e157508760051b8d01358060000b809103610090576001936105d491830201988c610328565b51830b0201940190610578565b634e487b7160e01b815260326004528d90fd5b60405160208101908382528260408201526040815261061460608261034f565b51902060005b6010811061062c575050600101610415565b600190600019600361ffff8584600f0360041b1c160601820b610654828660041b0188610328565b520161061a565b600060208210156106d857508060051b850180358060000b908181036100905760001982129283156106a2575b5050506106975760010161038f565b506000935083925050565b90919250600060208510156106c557505081900361009057600112388080610688565b634e487b7160e01b815260326004528890fd5b634e487b7160e01b815260326004528590fdfe02ddf870a018dcdb208491af8bb7e430d9eadd0ad141ab3ffe1eee9eff169d9da264697066735822122063e6f0e2b5ba582aaa0afc3861f5626cc0b8ea95b33e0f88d3e55c261857865964736f6c634300081f0033","linkReferences":{}},"methodIdentifiers":{"M_WEAK()":"d9d09c2f","N_WEAK()":"933bd7c3","PUZZLE_DOMAIN()":"86ce902f","Q_WEAK()":"4bdbbf1c","THRESHOLD_SQ()":"70ad866a","getPlantedSecret(bytes32)":"9a6218f5","getPuzzleSeed(bytes32)":"81465e02","verifyPuzzle(bytes32,int8[32])":"427c8c31"},"id":9}