{"abi":[{"type":"constructor","inputs":[{"name":"_circuitDataPointer","type":"address","internalType":"address"},{"name":"_numWires","type":"uint8","internalType":"uint8"},{"name":"_numGates","type":"uint32","internalType":"uint32"},{"name":"_expectedOutputHash","type":"bytes32","internalType":"bytes32"},{"name":"_expectedSehHash","type":"bytes32","internalType":"bytes32"},{"name":"_secretExpiry","type":"uint256","internalType":"uint256"}],"stateMutability":"payable"},{"type":"receive","stateMutability":"payable"},{"type":"function","name":"COMMIT_DELAY","inputs":[],"outputs":[{"name":"","type":"uint256","internalType":"uint256"}],"stateMutability":"view"},{"type":"function","name":"LWE_N","inputs":[],"outputs":[{"name":"","type":"uint256","internalType":"uint256"}],"stateMutability":"view"},{"type":"function","name":"Q","inputs":[],"outputs":[{"name":"","type":"uint256","internalType":"uint256"}],"stateMutability":"view"},{"type":"function","name":"THRESHOLD","inputs":[],"outputs":[{"name":"","type":"uint256","internalType":"uint256"}],"stateMutability":"view"},{"type":"function","name":"check","inputs":[{"name":"input","type":"bytes32","internalType":"bytes32"}],"outputs":[{"name":"","type":"bool","internalType":"bool"}],"stateMutability":"view"},{"type":"function","name":"checkWithSeh","inputs":[{"name":"input","type":"bytes32","internalType":"bytes32"}],"outputs":[{"name":"valid","type":"bool","internalType":"bool"},{"name":"sehHash","type":"bytes32","internalType":"bytes32"}],"stateMutability":"view"},{"type":"function","name":"circuitDataPointer","inputs":[],"outputs":[{"name":"","type":"address","internalType":"address"}],"stateMutability":"view"},{"type":"function","name":"commit","inputs":[{"name":"commitHash","type":"bytes32","internalType":"bytes32"}],"outputs":[],"stateMutability":"nonpayable"},{"type":"function","name":"commitDelay","inputs":[],"outputs":[{"name":"","type":"uint256","internalType":"uint256"}],"stateMutability":"pure"},{"type":"function","name":"encryptedGates","inputs":[],"outputs":[{"name":"","type":"uint256","internalType":"uint256"}],"stateMutability":"pure"},{"type":"function","name":"estimatedGas","inputs":[],"outputs":[{"name":"","type":"uint256","internalType":"uint256"}],"stateMutability":"pure"},{"type":"function","name":"expectedOutputHash","inputs":[],"outputs":[{"name":"","type":"bytes32","internalType":"bytes32"}],"stateMutability":"view"},{"type":"function","name":"expectedSehHash","inputs":[],"outputs":[{"name":"","type":"bytes32","internalType":"bytes32"}],"stateMutability":"view"},{"type":"function","name":"getCommit","inputs":[{"name":"committer","type":"address","internalType":"address"}],"outputs":[{"name":"","type":"bytes32","internalType":"bytes32"},{"name":"","type":"uint256","internalType":"uint256"}],"stateMutability":"view"},{"type":"function","name":"isExpired","inputs":[],"outputs":[{"name":"","type":"bool","internalType":"bool"}],"stateMutability":"view"},{"type":"function","name":"numGates","inputs":[],"outputs":[{"name":"","type":"uint32","internalType":"uint32"}],"stateMutability":"view"},{"type":"function","name":"numWires","inputs":[],"outputs":[{"name":"","type":"uint8","internalType":"uint8"}],"stateMutability":"view"},{"type":"function","name":"owner","inputs":[],"outputs":[{"name":"","type":"address","internalType":"address"}],"stateMutability":"view"},{"type":"function","name":"reclaimExpired","inputs":[],"outputs":[],"stateMutability":"nonpayable"},{"type":"function","name":"reveal","inputs":[{"name":"input","type":"bytes32","internalType":"bytes32"}],"outputs":[],"stateMutability":"nonpayable"},{"type":"function","name":"reward","inputs":[],"outputs":[{"name":"","type":"uint256","internalType":"uint256"}],"stateMutability":"view"},{"type":"function","name":"scheme","inputs":[],"outputs":[{"name":"","type":"string","internalType":"string"}],"stateMutability":"pure"},{"type":"function","name":"secretExpiry","inputs":[],"outputs":[{"name":"","type":"uint256","internalType":"uint256"}],"stateMutability":"view"},{"type":"function","name":"timeRemaining","inputs":[],"outputs":[{"name":"","type":"uint256","internalType":"uint256"}],"stateMutability":"view"},{"type":"event","name":"Claimed","inputs":[{"name":"claimer","type":"address","indexed":true,"internalType":"address"},{"name":"commitHash","type":"bytes32","indexed":true,"internalType":"bytes32"},{"name":"reward","type":"uint256","indexed":false,"internalType":"uint256"}],"anonymous":false},{"type":"event","name":"Committed","inputs":[{"name":"committer","type":"address","indexed":true,"internalType":"address"},{"name":"commitHash","type":"bytes32","indexed":true,"internalType":"bytes32"},{"name":"blockNumber","type":"uint256","indexed":false,"internalType":"uint256"}],"anonymous":false}],"bytecode":{"object":"0x610160601f61178a38819003918201601f19168301916001600160401b038311848410176102615780849260c09460405283398101031261025c578051906001600160a01b03821680830361025c5760208201519260ff84169384810361025c5760408401519163ffffffff83169384840361025c5760608601519460a06080880151970151978015159081610250575b501561021657156101df57156101a857428611156101635760805260a05260c05260e0526101005261012052336101405234600055604051611512908161027882396080518181816106e20152610beb015260a05181818161087c0152610bbd015260c0518181816107690152610c56015260e0518181816101b60152610cff0152610100518181816107290152610d2a01526101205181818161024c015281816102a80152818161034c0152818161044c015281816107e00152610b68015261014051818181610319015261069d0152f35b60405162461bcd60e51b815260206004820152601860248201527f457870697279206d75737420626520696e2066757475726500000000000000006044820152606490fd5b60405162461bcd60e51b815260206004820152600f60248201526e24b73b30b634b2103837b4b73a32b960891b6044820152606490fd5b60405162461bcd60e51b815260206004820152600f60248201526e4d757374206861766520676174657360881b6044820152606490fd5b60405162461bcd60e51b815260206004820152601260248201527115da5c995cc81b5d5cdd081899480c4b4d8d60721b6044820152606490fd5b60409150111538610090565b600080fd5b634e487b7160e01b600052604160045260246000fdfe60806040526004361015610023575b361561001957600080fd5b610021610ba2565b005b60003560e01c80630bd48e601461019e578063228cb733146101995780632b6b1142146101945780632f13b60c1461018f578063342746aa1461018a578063363c058c14610185578063399e0792146101805780633fe8e80f1461017b57806342f370bc1461017657806350857fb21461014e5780636bc3030414610171578063701fd0f11461016c578063785ffb37146101675780638518b0ad146101625780638696b8871461015d5780638da5cb5b146101585780639e9d2938146101535780639ffedd171461014e578063d014918114610149578063d1b92e4314610144578063e3cfef601461013f578063e493ef8c1461013a578063f14fcbc8146101355763faaf4d9a0361000e57610862565b6107cd565b6107b0565b61078d565b61074c565b610711565b6103ef565b6106cc565b610687565b610624565b61059f565b610581565b610427565b61040b565b610306565b6102e9565b6102cb565b610290565b610272565b610234565b61020e565b6101de565b346101d95760003660031901126101d95760206040517f00000000000000000000000000000000000000000000000000000000000000008152f35b600080fd5b346101d95760003660031901126101d9576020600054604051908152f35b60209060031901126101d95760043590565b346101d9576040610226610221366101fc565b610bb4565b825191151582526020820152f35b346101d95760003660031901126101d95760206040517f00000000000000000000000000000000000000000000000000000000000000004210158152f35b346101d95760003660031901126101d9576020604051623567e08152f35b346101d95760003660031901126101d95760206040517f00000000000000000000000000000000000000000000000000000000000000008152f35b346101d95760206102de610221366101fc565b506040519015158152f35b346101d95760003660031901126101d95760206040516102808152f35b346101d95760003660031901126101d9577f00000000000000000000000000000000000000000000000000000000000000006001600160a01b031633036103bd576103737f00000000000000000000000000000000000000000000000000000000000000004210156108a0565b61038e61038961038560015460ff1690565b1590565b6108de565b61039f600160ff1981541617600155565b61002160008080808054818055335af16103b7610975565b506109b5565b60405162461bcd60e51b815260206004820152600a60248201526927b7363c9037bbb732b960b11b6044820152606490fd5b346101d95760003660031901126101d957602060405160028152f35b346101d95760003660031901126101d957602060405160408152f35b346101d957610435366101fc565b61044761038961038560015460ff1690565b6104727f000000000000000000000000000000000000000000000000000000000000000042106109f3565b3360009081526002602052604090206104f6906104f09061049290610a30565b926104b76104af602086016104a981511515610a4e565b51610a8c565b431015610a9f565b60408051336020820190815291810183905261022191906104e581606081015b03601f198101835282610953565b519020855114610ade565b50610b1b565b610507600160ff1981541617600155565b336000908152600260205260408120818155600101556000549060008055610539600080808086335af16103b7610975565b516040519182529033907f9b01158d4bc10c112ba32b5240cda97e49e2eb86021f03f6a0f460342ac4dfda90602090a3005b634e487b7160e01b600052601160045260246000fd5b346101d95760003660031901126101d9576020613ffc604051908152f35b346101d95760003660031901126101d95760408051906105bf8183610953565b600e82526d746c6f2d6c696f2d6b656363616b60901b6020830152805180926020825280519081602084015260005b82811061060d5750506000828201840152601f01601f19168101030190f35b6020828201810151878301870152869450016105ee565b346101d95760203660031901126101d9576004356001600160a01b038116908190036101d95760005260026020526040600020602060405161066581610932565b8254808252600190930154910181905260408051928352602083019190915290f35b346101d95760003660031901126101d9576040517f00000000000000000000000000000000000000000000000000000000000000006001600160a01b03168152602090f35b346101d95760003660031901126101d9576040517f00000000000000000000000000000000000000000000000000000000000000006001600160a01b03168152602090f35b346101d95760003660031901126101d95760206040517f00000000000000000000000000000000000000000000000000000000000000008152f35b346101d95760003660031901126101d957602060405163ffffffff7f0000000000000000000000000000000000000000000000000000000000000000168152f35b346101d95760003660031901126101d95760206107a8610b66565b604051908152f35b346101d95760003660031901126101d957602060405161fff18152f35b346101d9576107db366101fc565b6108067f000000000000000000000000000000000000000000000000000000000000000042106109f3565b60405161081281610932565b818152600160208201438152336000526002602052604060002092518355519101556040514381527f550e735193e8f8bf0398f14bcadbbbf0329d5401f6786981e63f5b010662b00e60203392a3005b346101d95760003660031901126101d957602060405160ff7f0000000000000000000000000000000000000000000000000000000000000000168152f35b156108a757565b60405162461bcd60e51b815260206004820152600f60248201526e139bdd08195e1c1a5c9959081e595d608a1b6044820152606490fd5b156108e557565b60405162461bcd60e51b815260206004820152600f60248201526e105b1c9958591e4818db185a5b5959608a1b6044820152606490fd5b634e487b7160e01b600052604160045260246000fd5b6040810190811067ffffffffffffffff82111761094e57604052565b61091c565b90601f8019910116810190811067ffffffffffffffff82111761094e57604052565b3d156109b0573d9067ffffffffffffffff821161094e57604051916109a4601f8201601f191660200184610953565b82523d6000602084013e565b606090565b156109bc57565b60405162461bcd60e51b815260206004820152600f60248201526e151c985b9cd9995c8819985a5b1959608a1b6044820152606490fd5b156109fa57565b60405162461bcd60e51b815260206004820152600e60248201526d14d958dc995d08195e1c1a5c995960921b6044820152606490fd5b90604051610a3d81610932565b602060018294805484520154910152565b15610a5557565b60405162461bcd60e51b815260206004820152600f60248201526e139bc818dbdb5b5a5d08199bdd5b99608a1b6044820152606490fd5b9060028201809211610a9a57565b61056b565b15610aa657565b60405162461bcd60e51b815260206004820152601060248201526f52657665616c20746f6f206561726c7960801b6044820152606490fd5b15610ae557565b60405162461bcd60e51b815260206004820152600e60248201526d125b9d985b1a59081c995d99585b60921b6044820152606490fd5b15610b2257565b60405162461bcd60e51b815260206004820152600d60248201526c125b9d985b1a59081a5b9c1d5d609a1b6044820152606490fd5b600019810191908211610a9a57565b7f000000000000000000000000000000000000000000000000000000000000000080421015610b9c57428103908111610a9a5790565b50600090565b600054348101809111610a9a57600055565b610be3600160ff7f0000000000000000000000000000000000000000000000000000000000000000161b610b57565b811690610c0f7f00000000000000000000000000000000000000000000000000000000000000006113a2565b610c18826113d2565b939094604093929351610c50816104d78a602083019586909160489282526714d1520b5253925560c21b602083015260288201520190565b519020947f000000000000000000000000000000000000000000000000000000000000000094613ffc60208085019461020b63ffffffff8a160201019460009682600302935b878710610d4e57505060408051602081019a8b529081018b905260e09890981b6001600160e01b031916606089015250610cdd9550869450506064840192506104d7915050565b51902090604051610cfa816104d760208201948560209181520190565b5190207f00000000000000000000000000000000000000000000000000000000000000001480610d275791565b507f0000000000000000000000000000000000000000000000000000000000000000811491565b90919293949596979a8751908160f81c603f169181808260e81c603f161c60011b6002169160f01c603f161c60011617608202890160038101516023820151908a604384015191896063860151956083015160f01c958961ffff811661ffff831602968c8260101c61ffff168460101c61ffff1602978360201c61ffff168560201c61ffff1602978460301c61ffff168660301c61ffff1602978560401c61ffff168760401c61ffff1602978660501c61ffff168860501c61ffff1602978760601c61ffff168160601c61ffff1602978060701c61ffff168260701c61ffff1602978160801c61ffff168360801c61ffff1602978260901c61ffff168460901c61ffff1602978360a01c61ffff168560a01c61ffff1602978460b01c61ffff168660b01c61ffff1602978560c01c61ffff168760c01c61ffff1602978660d01c61ffff168860d01c61ffff1602978760e01c61ffff168160e01c61ffff16029760f01c9060f01c029561ffff841661ffff861602958460101c61ffff168660101c61ffff1602958560201c61ffff168160201c61ffff1602958060301c61ffff168260301c61ffff1602958160401c61ffff168360401c61ffff1602958260501c61ffff168460501c61ffff1602958360601c61ffff168560601c61ffff1602958460701c61ffff168660701c61ffff1602958560801c61ffff168160801c61ffff1602958060901c61ffff168260901c61ffff1602958160a01c61ffff168360a01c61ffff1602958260b01c61ffff168460b01c61ffff1602958360c01c61ffff168560c01c61ffff1602958460d01c61ffff168660d01c61ffff1602958560e01c61ffff168160e01c61ffff16029560f01c9060f01c029361ffff821661ffff841602938260101c61ffff168460101c61ffff1602938360201c61ffff168160201c61ffff1602938060301c61ffff168260301c61ffff1602938160401c61ffff168360401c61ffff1602938260501c61ffff168460501c61ffff1602938360601c61ffff168160601c61ffff1602938060701c61ffff168260701c61ffff1602938160801c61ffff168360801c61ffff1602938260901c61ffff168460901c61ffff1602938360a01c61ffff168160a01c61ffff1602938060b01c61ffff168260b01c61ffff1602938160c01c61ffff168360c01c61ffff1602938260d01c61ffff168460d01c61ffff1602938360e01c61ffff168160e01c61ffff16029360f01c9060f01c029161ffff821661ffff821602918060101c61ffff168260101c61ffff1602918160201c61ffff168160201c61ffff1602918060301c61ffff168260301c61ffff1602918160401c61ffff168160401c61ffff1602918060501c61ffff168260501c61ffff1602918160601c61ffff168160601c61ffff1602918060701c61ffff168260701c61ffff1602918160801c61ffff168160801c61ffff1602918060901c61ffff168260901c61ffff1602918160a01c61ffff168160a01c61ffff1602918060b01c61ffff168260b01c61ffff1602918160c01c61ffff168160c01c61ffff1602918060d01c61ffff168260d01c61ffff1602918160e01c61ffff168160e01c61ffff16029160f01c9060f01c0261fff190060161fff190060161fff190060161fff190060161fff190060161fff190060161fff190060161fff190060161fff190060161fff190060161fff190060161fff190060161fff190060161fff190060161fff190060161fff190060161fff190060161fff190060161fff190060161fff190060161fff190060161fff190060161fff190060161fff190060161fff190060161fff190060161fff190060161fff190060161fff190060161fff190060161fff190060161fff190060161fff190060161fff190060161fff190060161fff190060161fff190060161fff190060161fff190060161fff190060161fff190060161fff190060161fff190060161fff190060161fff190060161fff190060161fff190060161fff190060161fff190060161fff190060161fff190060161fff190060161fff190060161fff190060161fff190060161fff190060161fff190060161fff190060161fff190060161fff190060161fff190060161fff190060161fff190060161fff19006900361fff10161fff190068688821091111681831c60011618821b916001901b1916179a6001019661020b01959493929190979697610c96565b803b90600019820190828211610a9a5760019060405193603e601f19910116840160405282845260208401903c90565b60009160009160009160009160405160208101906113ff816104d785856040918152600060208201520190565b5190206040516020810190611423816104d786856040918152600160208201520190565b519020906040516020810190611448816104d787856040918152600260208201520190565b5190209260405161146c816104d76020820194856040918152600360208201520190565b5190206000935b60108510611482575050505050565b909192939560019087600f9b999a9b0360041b9861fff161ffff878c1c16068a1b179a61fff161ffff888c1c16068a1b179961fff161ffff858c1c16068a1b179861fff161ffff86831c1606901b1796019392919061147356fea26469706673582212203e45fcf58920cae93db4f3daa3b7f3796e79e641a4178a418f16f610ca41c92264736f6c634300081f0033","linkReferences":{}},"methodIdentifiers":{"COMMIT_DELAY()":"50857fb2","LWE_N()":"6bc30304","Q()":"e493ef8c","THRESHOLD()":"785ffb37","check(bytes32)":"399e0792","checkWithSeh(bytes32)":"2b6b1142","circuitDataPointer()":"9e9d2938","commit(bytes32)":"f14fcbc8","commitDelay()":"9ffedd17","encryptedGates()":"3fe8e80f","estimatedGas()":"342746aa","expectedOutputHash()":"0bd48e60","expectedSehHash()":"d0149181","getCommit(address)":"8696b887","isExpired()":"2f13b60c","numGates()":"d1b92e43","numWires()":"faaf4d9a","owner()":"8da5cb5b","reclaimExpired()":"42f370bc","reveal(bytes32)":"701fd0f1","reward()":"228cb733","scheme()":"8518b0ad","secretExpiry()":"363c058c","timeRemaining()":"e3cfef60"},"id":0}