{"abi":[{"type":"constructor","inputs":[{"name":"_circuitDataPointer","type":"address","internalType":"address"},{"name":"_numWires","type":"uint8","internalType":"uint8"},{"name":"_numGates","type":"uint32","internalType":"uint32"},{"name":"_expectedOutputHash","type":"bytes32","internalType":"bytes32"},{"name":"_circuitSeed","type":"bytes32","internalType":"bytes32"},{"name":"_expectedBindingOutput","type":"uint256[4]","internalType":"uint256[4]"},{"name":"_secretExpiry","type":"uint256","internalType":"uint256"}],"stateMutability":"payable"},{"type":"receive","stateMutability":"payable"},{"type":"function","name":"BINDING_ROWS","inputs":[],"outputs":[{"name":"","type":"uint256","internalType":"uint256"}],"stateMutability":"view"},{"type":"function","name":"COMMIT_DELAY","inputs":[],"outputs":[{"name":"","type":"uint256","internalType":"uint256"}],"stateMutability":"view"},{"type":"function","name":"LBLO_N","inputs":[],"outputs":[{"name":"","type":"uint256","internalType":"uint256"}],"stateMutability":"view"},{"type":"function","name":"Q","inputs":[],"outputs":[{"name":"","type":"uint256","internalType":"uint256"}],"stateMutability":"view"},{"type":"function","name":"THRESHOLD","inputs":[],"outputs":[{"name":"","type":"uint256","internalType":"uint256"}],"stateMutability":"view"},{"type":"function","name":"check","inputs":[{"name":"input","type":"bytes32","internalType":"bytes32"}],"outputs":[{"name":"","type":"bool","internalType":"bool"}],"stateMutability":"view"},{"type":"function","name":"checkWithBinding","inputs":[{"name":"input","type":"bytes32","internalType":"bytes32"}],"outputs":[{"name":"valid","type":"bool","internalType":"bool"},{"name":"bindingOutput","type":"uint256[4]","internalType":"uint256[4]"}],"stateMutability":"view"},{"type":"function","name":"circuitDataPointer","inputs":[],"outputs":[{"name":"","type":"address","internalType":"address"}],"stateMutability":"view"},{"type":"function","name":"circuitSeed","inputs":[],"outputs":[{"name":"","type":"bytes32","internalType":"bytes32"}],"stateMutability":"view"},{"type":"function","name":"commit","inputs":[{"name":"commitHash","type":"bytes32","internalType":"bytes32"}],"outputs":[],"stateMutability":"nonpayable"},{"type":"function","name":"commitDelay","inputs":[],"outputs":[{"name":"","type":"uint256","internalType":"uint256"}],"stateMutability":"pure"},{"type":"function","name":"encryptedGates","inputs":[],"outputs":[{"name":"","type":"uint256","internalType":"uint256"}],"stateMutability":"pure"},{"type":"function","name":"estimatedGas","inputs":[],"outputs":[{"name":"","type":"uint256","internalType":"uint256"}],"stateMutability":"pure"},{"type":"function","name":"expectedBindingOutput0","inputs":[],"outputs":[{"name":"","type":"uint256","internalType":"uint256"}],"stateMutability":"view"},{"type":"function","name":"expectedBindingOutput1","inputs":[],"outputs":[{"name":"","type":"uint256","internalType":"uint256"}],"stateMutability":"view"},{"type":"function","name":"expectedBindingOutput2","inputs":[],"outputs":[{"name":"","type":"uint256","internalType":"uint256"}],"stateMutability":"view"},{"type":"function","name":"expectedBindingOutput3","inputs":[],"outputs":[{"name":"","type":"uint256","internalType":"uint256"}],"stateMutability":"view"},{"type":"function","name":"expectedOutputHash","inputs":[],"outputs":[{"name":"","type":"bytes32","internalType":"bytes32"}],"stateMutability":"view"},{"type":"function","name":"getCommit","inputs":[{"name":"committer","type":"address","internalType":"address"}],"outputs":[{"name":"","type":"bytes32","internalType":"bytes32"},{"name":"","type":"uint256","internalType":"uint256"}],"stateMutability":"view"},{"type":"function","name":"isExpired","inputs":[],"outputs":[{"name":"","type":"bool","internalType":"bool"}],"stateMutability":"view"},{"type":"function","name":"numGates","inputs":[],"outputs":[{"name":"","type":"uint32","internalType":"uint32"}],"stateMutability":"view"},{"type":"function","name":"numWires","inputs":[],"outputs":[{"name":"","type":"uint8","internalType":"uint8"}],"stateMutability":"view"},{"type":"function","name":"owner","inputs":[],"outputs":[{"name":"","type":"address","internalType":"address"}],"stateMutability":"view"},{"type":"function","name":"reclaimExpired","inputs":[],"outputs":[],"stateMutability":"nonpayable"},{"type":"function","name":"reveal","inputs":[{"name":"input","type":"bytes32","internalType":"bytes32"}],"outputs":[],"stateMutability":"nonpayable"},{"type":"function","name":"reward","inputs":[],"outputs":[{"name":"","type":"uint256","internalType":"uint256"}],"stateMutability":"view"},{"type":"function","name":"scheme","inputs":[],"outputs":[{"name":"","type":"string","internalType":"string"}],"stateMutability":"pure"},{"type":"function","name":"secretExpiry","inputs":[],"outputs":[{"name":"","type":"uint256","internalType":"uint256"}],"stateMutability":"view"},{"type":"function","name":"timeRemaining","inputs":[],"outputs":[{"name":"","type":"uint256","internalType":"uint256"}],"stateMutability":"view"},{"type":"event","name":"Claimed","inputs":[{"name":"claimer","type":"address","indexed":true,"internalType":"address"},{"name":"commitHash","type":"bytes32","indexed":true,"internalType":"bytes32"},{"name":"reward","type":"uint256","indexed":false,"internalType":"uint256"}],"anonymous":false},{"type":"event","name":"Committed","inputs":[{"name":"committer","type":"address","indexed":true,"internalType":"address"},{"name":"commitHash","type":"bytes32","indexed":true,"internalType":"bytes32"},{"name":"blockNumber","type":"uint256","indexed":false,"internalType":"uint256"}],"anonymous":false}],"bytecode":{"object":"0x6101e060408190526118f63881900390601f8201601f19168301906001600160401b038211848310176103365782916040528339810190610140818303126103315780516001600160a01b038116929091908383036103315760208201519360ff8516948581036103315760408401519063ffffffff821692838303610331576060860151936080870151958060bf890112156103315760405197608089016001600160401b0381118a82101761033657604052889061012081019283116103315760a001905b82821061032157505051988015159081610315575b50156102db57156102a4571561026d57428711156102285760609560805260a05260c05260e0526101005280516101405260208101516101605260408101516101805201516101a05261012052336101c052346000556040516115a9908161034d82396080518181816107dd0152610db8015260a051818181610a0901528181610d870152818161134f0152611489015260c0518181816108640152610df6015260e0518181816102060152610e4d01526101005181818161048e0152818161137201526114670152610120518181816102bb01528181610318015281816103d3015281816104f20152818161096d0152610d290152610140518181816102460152610f140152610160518181816108a00152610ee90152610180518181816109370152610ebb01526101a0518181816108240152610e9101526101c0518181816103a001526107980152f35b60405162461bcd60e51b815260206004820152601860248201527f457870697279206d75737420626520696e2066757475726500000000000000006044820152606490fd5b60405162461bcd60e51b815260206004820152600f60248201526e24b73b30b634b2103837b4b73a32b960891b6044820152606490fd5b60405162461bcd60e51b815260206004820152600f60248201526e4d757374206861766520676174657360881b6044820152606490fd5b60405162461bcd60e51b815260206004820152601260248201527115da5c995cc81b5d5cdd081899480c4b4d8d60721b6044820152606490fd5b604091501115386100db565b81518152602091820191016100c6565b600080fd5b634e487b7160e01b600052604160045260246000fdfe60806040526004361015610023575b361561001957600080fd5b610021610d63565b005b60003560e01c80630bd48e60146101ee578063103117c7146101e95780631a69cad5146101e4578063228cb733146101df5780632f13b60c146101da578063342746aa146101d5578063363c058c146101d0578063399e0792146101cb5780633fe8e80f146101c657806342f370bc146101c15780634d26bf29146101bc57806350857fb214610194578063701fd0f1146101b7578063785ffb37146101b257806384ddfacc146101ad5780638518b0ad146101a85780638696b887146101a35780638da5cb5b1461019e5780639e9d2938146101995780639ffedd1714610194578063cdb27ded1461018f578063d1b92e431461018a578063d262512b14610185578063e3cfef6014610180578063e493ef8c1461017b578063e798fbd814610176578063ed2cc90f14610171578063f14fcbc81461016c5763faaf4d9a0361000e576109ef565b61095a565b61091f565b610903565b6108e6565b6108c3565b610888565b610847565b61080c565b6104b1565b6107c7565b610782565b61071f565b61069f565b610645565b610627565b6104cd565b610476565b61038d565b610370565b61034d565b610300565b6102e1565b6102a3565b610285565b610269565b61022e565b346102295760003660031901126102295760206040517f00000000000000000000000000000000000000000000000000000000000000008152f35b600080fd5b346102295760003660031901126102295760206040517f00000000000000000000000000000000000000000000000000000000000000008152f35b3461022957600036600319011261022957602060405160408152f35b34610229576000366003190112610229576020600054604051908152f35b346102295760003660031901126102295760206040517f00000000000000000000000000000000000000000000000000000000000000004210158152f35b346102295760003660031901126102295760206040516302faf0808152f35b346102295760003660031901126102295760206040517f00000000000000000000000000000000000000000000000000000000000000008152f35b60209060031901126102295760043590565b346102295760206103656103603661033b565b610d75565b506040519015158152f35b346102295760003660031901126102295760206040516102808152f35b34610229576000366003190112610229577f00000000000000000000000000000000000000000000000000000000000000006001600160a01b03163303610444576103fa7f0000000000000000000000000000000000000000000000000000000000000000421015610a2d565b61041561041061040c60015460ff1690565b1590565b610a6b565b610426600160ff1981541617600155565b61002160008080808054818055335af161043e610b02565b50610b42565b60405162461bcd60e51b815260206004820152600a60248201526927b7363c9037bbb732b960b11b6044820152606490fd5b346102295760003660031901126102295760206040517f00000000000000000000000000000000000000000000000000000000000000008152f35b3461022957600036600319011261022957602060405160028152f35b34610229576104db3661033b565b6104ed61041061040c60015460ff1690565b6105187f00000000000000000000000000000000000000000000000000000000000000004210610b80565b33600090815260026020526040902061059c906105969061053890610bbd565b9261055d6105556020860161054f81511515610bdb565b51610c19565b431015610c3a565b604080513360208201908152918101839052610360919061058b81606081015b03601f198101835282610ae0565b519020855114610c79565b50610cb6565b6105ad600160ff1981541617600155565b3360009081526002602052604081208181556001015560005490600080556105df600080808086335af161043e610b02565b516040519182529033907f9b01158d4bc10c112ba32b5240cda97e49e2eb86021f03f6a0f460342ac4dfda90602090a3005b634e487b7160e01b600052601160045260246000fd5b34610229576000366003190112610229576020613ffc604051908152f35b346102295761066d6106563661033b565b60806040516106658282610ae0565b369037610d75565b60405191151582526000602083015b600482106106895760a084f35b602080600192855181520193019101909161067c565b346102295760003660031901126102295760408051906106bf8183610ae0565b6009825268746c6f732d6c626c6f60b81b6020830152805180926020825280519081602084015260005b8281106107085750506000828201840152601f01601f19168101030190f35b6020828201810151878301870152869450016106e9565b34610229576020366003190112610229576004356001600160a01b038116908190036102295760005260026020526040600020602060405161076081610abf565b8254808252600190930154910181905260408051928352602083019190915290f35b34610229576000366003190112610229576040517f00000000000000000000000000000000000000000000000000000000000000006001600160a01b03168152602090f35b34610229576000366003190112610229576040517f00000000000000000000000000000000000000000000000000000000000000006001600160a01b03168152602090f35b346102295760003660031901126102295760206040517f00000000000000000000000000000000000000000000000000000000000000008152f35b3461022957600036600319011261022957602060405163ffffffff7f0000000000000000000000000000000000000000000000000000000000000000168152f35b346102295760003660031901126102295760206040517f00000000000000000000000000000000000000000000000000000000000000008152f35b346102295760003660031901126102295760206108de610d27565b604051908152f35b3461022957600036600319011261022957602060405161fff18152f35b3461022957600036600319011261022957602060405160808152f35b346102295760003660031901126102295760206040517f00000000000000000000000000000000000000000000000000000000000000008152f35b34610229576109683661033b565b6109937f00000000000000000000000000000000000000000000000000000000000000004210610b80565b60405161099f81610abf565b818152600160208201438152336000526002602052604060002092518355519101556040514381527f550e735193e8f8bf0398f14bcadbbbf0329d5401f6786981e63f5b010662b00e60203392a3005b3461022957600036600319011261022957602060405160ff7f0000000000000000000000000000000000000000000000000000000000000000168152f35b15610a3457565b60405162461bcd60e51b815260206004820152600f60248201526e139bdd08195e1c1a5c9959081e595d608a1b6044820152606490fd5b15610a7257565b60405162461bcd60e51b815260206004820152600f60248201526e105b1c9958591e4818db185a5b5959608a1b6044820152606490fd5b634e487b7160e01b600052604160045260246000fd5b6040810190811067ffffffffffffffff821117610adb57604052565b610aa9565b90601f8019910116810190811067ffffffffffffffff821117610adb57604052565b3d15610b3d573d9067ffffffffffffffff8211610adb5760405191610b31601f8201601f191660200184610ae0565b82523d6000602084013e565b606090565b15610b4957565b60405162461bcd60e51b815260206004820152600f60248201526e151c985b9cd9995c8819985a5b1959608a1b6044820152606490fd5b15610b8757565b60405162461bcd60e51b815260206004820152600e60248201526d14d958dc995d08195e1c1a5c995960921b6044820152606490fd5b90604051610bca81610abf565b602060018294805484520154910152565b15610be257565b60405162461bcd60e51b815260206004820152600f60248201526e139bc818dbdb5b5a5d08199bdd5b99608a1b6044820152606490fd5b9060028201809211610c2757565b610611565b9060808201809211610c2757565b15610c4157565b60405162461bcd60e51b815260206004820152601060248201526f52657665616c20746f6f206561726c7960801b6044820152606490fd5b15610c8057565b60405162461bcd60e51b815260206004820152600e60248201526d125b9d985b1a59081c995d99585b60921b6044820152606490fd5b15610cbd57565b60405162461bcd60e51b815260206004820152600d60248201526c125b9d985b1a59081a5b9c1d5d609a1b6044820152606490fd5b604051906080610d028184610ae0565b368337565b60405190610100610d028184610ae0565b600019810191908211610c2757565b7f000000000000000000000000000000000000000000000000000000000000000080421015610d5d57428103908111610c275790565b50600090565b600054348101809111610c2757600055565b610d7d610cf2565b50610dad600160ff7f0000000000000000000000000000000000000000000000000000000000000000161b610d18565b811690610de2610ddc7f0000000000000000000000000000000000000000000000000000000000000000611165565b91611195565b90610dec83611341565b9160009161bff4917f000000000000000000000000000000000000000000000000000000000000000063ffffffff1691613ffc5b838610610f3b575050505050508091604051610e488161057d60208201948560209181520190565b5190207f0000000000000000000000000000000000000000000000000000000000000000149081610f10575b81610ee2575b81610eb4575b81610e89575091565b6060019050517f00000000000000000000000000000000000000000000000000000000000000001491565b60408101517f0000000000000000000000000000000000000000000000000000000000000000149150610e80565b60208101517f0000000000000000000000000000000000000000000000000000000000000000149150610e7a565b80517f0000000000000000000000000000000000000000000000000000000000000000149150610e74565b909192939495610f4a87610c2c565b9085821161115d575b602061040b8902850101602061040b84028601015b808210610fb0575050610fa69189610fa092610f988151610f898360200190565b51186040830151189160600190565b51181861145a565b96610c2c565b9493929190610e20565b90998a5190610102603f8360f81c1692600183603f600282828660e81c161c841b169360f01c161c1617028c01600090815b60088110611023575061fff18061040b95949381610103600195015160f01c910690030106888d82109111168183851c1618831b921b1916179a0190610f68565b916001908360051b60038185010151908d015161ffff811661ffff8316029261ffff8260101c1661ffff8460101c16029261ffff8360201c1661ffff8260201c16029261ffff8160301c1661ffff8360301c16029261ffff8260401c1661ffff8460401c16029261ffff8360501c1661ffff8260501c16029261ffff8160601c1661ffff8360601c16029261ffff8260701c1661ffff8460701c16029261ffff8360801c1661ffff8260801c16029261ffff8160901c1661ffff8360901c16029261ffff8260a01c1661ffff8460a01c16029261ffff8360b01c1661ffff8260b01c16029261ffff8160c01c1661ffff8360c01c16029261ffff8260d01c1661ffff8460d01c16029261ffff8360e01c1661ffff8260e01c16029260f01c9060f01c02010101010101010101010101010101019201610fe2565b859150610f53565b803b90600019820190828211610c275760019060405193603e601f19910116840160405282845260208401903c90565b9061119e610d07565b916111a7610d07565b9060405160208101906111c98161057d85856040918152600060208201520190565b519020825260405160208101906111ef8161057d85856040918152600160208201520190565b519020602083015260405160208101906112188161057d85856040918152600260208201520190565b519020604083015260405160208101906112418161057d85856040918152600360208201520190565b5190206060830152604051602081019061126a8161057d85856040918152600460208201520190565b519020608083015260405160208101906112938161057d85856040918152600560208201520190565b51902060a083015260405160208101906112bc8161057d85856040918152600660208201520190565b51902060c08301526040516112e48161057d6020820194856040918152600760208201520190565b51902060e082015260005b600881106112fb575050565b8060051b808301519060009182905b6010821061131f5750508501526001016112ef565b909260019084600f0360041b61fff161ffff85831c1606901b1793019061130a565b9061134a610cf2565b9160ff7f000000000000000000000000000000000000000000000000000000000000000016907f00000000000000000000000000000000000000000000000000000000000000009060005b604081106113a35750505050565b604051838152602081016000815282604083015260608220906000928391845b8984106113f557505050505090600191601f1982841b1688019061ffff8251911660f08460041b161b17905201611395565b848352808252604083206000905b8b861060108310166114195750506001016113c3565b909460018a821c16611433575b6001809101950190611403565b9661fff161ffff838860041b1c1606019661fff188106114265761fff01990970196611426565b9190611464610cf2565b927f0000000000000000000000000000000000000000000000000000000000000000907f000000000000000000000000000000000000000000000000000000000000000060ff1660005b604081106114bd575050505050565b6040518481526020810186815282604083015260608220906000928391845b87841061150e57505050505090600191601f1982841b1689019061ffff8251911660f08460041b161b179052016114ae565b848352808252604083206000905b89861060108310166115325750506001016114dc565b909460018b821c1661154c575b600180910195019061151c565b9661fff161ffff838860041b1c1606019661fff1881061153f5761fff0199097019661153f56fea2646970667358221220d0b69567983cad04d78cdea25dc584bf45437fc73a2204571e864adde18581ca64736f6c634300081f0033","linkReferences":{}},"methodIdentifiers":{"BINDING_ROWS()":"1a69cad5","COMMIT_DELAY()":"50857fb2","LBLO_N()":"e798fbd8","Q()":"e493ef8c","THRESHOLD()":"785ffb37","check(bytes32)":"399e0792","checkWithBinding(bytes32)":"84ddfacc","circuitDataPointer()":"9e9d2938","circuitSeed()":"4d26bf29","commit(bytes32)":"f14fcbc8","commitDelay()":"9ffedd17","encryptedGates()":"3fe8e80f","estimatedGas()":"342746aa","expectedBindingOutput0()":"103117c7","expectedBindingOutput1()":"d262512b","expectedBindingOutput2()":"ed2cc90f","expectedBindingOutput3()":"cdb27ded","expectedOutputHash()":"0bd48e60","getCommit(address)":"8696b887","isExpired()":"2f13b60c","numGates()":"d1b92e43","numWires()":"faaf4d9a","owner()":"8da5cb5b","reclaimExpired()":"42f370bc","reveal(bytes32)":"701fd0f1","reward()":"228cb733","scheme()":"8518b0ad","secretExpiry()":"363c058c","timeRemaining()":"e3cfef60"},"id":0}