{"abi":[{"type":"constructor","inputs":[{"name":"_circuitDataPointer","type":"address","internalType":"address"},{"name":"_numWires","type":"uint8","internalType":"uint8"},{"name":"_numGates","type":"uint32","internalType":"uint32"},{"name":"_expectedOutputHash","type":"bytes32","internalType":"bytes32"},{"name":"_circuitSeed","type":"bytes32","internalType":"bytes32"},{"name":"_expectedBindingOutput","type":"uint256[4]","internalType":"uint256[4]"},{"name":"_secretExpiry","type":"uint256","internalType":"uint256"},{"name":"_puzzleSeed","type":"bytes32","internalType":"bytes32"},{"name":"_puzzleBPointer","type":"address","internalType":"address"}],"stateMutability":"payable"},{"type":"receive","stateMutability":"payable"},{"type":"function","name":"BINDING_ROWS","inputs":[],"outputs":[{"name":"","type":"uint256","internalType":"uint256"}],"stateMutability":"view"},{"type":"function","name":"COMMIT_DELAY","inputs":[],"outputs":[{"name":"","type":"uint256","internalType":"uint256"}],"stateMutability":"view"},{"type":"function","name":"LBLO_N","inputs":[],"outputs":[{"name":"","type":"uint256","internalType":"uint256"}],"stateMutability":"view"},{"type":"function","name":"M_WEAK","inputs":[],"outputs":[{"name":"","type":"uint256","internalType":"uint256"}],"stateMutability":"view"},{"type":"function","name":"N_WEAK","inputs":[],"outputs":[{"name":"","type":"uint256","internalType":"uint256"}],"stateMutability":"view"},{"type":"function","name":"PUZZLE_THRESHOLD_SQ","inputs":[],"outputs":[{"name":"","type":"uint256","internalType":"uint256"}],"stateMutability":"view"},{"type":"function","name":"Q","inputs":[],"outputs":[{"name":"","type":"uint256","internalType":"uint256"}],"stateMutability":"view"},{"type":"function","name":"Q_WEAK","inputs":[],"outputs":[{"name":"","type":"uint256","internalType":"uint256"}],"stateMutability":"view"},{"type":"function","name":"THRESHOLD","inputs":[],"outputs":[{"name":"","type":"uint256","internalType":"uint256"}],"stateMutability":"view"},{"type":"function","name":"check","inputs":[{"name":"","type":"bytes32","internalType":"bytes32"}],"outputs":[{"name":"","type":"bool","internalType":"bool"}],"stateMutability":"pure"},{"type":"function","name":"checkWithPuzzle","inputs":[{"name":"input","type":"bytes32","internalType":"bytes32"},{"name":"puzzleSolution","type":"int8[48]","internalType":"int8[48]"}],"outputs":[{"name":"","type":"bool","internalType":"bool"}],"stateMutability":"view"},{"type":"function","name":"circuitDataPointer","inputs":[],"outputs":[{"name":"","type":"address","internalType":"address"}],"stateMutability":"view"},{"type":"function","name":"circuitSeed","inputs":[],"outputs":[{"name":"","type":"bytes32","internalType":"bytes32"}],"stateMutability":"view"},{"type":"function","name":"commit","inputs":[{"name":"commitHash","type":"bytes32","internalType":"bytes32"}],"outputs":[],"stateMutability":"nonpayable"},{"type":"function","name":"commitDelay","inputs":[],"outputs":[{"name":"","type":"uint256","internalType":"uint256"}],"stateMutability":"pure"},{"type":"function","name":"deriveSecret384ArrayPublic","inputs":[{"name":"input","type":"bytes32","internalType":"bytes32"},{"name":"puzzleSolutionHash","type":"bytes32","internalType":"bytes32"}],"outputs":[{"name":"","type":"uint256[24]","internalType":"uint256[24]"}],"stateMutability":"pure"},{"type":"function","name":"encryptedGates","inputs":[],"outputs":[{"name":"","type":"uint256","internalType":"uint256"}],"stateMutability":"pure"},{"type":"function","name":"estimatedGas","inputs":[],"outputs":[{"name":"","type":"uint256","internalType":"uint256"}],"stateMutability":"pure"},{"type":"function","name":"evaluatePublic","inputs":[{"name":"input","type":"bytes32","internalType":"bytes32"},{"name":"puzzleSolutionHash","type":"bytes32","internalType":"bytes32"}],"outputs":[{"name":"valid","type":"bool","internalType":"bool"},{"name":"bindingOutput","type":"uint256[4]","internalType":"uint256[4]"}],"stateMutability":"view"},{"type":"function","name":"expectedBindingOutput0","inputs":[],"outputs":[{"name":"","type":"uint256","internalType":"uint256"}],"stateMutability":"view"},{"type":"function","name":"expectedBindingOutput1","inputs":[],"outputs":[{"name":"","type":"uint256","internalType":"uint256"}],"stateMutability":"view"},{"type":"function","name":"expectedBindingOutput2","inputs":[],"outputs":[{"name":"","type":"uint256","internalType":"uint256"}],"stateMutability":"view"},{"type":"function","name":"expectedBindingOutput3","inputs":[],"outputs":[{"name":"","type":"uint256","internalType":"uint256"}],"stateMutability":"view"},{"type":"function","name":"expectedOutputHash","inputs":[],"outputs":[{"name":"","type":"bytes32","internalType":"bytes32"}],"stateMutability":"view"},{"type":"function","name":"getCommit","inputs":[{"name":"committer","type":"address","internalType":"address"}],"outputs":[{"name":"","type":"bytes32","internalType":"bytes32"},{"name":"","type":"uint256","internalType":"uint256"}],"stateMutability":"view"},{"type":"function","name":"isExpired","inputs":[],"outputs":[{"name":"","type":"bool","internalType":"bool"}],"stateMutability":"view"},{"type":"function","name":"numGates","inputs":[],"outputs":[{"name":"","type":"uint32","internalType":"uint32"}],"stateMutability":"view"},{"type":"function","name":"numWires","inputs":[],"outputs":[{"name":"","type":"uint8","internalType":"uint8"}],"stateMutability":"view"},{"type":"function","name":"owner","inputs":[],"outputs":[{"name":"","type":"address","internalType":"address"}],"stateMutability":"view"},{"type":"function","name":"puzzleBPointer","inputs":[],"outputs":[{"name":"","type":"address","internalType":"address"}],"stateMutability":"view"},{"type":"function","name":"puzzleSeed","inputs":[],"outputs":[{"name":"","type":"bytes32","internalType":"bytes32"}],"stateMutability":"view"},{"type":"function","name":"reclaimExpired","inputs":[],"outputs":[],"stateMutability":"nonpayable"},{"type":"function","name":"reveal","inputs":[{"name":"","type":"bytes32","internalType":"bytes32"}],"outputs":[],"stateMutability":"pure"},{"type":"function","name":"revealWithPuzzle","inputs":[{"name":"input","type":"bytes32","internalType":"bytes32"},{"name":"puzzleSolution","type":"int8[48]","internalType":"int8[48]"}],"outputs":[],"stateMutability":"nonpayable"},{"type":"function","name":"reward","inputs":[],"outputs":[{"name":"","type":"uint256","internalType":"uint256"}],"stateMutability":"view"},{"type":"function","name":"scheme","inputs":[],"outputs":[{"name":"","type":"string","internalType":"string"}],"stateMutability":"pure"},{"type":"function","name":"secretExpiry","inputs":[],"outputs":[{"name":"","type":"uint256","internalType":"uint256"}],"stateMutability":"view"},{"type":"function","name":"testOnlyForceClaim","inputs":[{"name":"solver","type":"address","internalType":"address"}],"outputs":[],"stateMutability":"nonpayable"},{"type":"function","name":"timeRemaining","inputs":[],"outputs":[{"name":"","type":"uint256","internalType":"uint256"}],"stateMutability":"view"},{"type":"function","name":"verifyPuzzlePublic","inputs":[{"name":"solution","type":"int8[48]","internalType":"int8[48]"}],"outputs":[{"name":"valid","type":"bool","internalType":"bool"},{"name":"sHash","type":"bytes32","internalType":"bytes32"},{"name":"normSq","type":"uint256","internalType":"uint256"}],"stateMutability":"view"},{"type":"function","name":"wireBindingHashPublic","inputs":[{"name":"input","type":"uint256","internalType":"uint256"},{"name":"gateIdx","type":"uint256","internalType":"uint256"}],"outputs":[{"name":"","type":"uint256[4]","internalType":"uint256[4]"}],"stateMutability":"view"},{"type":"event","name":"Claimed","inputs":[{"name":"claimer","type":"address","indexed":true,"internalType":"address"},{"name":"commitHash","type":"bytes32","indexed":true,"internalType":"bytes32"},{"name":"reward","type":"uint256","indexed":false,"internalType":"uint256"}],"anonymous":false},{"type":"event","name":"Committed","inputs":[{"name":"committer","type":"address","indexed":true,"internalType":"address"},{"name":"commitHash","type":"bytes32","indexed":true,"internalType":"bytes32"},{"name":"blockNumber","type":"uint256","indexed":false,"internalType":"uint256"}],"anonymous":false},{"type":"event","name":"PuzzleSolved","inputs":[{"name":"solver","type":"address","indexed":true,"internalType":"address"},{"name":"solutionHash","type":"bytes32","indexed":true,"internalType":"bytes32"},{"name":"normSq","type":"uint256","indexed":false,"internalType":"uint256"}],"anonymous":false}],"bytecode":{"object":"0x61022060408190526120503881900390601f8201601f19168301906001600160401b038211848310176103d25782916040528339810190610180818303126103cd5761004a816103e8565b60208201519060ff8216938483036103cd5760408401519263ffffffff8416938481036103cd576060860151906080870151928460bf890112156103cd5760405194608086016001600160401b038111878210176103d257604052856101208a019182116103cd5760a08a01905b8282106103bd57505051966100d66101606101408b01519a016103e8565b9980151590816103b1575b50156103775715610340576001600160a01b038616156102fb576001600160a01b038916156102b657428711156102715760609560805260a05260c05260e0526101005280516101405260208101516101605260408101516101805201516101a052610120526101c0526101e052336102005234600055604051611c5390816103fd82396080518181816108dd015261157f015260a051818181610dd7015281816115510152818161193a0152611a74015260c051818181610bc301526115bd015260e051818181610337015261161401526101005181818161065a0152818161195d0152611a5201526101205181818161042c015281816104880152818161052a0152818161094b01528181610cef01526111cf01526101405181818161037201526116db015261016051818181610bff01526116b0015261018051818181610cb3015261168201526101a051818181610b83015261165801526101c051818181610695015261132a01526101e0518181816103ab01526112f50152610200518181816104f7015261087c0152f35b60405162461bcd60e51b815260206004820152601860248201527f457870697279206d75737420626520696e2066757475726500000000000000006044820152606490fd5b60405162461bcd60e51b815260206004820152601660248201527f496e76616c69642070757a7a6c6520706f696e746572000000000000000000006044820152606490fd5b60405162461bcd60e51b815260206004820152601760248201527f496e76616c6964206369726375697420706f696e7465720000000000000000006044820152606490fd5b60405162461bcd60e51b815260206004820152600f60248201526e4d757374206861766520676174657360881b6044820152606490fd5b60405162461bcd60e51b815260206004820152601260248201527115da5c995cc81b5d5cdd081899480c4b4d8d60721b6044820152606490fd5b604091501115386100e1565b81518152602091820191016100b8565b600080fd5b634e487b7160e01b600052604160045260246000fd5b51906001600160a01b03821682036103cd5756fe60806040526004361015610023575b361561001957600080fd5b610021611209565b005b60003560e01c806301a8ef73146102ae578063026c41af146102a95780630bd48e60146102a4578063103117c71461029f57806313cb74af1461029a5780631a69cad514610295578063228cb733146102905780632f13b60c1461028b578063342746aa14610286578063363c058c14610281578063399e07921461027c5780633fe8e80f1461027757806342f370bc14610272578063449a506c1461026d5780634bdbbf1c146102685780634d26bf29146102635780634fad71881461025e57806350857fb214610231578063701fd0f11461025957806371cc826c14610254578063785ffb371461024f5780638518b0ad1461024a5780638696b887146102455780638da5cb5b14610240578063933bd7c31461023b5780639e9d2938146102365780639ffedd1714610231578063aff358791461022c578063b5cd130f14610227578063c0e60c5814610222578063cdb27ded1461021d578063d1b92e4314610218578063d262512b14610213578063d9d09c2f1461020e578063e3cfef6014610209578063e493ef8c14610204578063e798fbd8146101ff578063ed2cc90f146101fa578063f14fcbc8146101f5578063f841bc1a146101f05763faaf4d9a0361000e57610dbd565b610d71565b610cd6565b610c9b565b610c7e565b610c61565b610c3e565b610c22565b610be7565b610ba6565b610b6b565b610b0c565b610aca565b61090c565b6106b8565b6108c7565b6108ab565b610866565b610819565b610791565b610773565b61072a565b6106d4565b61067d565b610642565b610625565b6105ef565b6104e4565b6104c7565b6104ab565b610470565b610452565b610414565b6103f6565b6103da565b610395565b61035a565b61031f565b610302565b6102c6565b90602491610624116102c157565b600080fd5b346102c1576106003660031901126102c15736610604116102c15760606102ed60046112e0565b90604051921515835260208301526040820152f35b346102c15760003660031901126102c157602060405161012c8152f35b346102c15760003660031901126102c15760206040517f00000000000000000000000000000000000000000000000000000000000000008152f35b346102c15760003660031901126102c15760206040517f00000000000000000000000000000000000000000000000000000000000000008152f35b346102c15760003660031901126102c1576040517f00000000000000000000000000000000000000000000000000000000000000006001600160a01b03168152602090f35b346102c15760003660031901126102c157602060405160408152f35b346102c15760003660031901126102c1576020600054604051908152f35b346102c15760003660031901126102c15760206040517f00000000000000000000000000000000000000000000000000000000000000004210158152f35b346102c15760003660031901126102c1576020604051628954408152f35b346102c15760003660031901126102c15760206040517f00000000000000000000000000000000000000000000000000000000000000008152f35b346102c15760203660031901126102c157602060405160008152f35b346102c15760003660031901126102c15760206040516102808152f35b346102c15760003660031901126102c1577f00000000000000000000000000000000000000000000000000000000000000006001600160a01b0316330361059b576105517f0000000000000000000000000000000000000000000000000000000000000000421015610dfb565b61056c61056761056360015460ff1690565b1590565b610e39565b61057d600160ff1981541617600155565b61002160008080808054818055335af1610595610ed0565b50610f10565b60405162461bcd60e51b815260206004820152600a60248201526927b7363c9037bbb732b960b11b6044820152606490fd5b60209060031901126102c1576004356001600160a01b03811681036102c15790565b346102c1576100216000808080610605366105cd565b61061160015415610e39565b600180558154908280555af1610595610ed0565b346102c15760003660031901126102c15760206040516107f78152f35b346102c15760003660031901126102c15760206040517f00000000000000000000000000000000000000000000000000000000000000008152f35b346102c15760003660031901126102c15760206040517f00000000000000000000000000000000000000000000000000000000000000008152f35b346102c15760003660031901126102c157602060405160028152f35b346102c15760203660031901126102c15760405162461bcd60e51b815260206004820152601c60248201527f5573652072657665616c5769746850757a7a6c6520696e7374656164000000006044820152606490fd5b346102c1576106203660031901126102c157602061075360043561074d366102b3565b90610f4e565b6040519015158152f35b634e487b7160e01b600052601160045260246000fd5b346102c15760003660031901126102c1576020613ffc604051908152f35b346102c15760003660031901126102c15760408051906107b18183610eae565b60118252701d1b1bdccb5b1dd94b5c1d5e9e9b19558d607a1b6020830152805180926020825280519081602084015260005b8281106108025750506000828201840152601f01601f19168101030190f35b6020828201810151878301870152869450016107e3565b346102c1576001600160a01b0361082f366105cd565b1660005260026020526040806000206020825161084b81610e8d565b60018354938483520154918291015282519182526020820152f35b346102c15760003660031901126102c1576040517f00000000000000000000000000000000000000000000000000000000000000006001600160a01b03168152602090f35b346102c15760003660031901126102c157602060405160308152f35b346102c15760003660031901126102c1576040517f00000000000000000000000000000000000000000000000000000000000000006001600160a01b03168152602090f35b346102c1576106203660031901126102c157600435610a2d610a276109f4610933366102b3565b9361094661056761056360015460ff1690565b6109717f00000000000000000000000000000000000000000000000000000000000000004210610f91565b3360009081526002602052604090206109eb9061098d90610f73565b956109b26109aa602089016109a481511515610fce565b5161100c565b43101561102d565b6109e660405160208101906109db816109cd86893387611077565b03601f198101835282610eae565b5190208851146110ca565b6112e0565b90938492611107565b60405190815233907f7f7dd62a04c0085603d36be920ab49a8ec4081253ed09f7793ddc02125bee2c090602090a361153c565b50611153565b610a3e600160ff1981541617600155565b336000908152600260205260408120818155600101556000549060008055610a70600080808086335af1610595610ed0565b516040519182529033907f9b01158d4bc10c112ba32b5240cda97e49e2eb86021f03f6a0f460342ac4dfda90602090a3005b906000905b60048210610ab457505050565b6020806001928551815201930191019091610aa7565b346102c15760403660031901126102c157600435610afd60243560809283604051610af58282610eae565b369037611a45565b610b0a6040518092610aa2565bf35b346102c15760403660031901126102c157600435610b406024356103009283604051610b388282610eae565b369037611b5e565b604051906000825b60188210610b5557505050f35b6020806001928551815201930191019091610b48565b346102c15760003660031901126102c15760206040517f00000000000000000000000000000000000000000000000000000000000000008152f35b346102c15760003660031901126102c157602060405163ffffffff7f0000000000000000000000000000000000000000000000000000000000000000168152f35b346102c15760003660031901126102c15760206040517f00000000000000000000000000000000000000000000000000000000000000008152f35b346102c15760003660031901126102c157602060405160488152f35b346102c15760003660031901126102c1576020610c596111cd565b604051908152f35b346102c15760003660031901126102c157602060405161fff18152f35b346102c15760003660031901126102c15760206040516101808152f35b346102c15760003660031901126102c15760206040517f00000000000000000000000000000000000000000000000000000000000000008152f35b346102c15760203660031901126102c157600435610d157f00000000000000000000000000000000000000000000000000000000000000004210610f91565b604051610d2181610e8d565b818152600160208201438152336000526002602052604060002092518355519101556040514381527f550e735193e8f8bf0398f14bcadbbbf0329d5401f6786981e63f5b010662b00e60203392a3005b346102c15760403660031901126102c15760a0610b0a610da8600435602435906080604051610da08282610eae565b36903761153c565b60409291925192151583526020830190610aa2565b346102c15760003660031901126102c157602060405160ff7f0000000000000000000000000000000000000000000000000000000000000000168152f35b15610e0257565b60405162461bcd60e51b815260206004820152600f60248201526e139bdd08195e1c1a5c9959081e595d608a1b6044820152606490fd5b15610e4057565b60405162461bcd60e51b815260206004820152600f60248201526e105b1c9958591e4818db185a5b5959608a1b6044820152606490fd5b634e487b7160e01b600052604160045260246000fd5b6040810190811067ffffffffffffffff821117610ea957604052565b610e77565b90601f8019910116810190811067ffffffffffffffff821117610ea957604052565b3d15610f0b573d9067ffffffffffffffff8211610ea95760405191610eff601f8201601f191660200184610eae565b82523d6000602084013e565b606090565b15610f1757565b60405162461bcd60e51b815260206004820152600f60248201526e151c985b9cd9995c8819985a5b1959608a1b6044820152606490fd5b90610f58906112e0565b509015610f6c57610f689161153c565b5090565b5050600090565b90604051610f8081610e8d565b602060018294805484520154910152565b15610f9857565b60405162461bcd60e51b815260206004820152600e60248201526d14d958dc995d08195e1c1a5c995960921b6044820152606490fd5b15610fd557565b60405162461bcd60e51b815260206004820152600f60248201526e139bc818dbdb5b5a5d08199bdd5b99608a1b6044820152606490fd5b906002820180921161101a57565b61075d565b906080820180921161101a57565b1561103457565b60405162461bcd60e51b815260206004820152601060248201526f52657665616c20746f6f206561726c7960801b6044820152606490fd5b8060000b036102c157565b6001600160a01b039091168152602081019190915261064081019291906000906040015b603082106110a857505050565b60208060019285356110b98161106c565b60000b81520193019101909161109b565b156110d157565b60405162461bcd60e51b815260206004820152600e60248201526d125b9d985b1a59081c995d99585b60921b6044820152606490fd5b1561110e57565b60405162461bcd60e51b815260206004820152601760248201527f496e76616c69642070757a7a6c6520736f6c7574696f6e0000000000000000006044820152606490fd5b1561115a57565b60405162461bcd60e51b8152602060048201526016602482015275125b9d985b1a590818da5c98dd5a5d081bdd5d1c1d5d60521b6044820152606490fd5b6040519060806111a88184610eae565b368337565b604051906103006111a88184610eae565b60001981019190821161101a57565b7f0000000000000000000000000000000000000000000000000000000000000000804210156112035742810390811161101a5790565b50600090565b60005434810180911161101a57600055565b634e487b7160e01b600052603260045260246000fd5b9060308110156112425760051b0190565b61121b565b356112518161106c565b90565b1561125b57565b60405162461bcd60e51b8152602060048201526013602482015272496e76616c69642070757a7a6c65206461746160681b6044820152606490fd5b908151811015611242570160200190565b906000825b603082106112be575050506106000190565b60208060019285356112cf8161106c565b60000b8152019301910190916112ac565b9060009060005b603081106114f057506113197f0000000000000000000000000000000000000000000000000000000000000000611bed565b90611328609083511015611254565b7f0000000000000000000000000000000000000000000000000000000000000000916000926000916103fb905b6048841061138d575050505061012c8210938461136f5750565b909250604051611387816109cd6020820194856112a7565b51902091565b9091929460405160208101906113b3816109cd8a89869091604092825260208201520190565b5190208287600092835b60038110611457575050916114289161141d6114096114036113f5600161141561140f6114096114036113f5859e9d861b809b611296565b516001600160f81b03191690565b60f81c90565b60ff1690565b60081b90565b95018a611296565b1790036107f7900790565b84811315611443576107f619015b8002019501929190611355565b84600003811215611436576107f701611436565b91509150604051602081019061147d816109cd8587869091604092825260208201520190565b5190206000905b6010821061149b575b5050600101849189916113bd565b90938c858460041b0160308110156114e857906114db6114d6600194936114d061ffff888c600f0360041b1c166107f7900790565b93611231565b611247565b60000b0201940190611484565b50509361148d565b6000196115006114d68387611231565b60000b128015611523575b611517576001016112e7565b50600092508291508190565b5060016115336114d68387611231565b60000b1361150b565b611544611198565b506115a9611577600160ff7f0000000000000000000000000000000000000000000000000000000000000000161b6111be565b8216926115a37f0000000000000000000000000000000000000000000000000000000000000000611bed565b92611b5e565b906115b38361192c565b9160009161bff4917f000000000000000000000000000000000000000000000000000000000000000063ffffffff1691613ffc5b83861061170257505050505050809160405161160f816109cd60208201948560209181520190565b5190207f00000000000000000000000000000000000000000000000000000000000000001490816116d7575b816116a9575b8161167b575b81611650575091565b6060019050517f00000000000000000000000000000000000000000000000000000000000000001491565b60408101517f0000000000000000000000000000000000000000000000000000000000000000149150611647565b60208101517f0000000000000000000000000000000000000000000000000000000000000000149150611641565b80517f000000000000000000000000000000000000000000000000000000000000000014915061163b565b9091929394956117118761101f565b90858211611924575b6020610c0b89028501016020610c0b84028601015b80821061177757505061176d91896117679261175f81516117508360200190565b51186040830151189160600190565b511818611a45565b9661101f565b94939291906115e7565b90998a5190610302603f8360f81c1692600183603f600282828660e81c161c841b169360f01c161c1617028c01600090815b601881106117ea575061fff180610c0b95949381610303600195015160f01c910690030106888d82109111168183851c1618831b921b1916179a019061172f565b916001908360051b60038185010151908d015161ffff811661ffff8316029261ffff8260101c1661ffff8460101c16029261ffff8360201c1661ffff8260201c16029261ffff8160301c1661ffff8360301c16029261ffff8260401c1661ffff8460401c16029261ffff8360501c1661ffff8260501c16029261ffff8160601c1661ffff8360601c16029261ffff8260701c1661ffff8460701c16029261ffff8360801c1661ffff8260801c16029261ffff8160901c1661ffff8360901c16029261ffff8260a01c1661ffff8460a01c16029261ffff8360b01c1661ffff8260b01c16029261ffff8160c01c1661ffff8360c01c16029261ffff8260d01c1661ffff8460d01c16029261ffff8360e01c1661ffff8260e01c16029260f01c9060f01c020101010101010101010101010101010192016117a9565b85915061171a565b90611935611198565b9160ff7f000000000000000000000000000000000000000000000000000000000000000016907f00000000000000000000000000000000000000000000000000000000000000009060005b6040811061198e5750505050565b604051838152602081016000815282604083015260608220906000928391845b8984106119e057505050505090600191601f1982841b1688019061ffff8251911660f08460041b161b17905201611980565b848352808252604083206000905b8b86106010831016611a045750506001016119ae565b909460018a821c16611a1e575b60018091019501906119ee565b9661fff161ffff838860041b1c1606019661fff18810611a115761fff01990970196611a11565b9190611a4f611198565b927f0000000000000000000000000000000000000000000000000000000000000000907f000000000000000000000000000000000000000000000000000000000000000060ff1660005b60408110611aa8575050505050565b6040518481526020810186815282604083015260608220906000928391845b878410611af957505050505090600191601f1982841b1689019061ffff8251911660f08460041b161b17905201611a99565b848352808252604083206000905b8986106010831016611b1d575050600101611ac7565b909460018b821c16611b37575b6001809101950190611b07565b9661fff161ffff838860041b1c1606019661fff18810611b2a5761fff01990970196611b2a565b9190916109cd611b8c611b6f6111ad565b946040519283916020830195869091604092825260208201520190565b51902060005b60188110611b9e575050565b8160005280602052604060002060009081905b60108210611bcb575050600582901b850152600101611b92565b909160019083600f0360041b61fff161ffff85831c1606901b17920190611bb1565b803b9060001982019082821161101a5760019060405193603e601f19910116840160405282845260208401903c9056fea264697066735822122009bc3c3d6f181ef5b12889d2e8b2059c79b80c59e5dddf4a0c1c719005362cc764736f6c634300081f0033","linkReferences":{}},"methodIdentifiers":{"BINDING_ROWS()":"1a69cad5","COMMIT_DELAY()":"50857fb2","LBLO_N()":"e798fbd8","M_WEAK()":"d9d09c2f","N_WEAK()":"933bd7c3","PUZZLE_THRESHOLD_SQ()":"026c41af","Q()":"e493ef8c","Q_WEAK()":"4bdbbf1c","THRESHOLD()":"785ffb37","check(bytes32)":"399e0792","checkWithPuzzle(bytes32,int8[48])":"71cc826c","circuitDataPointer()":"9e9d2938","circuitSeed()":"4d26bf29","commit(bytes32)":"f14fcbc8","commitDelay()":"9ffedd17","deriveSecret384ArrayPublic(bytes32,bytes32)":"c0e60c58","encryptedGates()":"3fe8e80f","estimatedGas()":"342746aa","evaluatePublic(bytes32,bytes32)":"f841bc1a","expectedBindingOutput0()":"103117c7","expectedBindingOutput1()":"d262512b","expectedBindingOutput2()":"ed2cc90f","expectedBindingOutput3()":"cdb27ded","expectedOutputHash()":"0bd48e60","getCommit(address)":"8696b887","isExpired()":"2f13b60c","numGates()":"d1b92e43","numWires()":"faaf4d9a","owner()":"8da5cb5b","puzzleBPointer()":"13cb74af","puzzleSeed()":"4fad7188","reclaimExpired()":"42f370bc","reveal(bytes32)":"701fd0f1","revealWithPuzzle(bytes32,int8[48])":"aff35879","reward()":"228cb733","scheme()":"8518b0ad","secretExpiry()":"363c058c","testOnlyForceClaim(address)":"449a506c","timeRemaining()":"e3cfef60","verifyPuzzlePublic(int8[48])":"01a8ef73","wireBindingHashPublic(uint256,uint256)":"b5cd130f"},"id":23}