{"abi":[{"type":"constructor","inputs":[{"name":"_phraseHash","type":"bytes32","internalType":"bytes32"}],"stateMutability":"nonpayable"},{"type":"receive","stateMutability":"payable"},{"type":"function","name":"M_WEAK","inputs":[],"outputs":[{"name":"","type":"uint256","internalType":"uint256"}],"stateMutability":"view"},{"type":"function","name":"N_WEAK","inputs":[],"outputs":[{"name":"","type":"uint256","internalType":"uint256"}],"stateMutability":"view"},{"type":"function","name":"PUZZLE_DOMAIN","inputs":[],"outputs":[{"name":"","type":"bytes32","internalType":"bytes32"}],"stateMutability":"view"},{"type":"function","name":"PUZZLE_THRESHOLD_SQ","inputs":[],"outputs":[{"name":"","type":"uint256","internalType":"uint256"}],"stateMutability":"view"},{"type":"function","name":"Q_WEAK","inputs":[],"outputs":[{"name":"","type":"uint256","internalType":"uint256"}],"stateMutability":"view"},{"type":"function","name":"checkRecovery","inputs":[{"name":"phrase","type":"bytes32","internalType":"bytes32"},{"name":"puzzleSolution","type":"int8[48]","internalType":"int8[48]"}],"outputs":[{"name":"","type":"bool","internalType":"bool"}],"stateMutability":"view"},{"type":"function","name":"getPlantedSecret","inputs":[{"name":"x","type":"bytes32","internalType":"bytes32"}],"outputs":[{"name":"secret","type":"int8[48]","internalType":"int8[48]"}],"stateMutability":"pure"},{"type":"function","name":"getPuzzleSeed","inputs":[{"name":"x","type":"bytes32","internalType":"bytes32"}],"outputs":[{"name":"","type":"bytes32","internalType":"bytes32"}],"stateMutability":"pure"},{"type":"function","name":"lastAttemptBlock","inputs":[],"outputs":[{"name":"","type":"uint256","internalType":"uint256"}],"stateMutability":"view"},{"type":"function","name":"owner","inputs":[],"outputs":[{"name":"","type":"address","internalType":"address"}],"stateMutability":"view"},{"type":"function","name":"phraseHash","inputs":[],"outputs":[{"name":"","type":"bytes32","internalType":"bytes32"}],"stateMutability":"view"},{"type":"function","name":"recover","inputs":[{"name":"phrase","type":"bytes32","internalType":"bytes32"},{"name":"puzzleSolution","type":"int8[48]","internalType":"int8[48]"}],"outputs":[],"stateMutability":"nonpayable"},{"type":"function","name":"updatePhraseHash","inputs":[{"name":"newPhraseHash","type":"bytes32","internalType":"bytes32"}],"outputs":[],"stateMutability":"nonpayable"},{"type":"event","name":"OwnershipTransferred","inputs":[{"name":"previousOwner","type":"address","indexed":true,"internalType":"address"},{"name":"newOwner","type":"address","indexed":true,"internalType":"address"}],"anonymous":false},{"type":"event","name":"RecoveryAttempted","inputs":[{"name":"attemptedBy","type":"address","indexed":true,"internalType":"address"},{"name":"success","type":"bool","indexed":false,"internalType":"bool"}],"anonymous":false}],"bytecode":{"object":"0x608034606057601f610a6d38819003918201601f19168301916001600160401b0383118484101760655780849260209460405283398101031260605751600080546001600160a01b031916331790556001556040516109f1908161007c8239f35b600080fd5b634e487b7160e01b600052604160045260246000fdfe608080604052600436101561001d575b50361561001b57600080fd5b005b60003560e01c908163026c41af14610592575080633bbc597c146105745780634bdbbf1c146105575780637b4b6f28146103c457806381465e021461037757806385eb2cc11461031b57806386ce902f146102f25780638da5cb5b146102c9578063933bd7c3146102ad578063941fe4061461028a5780639a6218f5146100f8578063b02ebbf2146100da5763d9d09c2f146100b9573861000f565b346100d55760003660031901126100d557602060405160488152f35b600080fd5b346100d55760003660031901126100d5576020600154604051908152f35b346100d55760203660031901126100d55761060060405161011982826105cc565b81368237604051602081019060008051602061099c833981519152825260043560408201526040815261014d6060826105cc565b519020604051602081019182526d1c1b185b9d19590b5cd958dc995d60921b6040820152602e8152610180604e826105cc565b51902060005b600381106101be575050604051906000825b603082106101a557505050f35b602080600192855160000b815201930191019091610198565b6040516020810190838252826040820152604081526101de6060826105cc565b51902060005b601081106101f7575b5050600101610186565b8260041b908382046010148415171561026e5780820180921161026e5760308210156102845780600f03600f811161026e578060041b90810460101482600f14171561026e5761ffff846003921c160691600019830192831360011661026e5761026760019360000b918861063e565b52016101e4565b634e487b7160e01b600052601160045260246000fd5b506101ed565b346100d55760206102a361029d366105ad565b90610604565b6040519015158152f35b346100d55760003660031901126100d557602060405160308152f35b346100d55760003660031901126100d5576000546040516001600160a01b039091168152602090f35b346100d55760003660031901126100d557602060405160008051602061099c8339815191528152f35b346100d55760203660031901126100d5576000546001600160a01b0316330361034657600435600155005b60405162461bcd60e51b81526020600482015260096024820152682737ba1037bbb732b960b91b6044820152606490fd5b346100d55760203660031901126100d55760206040518181019060008051602061099c83398151915282526004356040820152604081526103b96060826105cc565b519020604051908152f35b346100d5576103d2366105ad565b60025443111561050857436002556040516020810190838252602081526103fa6040826105cc565b519020600154036104d25761040e91610665565b501561048d57600054336bffffffffffffffffffffffff60a01b821617600055604051600181527fd54f05053e2d61a352be74670d3d5a70840bf29380c9425bfed5da54e4fe563d60203392a233906001600160a01b03167f8be0079c531659141344cd1fd0a4f28419497f9722a3daafe3b4186f6b6457e0600080a3005b60405162461bcd60e51b815260206004820152601760248201527f496e76616c69642070757a7a6c6520736f6c7574696f6e0000000000000000006044820152606490fd5b60405162461bcd60e51b815260206004820152600e60248201526d496e76616c69642070687261736560901b6044820152606490fd5b60405162461bcd60e51b815260206004820152602160248201527f52617465206c696d697465643a203120617474656d70742070657220626c6f636044820152606b60f81b6064820152608490fd5b346100d55760003660031901126100d55760206040516107f78152f35b346100d55760003660031901126100d5576020600254604051908152f35b346100d55760003660031901126100d5578061012c60209252f35b906106206003198301126100d55760043591610624116100d557602490565b90601f8019910116810190811067ffffffffffffffff8211176105ee57604052565b634e487b7160e01b600052604160045260246000fd5b9060405160208101908382526020815261061f6040826105cc565b519020600154036106375761063391610665565b5090565b5050600090565b90603081101561064f5760051b0190565b634e487b7160e01b600052603260045260246000fd5b909160009160005b603081106109445750604051602081019160008051602061099c83398151915283526040820152604081526106a36060826105cc565b51902092610600936040516106b886826105cc565b8536823760405160208101908382526d1c1b185b9d19590b5cd958dc995d60921b6040820152602e81526106ed604e826105cc565b51902060005b600381106108cb5750506000906000925b6048841061077157505061012c915010938461071e575050565b604051929350602083019291600090845b6030831061074e575050508152610748610620826105cc565b51902090565b8135908160000b8092036100d5576020816001938293520192019201919061072f565b90916040516020810190838252856040820152604081526107936060826105cc565b5190206000908190825b60038110610830575050600192916107f78092604051906005602083018981526432b93937b960d91b60408501528b6045850152604584526107e06065856105cc565b881993519020060101079060008212610827575b03076103fb811315610813576107f619015b8002019301929190610704565b6103fa19811215610806576107f701610806565b908201906107f4565b6040516020810190838252826040820152604081526108506060826105cc565b5190206000905b6010821061086a575b505060010161079d565b909394848360041b019560308710156108c3578b610899886107f761ffff878b600f0360041b1c16079261063e565b358060000b8091036100d5576001936108b691830201988c61063e565b51830b0201940190610857565b945094610860565b6040516020810190838252826040820152604081526108eb6060826105cc565b51902060005b60108110610904575b50506001016106f3565b808360041b01603081101561093e5790600191610937600019600361ffff8786600f0360041b1c160601840b918861063e565b52016108f1565b506108fa565b61094e818661063e565b358060000b8091036100d55760001913801561097c575b6109715760010161066d565b506000935083925050565b50610987818661063e565b358060000b8091036100d55760011261096556fe63fa20280546824e71b86edfaf14e77c493c05e830f4486c556c6c258de4a566a264697066735822122061d8cef37ff1aff74c44fc5de5ef8cf690e752e4794540b1b1952e8b6a153fff64736f6c634300081f0033","linkReferences":{}},"methodIdentifiers":{"M_WEAK()":"d9d09c2f","N_WEAK()":"933bd7c3","PUZZLE_DOMAIN()":"86ce902f","PUZZLE_THRESHOLD_SQ()":"026c41af","Q_WEAK()":"4bdbbf1c","checkRecovery(bytes32,int8[48])":"941fe406","getPlantedSecret(bytes32)":"9a6218f5","getPuzzleSeed(bytes32)":"81465e02","lastAttemptBlock()":"3bbc597c","owner()":"8da5cb5b","phraseHash()":"b02ebbf2","recover(bytes32,int8[48])":"7b4b6f28","updatePhraseHash(bytes32)":"85eb2cc1"},"id":15}