{"abi":[{"type":"constructor","inputs":[{"name":"_secretHash","type":"bytes32","internalType":"bytes32"},{"name":"_expiry","type":"uint256","internalType":"uint256"}],"stateMutability":"payable"},{"type":"receive","stateMutability":"payable"},{"type":"function","name":"COMMIT_DELAY","inputs":[],"outputs":[{"name":"","type":"uint256","internalType":"uint256"}],"stateMutability":"view"},{"type":"function","name":"M_WEAK","inputs":[],"outputs":[{"name":"","type":"uint256","internalType":"uint256"}],"stateMutability":"view"},{"type":"function","name":"N_WEAK","inputs":[],"outputs":[{"name":"","type":"uint256","internalType":"uint256"}],"stateMutability":"view"},{"type":"function","name":"PUZZLE_DOMAIN","inputs":[],"outputs":[{"name":"","type":"bytes32","internalType":"bytes32"}],"stateMutability":"view"},{"type":"function","name":"PUZZLE_THRESHOLD_SQ","inputs":[],"outputs":[{"name":"","type":"uint256","internalType":"uint256"}],"stateMutability":"view"},{"type":"function","name":"Q_WEAK","inputs":[],"outputs":[{"name":"","type":"uint256","internalType":"uint256"}],"stateMutability":"view"},{"type":"function","name":"claimed","inputs":[],"outputs":[{"name":"","type":"bool","internalType":"bool"}],"stateMutability":"view"},{"type":"function","name":"commit","inputs":[{"name":"commitHash","type":"bytes32","internalType":"bytes32"}],"outputs":[],"stateMutability":"nonpayable"},{"type":"function","name":"expiry","inputs":[],"outputs":[{"name":"","type":"uint256","internalType":"uint256"}],"stateMutability":"view"},{"type":"function","name":"getCommit","inputs":[{"name":"solver","type":"address","internalType":"address"}],"outputs":[{"name":"hash","type":"bytes32","internalType":"bytes32"},{"name":"blockNum","type":"uint256","internalType":"uint256"}],"stateMutability":"view"},{"type":"function","name":"getPlantedSecret","inputs":[{"name":"x","type":"bytes32","internalType":"bytes32"}],"outputs":[{"name":"secret","type":"int8[48]","internalType":"int8[48]"}],"stateMutability":"pure"},{"type":"function","name":"getPuzzleSeed","inputs":[{"name":"x","type":"bytes32","internalType":"bytes32"}],"outputs":[{"name":"","type":"bytes32","internalType":"bytes32"}],"stateMutability":"pure"},{"type":"function","name":"isExpired","inputs":[],"outputs":[{"name":"","type":"bool","internalType":"bool"}],"stateMutability":"view"},{"type":"function","name":"owner","inputs":[],"outputs":[{"name":"","type":"address","internalType":"address"}],"stateMutability":"view"},{"type":"function","name":"reclaimExpired","inputs":[],"outputs":[],"stateMutability":"nonpayable"},{"type":"function","name":"reveal","inputs":[{"name":"secret","type":"bytes32","internalType":"bytes32"},{"name":"puzzleSolution","type":"int8[48]","internalType":"int8[48]"}],"outputs":[],"stateMutability":"nonpayable"},{"type":"function","name":"reward","inputs":[],"outputs":[{"name":"","type":"uint256","internalType":"uint256"}],"stateMutability":"view"},{"type":"function","name":"secretHash","inputs":[],"outputs":[{"name":"","type":"bytes32","internalType":"bytes32"}],"stateMutability":"view"},{"type":"function","name":"timeRemaining","inputs":[],"outputs":[{"name":"","type":"uint256","internalType":"uint256"}],"stateMutability":"view"},{"type":"event","name":"Claimed","inputs":[{"name":"solver","type":"address","indexed":true,"internalType":"address"},{"name":"reward","type":"uint256","indexed":false,"internalType":"uint256"}],"anonymous":false},{"type":"event","name":"Committed","inputs":[{"name":"solver","type":"address","indexed":true,"internalType":"address"},{"name":"commitHash","type":"bytes32","indexed":false,"internalType":"bytes32"},{"name":"blockNumber","type":"uint256","indexed":false,"internalType":"uint256"}],"anonymous":false},{"type":"event","name":"Expired","inputs":[{"name":"owner","type":"address","indexed":true,"internalType":"address"},{"name":"recovered","type":"uint256","indexed":false,"internalType":"uint256"}],"anonymous":false}],"bytecode":{"object":"0x60e0601f61112438819003918201601f19168301916001600160401b03831184841017610146578084926040948552833981010312610141576020815191015190428211156100fc5734156100b75760805260a0523360c05234600055604051610fc7908161015d823960805181818161027401526103a1015260a0518181816101320152818161021d015281816102cb015281816108c8015281816109ce0152610bae015260c05181818161074901526108960152f35b60405162461bcd60e51b815260206004820152601360248201527f4d757374206465706f73697420726577617264000000000000000000000000006044820152606490fd5b60405162461bcd60e51b815260206004820152601860248201527f457870697279206d75737420626520696e2066757475726500000000000000006044820152606490fd5b600080fd5b634e487b7160e01b600052604160045260246000fdfe608080604052600436101561002c575b50361561001b57600080fd5b61002734600054610b3d565b600055005b60003560e01c908163026c41af14610a1257508063228cb733146109f45780632f13b60c146109b657806342f370bc146108835780634bdbbf1c1461086657806350857fb21461084a57806381465e02146107fd5780638696b887146107a157806386ce902f146107785780638da5cb5b14610733578063933bd7c3146107175780639a6218f51461059b5780639fedcca514610297578063d29e68031461025c578063d9d09c2f14610240578063e184c9be14610205578063e3cfef60146101e2578063e834a834146101bf5763f14fcbc81461010a573861000f565b346101ba5760203660031901126101ba5760043561012d60ff6001541615610a2d565b6101587f00000000000000000000000000000000000000000000000000000000000000004210610b71565b60405161016481610a6b565b818152600160208201438152336000526002602052604060002092518355519101556040519081524360208201527f550e735193e8f8bf0398f14bcadbbbf0329d5401f6786981e63f5b010662b00e60403392a2005b600080fd5b346101ba5760003660031901126101ba57602060ff600154166040519015158152f35b346101ba5760003660031901126101ba5760206101fd610bac565b604051908152f35b346101ba5760003660031901126101ba5760206040517f00000000000000000000000000000000000000000000000000000000000000008152f35b346101ba5760003660031901126101ba57602060405160488152f35b346101ba5760003660031901126101ba5760206040517f00000000000000000000000000000000000000000000000000000000000000008152f35b346101ba576106203660031901126101ba5760043536610624116101ba57600154906102c660ff831615610a2d565b6102f17f00000000000000000000000000000000000000000000000000000000000000004210610b71565b336000526002602052604060002060016040519161030e83610a6b565b80548352015460208201908082521561056457516002810180911161054e5743106105165760405160208101903382528360408201526060810160246000915b603083106104f357505050610640815261036a61066082610a9d565b5190209051036104ae5761037d81610be8565b501561046957604051602081019182526020815261039c604082610a9d565b5190207f0000000000000000000000000000000000000000000000000000000000000000036104355760019060ff1916176001553360005260026020526000600160408220828155015560005460008055610407600080808085335af1610401610abf565b50610aff565b6040519081527fd8138f8a3f377c5259ca548e70e4c2de94f129f5a11036a15b69513cba2b426a60203392a2005b60405162461bcd60e51b815260206004820152600c60248201526b15dc9bdb99c81cd958dc995d60a21b6044820152606490fd5b60405162461bcd60e51b815260206004820152601760248201527f496e76616c69642070757a7a6c6520736f6c7574696f6e0000000000000000006044820152606490fd5b60405162461bcd60e51b815260206004820152601e60248201527f496e76616c69642072657665616c202d2068617368206d69736d6174636800006044820152606490fd5b8135908160000b8092036101ba576020816001938293520192019201919061034e565b60405162461bcd60e51b815260206004820152601060248201526f52657665616c20746f6f206561726c7960801b6044820152606490fd5b634e487b7160e01b600052601160045260246000fd5b60405162461bcd60e51b815260206004820152600f60248201526e139bc818dbdb5b5a5d08199bdd5b99608a1b6044820152606490fd5b346101ba5760203660031901126101ba576106006040516105bc8282610a9d565b813682376040516020810190600080516020610f7283398151915282526004356040820152604081526105f0606082610a9d565b519020604051602081019182526d1c1b185b9d19590b5cd958dc995d60921b6040820152602e8152610623604e82610a9d565b51902060005b60038110610661575050604051906000825b6030821061064857505050f35b602080600192855160000b81520193019101909161063b565b604051602081019083825282604082015260408152610681606082610a9d565b51902060005b6010811061069a575b5050600101610629565b8260041b8381046010148415171561054e57816106b691610b3d565b9060308210156107115780600f03600f811161054e578060041b90810460101482600f14171561054e5761ffff846003921c160691600019830192831360011661054e5761070a60019360000b9188610b4a565b5201610687565b50610690565b346101ba5760003660031901126101ba57602060405160308152f35b346101ba5760003660031901126101ba576040517f00000000000000000000000000000000000000000000000000000000000000006001600160a01b03168152602090f35b346101ba5760003660031901126101ba576020604051600080516020610f728339815191528152f35b346101ba5760203660031901126101ba576004356001600160a01b038116908190036101ba576000526002602052604080600020602082516107e281610a6b565b60018354938483520154918291015282519182526020820152f35b346101ba5760203660031901126101ba57602060405181810190600080516020610f72833981519152825260043560408201526040815261083f606082610a9d565b519020604051908152f35b346101ba5760003660031901126101ba57602060405160028152f35b346101ba5760003660031901126101ba5760206040516107f78152f35b346101ba5760003660031901126101ba577f00000000000000000000000000000000000000000000000000000000000000006001600160a01b031633819003610984577f0000000000000000000000000000000000000000000000000000000000000000421061094d57600180546108fe60ff821615610a2d565b60ff1916176001557f751a0eb66c3cc9aa48957d09bd3cc81db888f5bcac6689def5fb9e18ec3cf201602060005460008055610944600080808085335af1610401610abf565b604051908152a2005b60405162461bcd60e51b815260206004820152600f60248201526e139bdd08195e1c1a5c9959081e595d608a1b6044820152606490fd5b60405162461bcd60e51b815260206004820152600a60248201526927b7363c9037bbb732b960b11b6044820152606490fd5b346101ba5760003660031901126101ba5760206040517f00000000000000000000000000000000000000000000000000000000000000004210158152f35b346101ba5760003660031901126101ba576020600054604051908152f35b346101ba5760003660031901126101ba578061012c60209252f35b15610a3457565b60405162461bcd60e51b815260206004820152600f60248201526e105b1c9958591e4818db185a5b5959608a1b6044820152606490fd5b6040810190811067ffffffffffffffff821117610a8757604052565b634e487b7160e01b600052604160045260246000fd5b90601f8019910116810190811067ffffffffffffffff821117610a8757604052565b3d15610afa573d9067ffffffffffffffff8211610a875760405191610aee601f8201601f191660200184610a9d565b82523d6000602084013e565b606090565b15610b0657565b60405162461bcd60e51b815260206004820152600f60248201526e151c985b9cd9995c8819985a5b1959608a1b6044820152606490fd5b9190820180921161054e57565b906030811015610b5b5760051b0190565b634e487b7160e01b600052603260045260246000fd5b15610b7857565b60405162461bcd60e51b815260206004820152600c60248201526b121d5b9d08195e1c1a5c995960a21b6044820152606490fd5b7f000000000000000000000000000000000000000000000000000000000000000080421015610be25742810390811161054e5790565b50600090565b602491600091825b60308110610ee157506040516020810191600080516020610f728339815191528352604082015260408152610c26606082610a9d565b5190209261060093604051610c3b8682610a9d565b8536823760405160208101908382526d1c1b185b9d19590b5cd958dc995d60921b6040820152602e8152610c70604e82610a9d565b51902060005b60038110610e685750506000906000925b60488410610cf457505061012c9150109384610ca1575050565b604051929350602083019291600090845b60308310610cd1575050508152610ccb61062082610a9d565b51902090565b8135908160000b8092036101ba5760208160019382935201920192019190610cb2565b9091604051602081019083825285604082015260408152610d16606082610a9d565b5190206000908190825b60038110610db3575050600192916107f78092604051906005602083018981526432b93937b960d91b60408501528b604585015260458452610d63606585610a9d565b881993519020060101079060008212610daa575b03076103fb811315610d96576107f619015b8002019301929190610c87565b6103fa19811215610d89576107f701610d89565b90820190610d77565b604051602081019083825282604082015260408152610dd3606082610a9d565b5190206000905b60108210610ded575b5050600101610d20565b909394848360041b01956030871015610e60576107f761ffff8488600f0360041b1c160760006030891015610e4d57508760051b8d01358060000b8091036101ba57600193610e4091830201988c610b4a565b51830b0201940190610dda565b634e487b7160e01b815260326004528d90fd5b945094610de3565b604051602081019083825282604082015260408152610e88606082610a9d565b51902060005b60108110610ea1575b5050600101610c76565b808360041b016030811015610edb5790600191610ed4600019600361ffff8786600f0360041b1c160601840b9188610b4a565b5201610e8e565b50610e97565b60006030821015610f5e57508060051b850180358060000b908181036101ba576000198212928315610f28575b505050610f1d57600101610bf0565b506000935083925050565b9091925060006030851015610f4b5750508190036101ba57600112388080610f0e565b634e487b7160e01b815260326004528890fd5b634e487b7160e01b815260326004528590fdfe63fa20280546824e71b86edfaf14e77c493c05e830f4486c556c6c258de4a566a2646970667358221220921e11854c5e9434ca06b31a7fbef2d9390f0bf306abd3d843c93a781bc07cd164736f6c634300081f0033","linkReferences":{}},"methodIdentifiers":{"COMMIT_DELAY()":"50857fb2","M_WEAK()":"d9d09c2f","N_WEAK()":"933bd7c3","PUZZLE_DOMAIN()":"86ce902f","PUZZLE_THRESHOLD_SQ()":"026c41af","Q_WEAK()":"4bdbbf1c","claimed()":"e834a834","commit(bytes32)":"f14fcbc8","expiry()":"e184c9be","getCommit(address)":"8696b887","getPlantedSecret(bytes32)":"9a6218f5","getPuzzleSeed(bytes32)":"81465e02","isExpired()":"2f13b60c","owner()":"8da5cb5b","reclaimExpired()":"42f370bc","reveal(bytes32,int8[48])":"9fedcca5","reward()":"228cb733","secretHash()":"d29e6803","timeRemaining()":"e3cfef60"},"id":3}