{"abi":[{"type":"function","name":"M_WEAK","inputs":[],"outputs":[{"name":"","type":"uint256","internalType":"uint256"}],"stateMutability":"view"},{"type":"function","name":"N_WEAK","inputs":[],"outputs":[{"name":"","type":"uint256","internalType":"uint256"}],"stateMutability":"view"},{"type":"function","name":"PUZZLE_DOMAIN","inputs":[],"outputs":[{"name":"","type":"bytes32","internalType":"bytes32"}],"stateMutability":"view"},{"type":"function","name":"Q_WEAK","inputs":[],"outputs":[{"name":"","type":"uint256","internalType":"uint256"}],"stateMutability":"view"},{"type":"function","name":"THRESHOLD_SQ","inputs":[],"outputs":[{"name":"","type":"uint256","internalType":"uint256"}],"stateMutability":"view"},{"type":"function","name":"getPlantedSecret","inputs":[{"name":"x","type":"bytes32","internalType":"bytes32"}],"outputs":[{"name":"","type":"int8[24]","internalType":"int8[24]"}],"stateMutability":"pure"},{"type":"function","name":"getPuzzleSeed","inputs":[{"name":"x","type":"bytes32","internalType":"bytes32"}],"outputs":[{"name":"","type":"bytes32","internalType":"bytes32"}],"stateMutability":"pure"},{"type":"function","name":"verifyPuzzle","inputs":[{"name":"x","type":"bytes32","internalType":"bytes32"},{"name":"solution","type":"int8[24]","internalType":"int8[24]"}],"outputs":[{"name":"valid","type":"bool","internalType":"bool"},{"name":"sHash","type":"bytes32","internalType":"bytes32"}],"stateMutability":"pure"}],"bytecode":{"object":"0x60808060405234601557610786908161001b8239f35b600080fdfe608080604052600436101561001357600080fd5b60003560e01c9081634bdbbf1c1461032057508063520d8b80146102ea57806370ad866a146102ce57806381465e021461028157806386ce902f14610258578063933bd7c31461023c5780639a6218f5146100985763d9d09c2f1461007757600080fd5b3461009357600036600319011261009357602060405160248152f35b600080fd5b3461009357602036600319011261009357610300806040516100ba8282610362565b369037604051602081019060008051602061073183398151915282526004356040820152604081526100ed606082610362565b519020604051906100fe8383610362565b82368337604051602081019182526d1c1b185b9d19590b5cd958dc995d60921b6040820152602e8152610132604e82610362565b51902060005b60028110610170575050604051906000825b6018821061015757505050f35b602080600192855160000b81520193019101909161014a565b604051602081019083825282604082015260408152610190606082610362565b51902060005b601081106101a9575b5050600101610138565b8260041b9083820460101484151715610220578082018092116102205760188210156102365780600f03600f8111610220578060041b90810460101482600f1417156102205761ffff846003921c16069160001983019283136001166102205761021960019360000b918861033b565b5201610196565b634e487b7160e01b600052601160045260246000fd5b5061019f565b3461009357600036600319011261009357602060405160188152f35b346100935760003660031901126100935760206040516000805160206107318339815191528152f35b346100935760203660031901126100935760206040518181019060008051602061073183398151915282526004356040820152604081526102c3606082610362565b519020604051908152f35b3461009357600036600319011261009357602060405160968152f35b34610093576103203660031901126100935736610324116100935760406103126004356103ab565b825191151582526020820152f35b3461009357600036600319011261009357806107f760209252f35b90601881101561034c5760051b0190565b634e487b7160e01b600052603260045260246000fd5b90601f8019910116810190811067ffffffffffffffff82111761038457604052565b634e487b7160e01b600052604160045260246000fd5b90602081101561034c5760051b0190565b602491600091825b601881106106a05750604051602081019160008051602061073183398151915283526040820152604081526103e9606082610362565b5190206040516104006103fc8183610362565b36823760405160208101908382526d1c1b185b9d19590b5cd958dc995d60921b6040820152602e8152610430604e82610362565b51902060005b600281106106275750506000906000925b8684106104b45750506096915010928361045e5750565b909150604051602081019182906000915b6018831061049157505050610300815261048b61032082610362565b51902090565b8135908160000b809203610093576020816001938293520192019201919061046f565b90916040516020810190838252856040820152604081526104d6606082610362565b5190206000908190825b60028110610573575050600192916107f78092604051906005602083018981526432b93937b960d91b60408501528b604585015260458452610523606585610362565b88199351902006010107906000821261056a575b03076103fb811315610556576107f619015b8002019301929190610447565b6103fa19811215610549576107f701610549565b90820190610537565b604051602081019083825282604082015260408152610593606082610362565b5190206000905b601082106105ad575b50506001016104e0565b909394848360041b0195601887101561061f578d6107f761ffff8589600f0360041b1c160790600060188a101561060e57508860051b01358060000b8091036100935760019361060191830201988c61039a565b51830b020194019061059a565b634e487b7160e01b81526032600452fd5b9450946105a3565b604051602081019083825282604082015260408152610647606082610362565b51902060005b60108110610660575b5050600101610436565b808360041b01601881101561069a5790600191610693600019600361ffff8786600f0360041b1c160601840b918861039a565b520161064d565b50610656565b6000601882101561071d57508060051b850180358060000b908181036100935760001982129283156106e7575b5050506106dc576001016103b3565b506000935083925050565b909192506000601885101561070a575050819003610093576001123880806106cd565b634e487b7160e01b815260326004528890fd5b634e487b7160e01b815260326004528590fdfe72511e9e02ca379ab6e7c316f959baed81dbd8bcdfc9a2d4149800543c04b496a2646970667358221220d1c8a6648cb60957fe50a2608b52ccd33d98dfc5ae14ec54ded8ac13cdf1e50364736f6c634300081f0033","linkReferences":{}},"methodIdentifiers":{"M_WEAK()":"d9d09c2f","N_WEAK()":"933bd7c3","PUZZLE_DOMAIN()":"86ce902f","Q_WEAK()":"4bdbbf1c","THRESHOLD_SQ()":"70ad866a","getPlantedSecret(bytes32)":"9a6218f5","getPuzzleSeed(bytes32)":"81465e02","verifyPuzzle(bytes32,int8[24])":"520d8b80"},"id":10}