{"abi":[{"type":"constructor","inputs":[{"name":"_heartbeatInterval","type":"uint256","internalType":"uint256"},{"name":"_heirCodeHashes","type":"bytes32[]","internalType":"bytes32[]"},{"name":"_heirSharesBPS","type":"uint16[]","internalType":"uint16[]"}],"stateMutability":"payable"},{"type":"receive","stateMutability":"payable"},{"type":"function","name":"BPS_DENOMINATOR","inputs":[],"outputs":[{"name":"","type":"uint256","internalType":"uint256"}],"stateMutability":"view"},{"type":"function","name":"COMMIT_DELAY","inputs":[],"outputs":[{"name":"","type":"uint256","internalType":"uint256"}],"stateMutability":"view"},{"type":"function","name":"MAX_HEARTBEAT","inputs":[],"outputs":[{"name":"","type":"uint256","internalType":"uint256"}],"stateMutability":"view"},{"type":"function","name":"MIN_HEARTBEAT","inputs":[],"outputs":[{"name":"","type":"uint256","internalType":"uint256"}],"stateMutability":"view"},{"type":"function","name":"M_WEAK","inputs":[],"outputs":[{"name":"","type":"uint256","internalType":"uint256"}],"stateMutability":"view"},{"type":"function","name":"N_WEAK","inputs":[],"outputs":[{"name":"","type":"uint256","internalType":"uint256"}],"stateMutability":"view"},{"type":"function","name":"PUZZLE_DOMAIN","inputs":[],"outputs":[{"name":"","type":"bytes32","internalType":"bytes32"}],"stateMutability":"view"},{"type":"function","name":"PUZZLE_THRESHOLD_SQ","inputs":[],"outputs":[{"name":"","type":"uint256","internalType":"uint256"}],"stateMutability":"view"},{"type":"function","name":"Q_WEAK","inputs":[],"outputs":[{"name":"","type":"uint256","internalType":"uint256"}],"stateMutability":"view"},{"type":"function","name":"addHeir","inputs":[{"name":"codeHash","type":"bytes32","internalType":"bytes32"},{"name":"shareBPS","type":"uint16","internalType":"uint16"}],"outputs":[],"stateMutability":"nonpayable"},{"type":"function","name":"balanceAtDeath","inputs":[],"outputs":[{"name":"","type":"uint256","internalType":"uint256"}],"stateMutability":"view"},{"type":"function","name":"claim","inputs":[{"name":"heirIndex","type":"uint256","internalType":"uint256"},{"name":"code","type":"bytes32","internalType":"bytes32"},{"name":"puzzleSolution","type":"int8[48]","internalType":"int8[48]"}],"outputs":[],"stateMutability":"nonpayable"},{"type":"function","name":"commit","inputs":[{"name":"commitHash","type":"bytes32","internalType":"bytes32"}],"outputs":[],"stateMutability":"nonpayable"},{"type":"function","name":"createdAt","inputs":[],"outputs":[{"name":"","type":"uint256","internalType":"uint256"}],"stateMutability":"view"},{"type":"function","name":"deadline","inputs":[],"outputs":[{"name":"","type":"uint256","internalType":"uint256"}],"stateMutability":"view"},{"type":"function","name":"deathSnapshotTaken","inputs":[],"outputs":[{"name":"","type":"bool","internalType":"bool"}],"stateMutability":"view"},{"type":"function","name":"emergencyWithdraw","inputs":[{"name":"amount","type":"uint256","internalType":"uint256"}],"outputs":[],"stateMutability":"nonpayable"},{"type":"function","name":"getCommit","inputs":[{"name":"claimer","type":"address","internalType":"address"}],"outputs":[{"name":"hash","type":"bytes32","internalType":"bytes32"},{"name":"blockNum","type":"uint256","internalType":"uint256"}],"stateMutability":"view"},{"type":"function","name":"getHeirInfo","inputs":[{"name":"heirIndex","type":"uint256","internalType":"uint256"}],"outputs":[{"name":"codeHash","type":"bytes32","internalType":"bytes32"},{"name":"shareBPS","type":"uint16","internalType":"uint16"},{"name":"claimed","type":"bool","internalType":"bool"}],"stateMutability":"view"},{"type":"function","name":"getPlantedSecret","inputs":[{"name":"x","type":"bytes32","internalType":"bytes32"}],"outputs":[{"name":"secret","type":"int8[48]","internalType":"int8[48]"}],"stateMutability":"pure"},{"type":"function","name":"getPuzzleSeed","inputs":[{"name":"x","type":"bytes32","internalType":"bytes32"}],"outputs":[{"name":"","type":"bytes32","internalType":"bytes32"}],"stateMutability":"pure"},{"type":"function","name":"heartbeatInterval","inputs":[],"outputs":[{"name":"","type":"uint256","internalType":"uint256"}],"stateMutability":"view"},{"type":"function","name":"heirCount","inputs":[],"outputs":[{"name":"","type":"uint256","internalType":"uint256"}],"stateMutability":"view"},{"type":"function","name":"isOwnerAlive","inputs":[],"outputs":[{"name":"","type":"bool","internalType":"bool"}],"stateMutability":"view"},{"type":"function","name":"lastPing","inputs":[],"outputs":[{"name":"","type":"uint256","internalType":"uint256"}],"stateMutability":"view"},{"type":"function","name":"owner","inputs":[],"outputs":[{"name":"","type":"address","internalType":"address"}],"stateMutability":"view"},{"type":"function","name":"ping","inputs":[],"outputs":[],"stateMutability":"nonpayable"},{"type":"function","name":"removeHeir","inputs":[{"name":"heirIndex","type":"uint256","internalType":"uint256"}],"outputs":[],"stateMutability":"nonpayable"},{"type":"function","name":"timeSinceDeath","inputs":[],"outputs":[{"name":"","type":"uint256","internalType":"uint256"}],"stateMutability":"view"},{"type":"function","name":"timeUntilDead","inputs":[],"outputs":[{"name":"","type":"uint256","internalType":"uint256"}],"stateMutability":"view"},{"type":"function","name":"totalClaimed","inputs":[],"outputs":[{"name":"","type":"uint256","internalType":"uint256"}],"stateMutability":"view"},{"type":"function","name":"totalDistributableAtDeath","inputs":[],"outputs":[{"name":"","type":"uint256","internalType":"uint256"}],"stateMutability":"view"},{"type":"function","name":"unclaimedBalance","inputs":[],"outputs":[{"name":"","type":"uint256","internalType":"uint256"}],"stateMutability":"view"},{"type":"event","name":"Claimed","inputs":[{"name":"claimer","type":"address","indexed":true,"internalType":"address"},{"name":"heirIndex","type":"uint256","indexed":true,"internalType":"uint256"},{"name":"amount","type":"uint256","indexed":false,"internalType":"uint256"}],"anonymous":false},{"type":"event","name":"Committed","inputs":[{"name":"claimer","type":"address","indexed":true,"internalType":"address"},{"name":"commitHash","type":"bytes32","indexed":false,"internalType":"bytes32"},{"name":"blockNumber","type":"uint256","indexed":false,"internalType":"uint256"}],"anonymous":false},{"type":"event","name":"EmergencyWithdraw","inputs":[{"name":"owner","type":"address","indexed":true,"internalType":"address"},{"name":"amount","type":"uint256","indexed":false,"internalType":"uint256"}],"anonymous":false},{"type":"event","name":"HeirAdded","inputs":[{"name":"heirIndex","type":"uint256","indexed":true,"internalType":"uint256"},{"name":"codeHash","type":"bytes32","indexed":false,"internalType":"bytes32"},{"name":"shareBPS","type":"uint16","indexed":false,"internalType":"uint16"}],"anonymous":false},{"type":"event","name":"HeirRemoved","inputs":[{"name":"heirIndex","type":"uint256","indexed":true,"internalType":"uint256"}],"anonymous":false},{"type":"event","name":"Pinged","inputs":[{"name":"timestamp","type":"uint256","indexed":false,"internalType":"uint256"},{"name":"nextDeadline","type":"uint256","indexed":false,"internalType":"uint256"}],"anonymous":false}],"bytecode":{"object":"0x60e0604052611cf4803803806100148161046b565b92833981019060608183031261045657805160208201519091906001600160401b0381116104565781019083601f830112156104565781519161005e61005984610490565b61046b565b9260208085838152019160051b8301019186831161045657602001905b82821061045b575050506040810151906001600160401b03821161045657019280601f85011215610456578351906100b561005983610490565b9460208087858152019360051b82010191821161045657602001915b81831061043b575050506001600055620151808210158061042d575b156103e85780518351036103a35780511561035e57600090815b845183101561027b5761011a83836104a7565b51156102445761ffff61012d84876104a7565b5116156101ff5761ffff61014184876104a7565b511681018091116101e9579161015781836104a7565b519061ffff61016682886104a7565b5116604051606081019381851060018060401b038611176101d35760019460405281526020810191825261ffff846040830192600084528560005260056020526040600020905181550192511662ff000083549251151560101b169162ffffff1916171790550191610107565b634e487b7160e01b600052604160045260246000fd5b634e487b7160e01b600052601160045260246000fd5b60405162461bcd60e51b815260206004820152601660248201527f5368617265206d75737420626520706f736974697665000000000000000000006044820152606490fd5b60405162461bcd60e51b815260206004820152600f60248201526e08adae0e8f240c6dec8ca40d0c2e6d608b1b6044820152606490fd5b612710849111610324573360805260a0524260c052426001555160065560405161182290816104d28239608051818181610305015281816107fb0152818161098001528181610a720152610fc6015260a0518181816101b40152818161033e01528181610917015281816109df01528181610a3501528181610aab01528181610bcd01528181610fff01528181611112015281816111cb015261142d015260c051816105740152f35b60405162461bcd60e51b815260206004820152601260248201527153686172657320657863656564203130302560701b6044820152606490fd5b60405162461bcd60e51b815260206004820152601b60248201527f4d7573742068617665206174206c65617374206f6e65206865697200000000006044820152606490fd5b60405162461bcd60e51b815260206004820152601560248201527f4172726179206c656e677468206d69736d6174636800000000000000000000006044820152606490fd5b60405162461bcd60e51b815260206004820152601660248201527f486561727462656174206f7574206f662072616e6765000000000000000000006044820152606490fd5b506301e133808211156100ed565b825161ffff81168103610456578152602092830192016100d1565b600080fd5b815181526020918201910161007b565b6040519190601f01601f191682016001600160401b038111838210176101d357604052565b6001600160401b0381116101d35760051b60200190565b80518210156104bb5760209160051b010190565b634e487b7160e01b600052603260045260246000fdfe608080604052600436101561001d575b50361561001b57600080fd5b005b60003560e01c908163026c41af1461118e575080630e51ac1b146111735780631f76d82c146111555780632760c57e1461113757806329dcb0cf146110f757806334292f4e146110d95780633af07ca6146110bd5780633ca6a0b714610fac578063411cc2a314610ba15780634bdbbf1c14610b8457806350857fb214610b685780635312ea8e14610a58578063561a4fac14610a1d5780635c36b1861461096957806374bfd97714610946578063791407c8146108fc57806381465e02146108af5780638696b8871461085357806386ce902f1461082a5780638da5cb5b146107e5578063933bd7c3146107c95780639a6218f51461064d578063a344e4d51461062d578063a80f09a91461060a578063baf3bab714610597578063cf09e0d01461055c578063d301f1b8146102dc578063d54ad2a1146102be578063d8f8c6a6146102a0578063d9d09c2f14610284578063e1a4521814610267578063ea8d9377146102485763f14fcbc814610195573861000f565b34610243576020366003190112610243576004356101e16101d96001547f0000000000000000000000000000000000000000000000000000000000000000906111a9565b4210156112cf565b6040516101ed81611310565b818152600160208201438152336000526007602052604060002092518355519101556040519081524360208201527f550e735193e8f8bf0398f14bcadbbbf0329d5401f6786981e63f5b010662b00e60403392a2005b600080fd5b346102435760003660031901126102435760206040516301e133808152f35b346102435760003660031901126102435760206040516127108152f35b3461024357600036600319011261024357602060405160488152f35b34610243576000366003190112610243576020600654604051908152f35b34610243576000366003190112610243576020600254604051908152f35b346102435760403660031901126102435760043560243561ffff811680910361024357610333337f00000000000000000000000000000000000000000000000000000000000000006001600160a01b03161461120a565b61036a6103636001547f0000000000000000000000000000000000000000000000000000000000000000906111a9565b4210611243565b81156105255780151580610519575b156104e45760065491600082815b85811061049a575061039c90612710926111a9565b11610455576040516103ad81611342565b818152602081019083825261ffff60016040830192600084528760005260056020526040600020905181550192511661ffff1983541617825551151562ff000082549160101b169062ff00001916179055600183019081841161043f577fb683582043a8f85d22b684181b3e799d6a893b91473824838a743f5cb47fd6ea9260409260065582519182526020820152a2005b634e487b7160e01b600052601160045260246000fd5b60405162461bcd60e51b815260206004820152601860248201527f53686172657320776f756c6420657863656564203130302500000000000000006044820152606490fd5b80915060005260056020526040600020546104ba575b6001018390610387565b906104dc60019183600052600560205261ffff836040600020015416906111a9565b9190506104b0565b60405162461bcd60e51b815260206004820152600d60248201526c496e76616c696420736861726560981b6044820152606490fd5b50612710811115610379565b60405162461bcd60e51b815260206004820152600f60248201526e08adae0e8f240c6dec8ca40d0c2e6d608b1b6044820152606490fd5b346102435760003660031901126102435760206040517f00000000000000000000000000000000000000000000000000000000000000008152f35b34610243576020366003190112610243576004356105b8600654821061128e565b600052600560205260606040600020604080516105d481611342565b600183549384835201549060ff61ffff83169283602084015260101c161515928391015260405192835260208301526040820152f35b34610243576000366003190112610243576020610625611425565b604051908152f35b3461024357600036600319011261024357602061062547600254906111a9565b346102435760203660031901126102435761060060405161066e828261135e565b8136823760405160208101906000805160206117cd83398151915282526004356040820152604081526106a260608261135e565b519020604051602081019182526d1c1b185b9d19590b5cd958dc995d60921b6040820152602e81526106d5604e8261135e565b51902060005b60038110610713575050604051906000825b603082106106fa57505050f35b602080600192855160000b8152019301910190916106ed565b60405160208101908382528260408201526040815261073360608261135e565b51902060005b6010811061074c575b50506001016106db565b8260041b8381046010148415171561043f5781610768916111a9565b9060308210156107c35780600f03600f811161043f578060041b90810460101482600f14171561043f5761ffff846003921c160691600019830192831360011661043f576107bc60019360000b91886113fe565b5201610739565b50610742565b3461024357600036600319011261024357602060405160308152f35b34610243576000366003190112610243576040517f00000000000000000000000000000000000000000000000000000000000000006001600160a01b03168152602090f35b346102435760003660031901126102435760206040516000805160206117cd8339815191528152f35b34610243576020366003190112610243576004356001600160a01b038116908190036102435760005260076020526040806000206020825161089481611310565b60018354938483520154918291015282519182526020820152f35b34610243576020366003190112610243576020604051818101906000805160206117cd83398151915282526004356040820152604081526108f160608261135e565b519020604051908152f35b3461024357600036600319011261024357602061093c6001547f0000000000000000000000000000000000000000000000000000000000000000906111a9565b4210604051908152f35b3461024357600036600319011261024357602060ff600454166040519015158152f35b34610243576000366003190112610243576109ae337f00000000000000000000000000000000000000000000000000000000000000006001600160a01b03161461120a565b7f9f062c21a37f849f64f410ca1b44342313651b03a71eb36fd2183ebd4c024b1f6040610a0f600154610a056103637f000000000000000000000000000000000000000000000000000000000000000080936111a9565b42600155426111a9565b8151904282526020820152a1005b346102435760003660031901126102435760206040517f00000000000000000000000000000000000000000000000000000000000000008152f35b3461024357602036600319011261024357600435610aa0337f00000000000000000000000000000000000000000000000000000000000000006001600160a01b03161461120a565b610ad06103636001547f0000000000000000000000000000000000000000000000000000000000000000906111a9565b80610b635750475b478111610b2757610af9600080808085335af1610af3611380565b506113c0565b6040519081527f5fafa99d0643513820be26656b45130b01e1c03062e1266bf36f88cbd3bd969560203392a2005b60405162461bcd60e51b8152602060048201526014602482015273496e73756666696369656e742062616c616e636560601b6044820152606490fd5b610ad8565b3461024357600036600319011261024357602060405160028152f35b346102435760003660031901126102435760206040516107f78152f35b346102435761064036600319011261024357600435602435366106441161024357610bf26101d96001547f0000000000000000000000000000000000000000000000000000000000000000906111a9565b600160005403610f7a576002600055610c0e600654831061128e565b8160005260056020526040600020908154918215610f46576001019182549160ff8360101c16610f0f573360005260076020526040600020600160405191610c5583611310565b805483520154602082019080825215610ed857516002810180911161043f574310610ea05760405160208101903382528760408201528360608201526080810160446000915b60308310610e7d575050506106608152610cb76106808261135e565b519020905103610e3857610cca81611465565b5015610df3576040516020810191825260208152610ce960408261135e565b51902003610dba5762ff00001916620100001781553360009081526007602052604081208181556001015560045460ff811615610da6575b5061ffff6003549154169081810291818304149015171561043f576127109004478111610d9f575b610d55816002546111a9565b600255610d6c600080808085335af1610af3611380565b6040519081527f987d620f307ff6b94d58743cb7a7509f24071586a77759b77c2d4e29f75a2f9a60203392a36001600055005b5047610d49565b4760035560ff191660011760045582610d21565b60405162461bcd60e51b8152602060048201526011602482015270496e76616c6964206865697220636f646560781b6044820152606490fd5b60405162461bcd60e51b815260206004820152601760248201527f496e76616c69642070757a7a6c6520736f6c7574696f6e0000000000000000006044820152606490fd5b60405162461bcd60e51b815260206004820152601e60248201527f496e76616c69642072657665616c202d2068617368206d69736d6174636800006044820152606490fd5b8135908160000b8092036102435760208160019382935201920192019190610c9b565b60405162461bcd60e51b815260206004820152601060248201526f52657665616c20746f6f206561726c7960801b6044820152606490fd5b60405162461bcd60e51b815260206004820152600f60248201526e139bc818dbdb5b5a5d08199bdd5b99608a1b6044820152606490fd5b60405162461bcd60e51b815260206004820152600f60248201526e105b1c9958591e4818db185a5b5959608a1b6044820152606490fd5b60405162461bcd60e51b815260206004820152600c60248201526b12195a5c881c995b5bdd995960a21b6044820152606490fd5b60405162461bcd60e51b815260206004820152600a6024820152695265656e7472616e637960b01b6044820152606490fd5b3461024357602036600319011261024357600435610ff4337f00000000000000000000000000000000000000000000000000000000000000006001600160a01b03161461120a565b6110246103636001547f0000000000000000000000000000000000000000000000000000000000000000906111a9565b611031600654821061128e565b8060005260056020526040600020541561108157806000526005602052600060016040822082815501557e6919dd8a1349e0dea30e0baae839446d936adab36e3427e1abf17857dca375600080a2005b60405162461bcd60e51b815260206004820152601460248201527312195a5c88185b1c9958591e481c995b5bdd995960621b6044820152606490fd5b3461024357600036600319011261024357602047604051908152f35b34610243576000366003190112610243576020600354604051908152f35b346102435760003660031901126102435760206106256001547f0000000000000000000000000000000000000000000000000000000000000000906111a9565b34610243576000366003190112610243576020600154604051908152f35b34610243576000366003190112610243576020604051620151808152f35b346102435760003660031901126102435760206106256111c3565b34610243576000366003190112610243578061012c60209252f35b9190820180921161043f57565b9190820391821161043f57565b6111f06001547f0000000000000000000000000000000000000000000000000000000000000000906111a9565b8042106112045761120190426111b6565b90565b50600090565b1561121157565b60405162461bcd60e51b815260206004820152600a60248201526927b7363c9037bbb732b960b11b6044820152606490fd5b1561124a57565b606460405162461bcd60e51b815260206004820152602060248201527f4f776e657220696e616374697665202d2068656972732063616e20636c61696d6044820152fd5b1561129557565b60405162461bcd60e51b8152602060048201526012602482015271092dcecc2d8d2c840d0cad2e440d2dcc8caf60731b6044820152606490fd5b156112d657565b60405162461bcd60e51b81526020600482015260126024820152714f776e6572207374696c6c2061637469766560701b6044820152606490fd5b6040810190811067ffffffffffffffff82111761132c57604052565b634e487b7160e01b600052604160045260246000fd5b6060810190811067ffffffffffffffff82111761132c57604052565b90601f8019910116810190811067ffffffffffffffff82111761132c57604052565b3d156113bb573d9067ffffffffffffffff821161132c57604051916113af601f8201601f19166020018461135e565b82523d6000602084013e565b606090565b156113c757565b60405162461bcd60e51b815260206004820152600f60248201526e151c985b9cd9995c8819985a5b1959608a1b6044820152606490fd5b90603081101561140f5760051b0190565b634e487b7160e01b600052603260045260246000fd5b6114526001547f0000000000000000000000000000000000000000000000000000000000000000906111a9565b80421015611204576112019042906111b6565b604491600091825b60308110611762575060405160208101916000805160206117cd83398151915283526040820152604081526114a360608261135e565b519020604051610600946114b7868361135e565b8536833760405160208101908482526d1c1b185b9d19590b5cd958dc995d60921b6040820152602e81526114ec604e8261135e565b51902060005b600381106116e9575050906000916000935b604885106115725750505061012c915010928361151e5750565b90915060405160208101918260446000915b6030831061154f5750505081526115496106208261135e565b51902090565b8135908160000b8092036102435760208160019382935201920192019190611530565b90919260405160208101908382528660408201526040815261159560608261135e565b5190206000908190825b60038110611633575050600192916107f78092604051906005602083018981526432b93937b960d91b60408501528c6045850152604584526115e260658561135e565b88199351902006010107906000821261162a575b03076103fb811315611616576107f619015b800201940193929190611504565b6103fa19811215611608576107f701611608565b908201906115f6565b60405160208101908382528260408201526040815261165360608261135e565b5190206000905b6010821061166d575b505060010161159f565b909394848360041b019560308710156116e1576107f761ffff8488600f0360041b1c1607600060308910156116cd57508760051b8b01358060000b809103610243576001936116c091830201988d6113fe565b51830b020194019061165a565b634e487b7160e01b81526032600452602490fd5b945094611663565b60405160208101908382528260408201526040815261170960608261135e565b51902060005b60108110611722575b50506001016114f2565b808360041b01603081101561175c5790600191611755600019600361ffff8786600f0360041b1c160601840b91896113fe565b520161170f565b50611718565b600060308210156116cd57508060051b850180358060000b908181036102435760001982129283156117a9575b50505061179e5760010161146d565b506000935083925050565b90919250600060308510156116cd5750508190036102435760011238808061178f56fe63fa20280546824e71b86edfaf14e77c493c05e830f4486c556c6c258de4a566a264697066735822122073b49cbb954e23c13fcda0bbf137b0170a66fe75d7ad15a9ecab70fce651638064736f6c634300081f0033","linkReferences":{}},"methodIdentifiers":{"BPS_DENOMINATOR()":"e1a45218","COMMIT_DELAY()":"50857fb2","MAX_HEARTBEAT()":"ea8d9377","MIN_HEARTBEAT()":"1f76d82c","M_WEAK()":"d9d09c2f","N_WEAK()":"933bd7c3","PUZZLE_DOMAIN()":"86ce902f","PUZZLE_THRESHOLD_SQ()":"026c41af","Q_WEAK()":"4bdbbf1c","addHeir(bytes32,uint16)":"d301f1b8","balanceAtDeath()":"34292f4e","claim(uint256,bytes32,int8[48])":"411cc2a3","commit(bytes32)":"f14fcbc8","createdAt()":"cf09e0d0","deadline()":"29dcb0cf","deathSnapshotTaken()":"74bfd977","emergencyWithdraw(uint256)":"5312ea8e","getCommit(address)":"8696b887","getHeirInfo(uint256)":"baf3bab7","getPlantedSecret(bytes32)":"9a6218f5","getPuzzleSeed(bytes32)":"81465e02","heartbeatInterval()":"561a4fac","heirCount()":"d8f8c6a6","isOwnerAlive()":"791407c8","lastPing()":"2760c57e","owner()":"8da5cb5b","ping()":"5c36b186","removeHeir(uint256)":"3ca6a0b7","timeSinceDeath()":"0e51ac1b","timeUntilDead()":"a80f09a9","totalClaimed()":"d54ad2a1","totalDistributableAtDeath()":"a344e4d5","unclaimedBalance()":"3af07ca6"},"id":0}