{"abi":[{"type":"constructor","inputs":[{"name":"_circuitDataPointer","type":"address","internalType":"address"},{"name":"_numWires","type":"uint8","internalType":"uint8"},{"name":"_numGates","type":"uint32","internalType":"uint32"},{"name":"_expectedOutputHash","type":"bytes32","internalType":"bytes32"},{"name":"_circuitSeed","type":"bytes32","internalType":"bytes32"},{"name":"_expectedBindingOutput","type":"uint256[4]","internalType":"uint256[4]"},{"name":"_secretExpiry","type":"uint256","internalType":"uint256"},{"name":"_lbloN","type":"uint256","internalType":"uint256"}],"stateMutability":"payable"},{"type":"receive","stateMutability":"payable"},{"type":"function","name":"BINDING_ROWS","inputs":[],"outputs":[{"name":"","type":"uint256","internalType":"uint256"}],"stateMutability":"view"},{"type":"function","name":"COMMIT_DELAY","inputs":[],"outputs":[{"name":"","type":"uint256","internalType":"uint256"}],"stateMutability":"view"},{"type":"function","name":"Q","inputs":[],"outputs":[{"name":"","type":"uint256","internalType":"uint256"}],"stateMutability":"view"},{"type":"function","name":"THRESHOLD","inputs":[],"outputs":[{"name":"","type":"uint256","internalType":"uint256"}],"stateMutability":"view"},{"type":"function","name":"check","inputs":[{"name":"input","type":"bytes32","internalType":"bytes32"}],"outputs":[{"name":"","type":"bool","internalType":"bool"}],"stateMutability":"view"},{"type":"function","name":"circuitDataPointer","inputs":[],"outputs":[{"name":"","type":"address","internalType":"address"}],"stateMutability":"view"},{"type":"function","name":"circuitSeed","inputs":[],"outputs":[{"name":"","type":"bytes32","internalType":"bytes32"}],"stateMutability":"view"},{"type":"function","name":"commit","inputs":[{"name":"commitHash","type":"bytes32","internalType":"bytes32"}],"outputs":[],"stateMutability":"nonpayable"},{"type":"function","name":"commitDelay","inputs":[],"outputs":[{"name":"","type":"uint256","internalType":"uint256"}],"stateMutability":"pure"},{"type":"function","name":"encryptedGates","inputs":[],"outputs":[{"name":"","type":"uint256","internalType":"uint256"}],"stateMutability":"pure"},{"type":"function","name":"estimatedGas","inputs":[],"outputs":[{"name":"","type":"uint256","internalType":"uint256"}],"stateMutability":"pure"},{"type":"function","name":"expectedBindingOutput0","inputs":[],"outputs":[{"name":"","type":"uint256","internalType":"uint256"}],"stateMutability":"view"},{"type":"function","name":"expectedBindingOutput1","inputs":[],"outputs":[{"name":"","type":"uint256","internalType":"uint256"}],"stateMutability":"view"},{"type":"function","name":"expectedBindingOutput2","inputs":[],"outputs":[{"name":"","type":"uint256","internalType":"uint256"}],"stateMutability":"view"},{"type":"function","name":"expectedBindingOutput3","inputs":[],"outputs":[{"name":"","type":"uint256","internalType":"uint256"}],"stateMutability":"view"},{"type":"function","name":"expectedOutputHash","inputs":[],"outputs":[{"name":"","type":"bytes32","internalType":"bytes32"}],"stateMutability":"view"},{"type":"function","name":"getCommit","inputs":[{"name":"committer","type":"address","internalType":"address"}],"outputs":[{"name":"","type":"bytes32","internalType":"bytes32"},{"name":"","type":"uint256","internalType":"uint256"}],"stateMutability":"view"},{"type":"function","name":"lbloN","inputs":[],"outputs":[{"name":"","type":"uint256","internalType":"uint256"}],"stateMutability":"view"},{"type":"function","name":"numGates","inputs":[],"outputs":[{"name":"","type":"uint32","internalType":"uint32"}],"stateMutability":"view"},{"type":"function","name":"numWires","inputs":[],"outputs":[{"name":"","type":"uint8","internalType":"uint8"}],"stateMutability":"view"},{"type":"function","name":"owner","inputs":[],"outputs":[{"name":"","type":"address","internalType":"address"}],"stateMutability":"view"},{"type":"function","name":"reveal","inputs":[{"name":"input","type":"bytes32","internalType":"bytes32"}],"outputs":[],"stateMutability":"nonpayable"},{"type":"function","name":"reward","inputs":[],"outputs":[{"name":"","type":"uint256","internalType":"uint256"}],"stateMutability":"view"},{"type":"function","name":"scheme","inputs":[],"outputs":[{"name":"","type":"string","internalType":"string"}],"stateMutability":"pure"},{"type":"function","name":"secretExpiry","inputs":[],"outputs":[{"name":"","type":"uint256","internalType":"uint256"}],"stateMutability":"view"},{"type":"event","name":"Claimed","inputs":[{"name":"claimer","type":"address","indexed":true,"internalType":"address"},{"name":"commitHash","type":"bytes32","indexed":true,"internalType":"bytes32"},{"name":"reward","type":"uint256","indexed":false,"internalType":"uint256"}],"anonymous":false},{"type":"event","name":"Committed","inputs":[{"name":"committer","type":"address","indexed":true,"internalType":"address"},{"name":"commitHash","type":"bytes32","indexed":true,"internalType":"bytes32"},{"name":"blockNumber","type":"uint256","indexed":false,"internalType":"uint256"}],"anonymous":false}],"bytecode":{"object":"0x61020060408190526118433881900390601f8201601f19168301906001600160401b038211848310176103bc5782916040528339810190610160818303126103b75780516001600160a01b038116928382036103b757602083015160ff8116948582036103b757604085015163ffffffff8116928382036103b7576060870151926080880151948660bf8a0112156103b75760405196608088016001600160401b038111898210176103bc57604052876101208b019182116103b75760a08b01905b8282106103a7575050610140905199015199801515908161039b575b5015610361571561032a57156102f357428711156102ae576080881480156102a3575b8015610298575b801561028d575b156102485760609560a05260c05260e052610100526101205280516101605260208101516101805260408101516101a05201516101c05261014052608052336101e0523460005560405161147090816103d3823960805181818161036201528181610c900152611128015260a05181818161066a0152610c25015260c05181818161085701528181610bf4015281816111db0152611311015260e0518181816106f10152610c600152610100518181816101c60152610d18015261012051818181610327015281816111fd015261133401526101405181818161029a015281816103cf01526107bb0152610160518181816102060152610ddf01526101805181818161072d0152610db401526101a0518181816107850152610d8601526101c0518181816106b10152610d5c01526101e051816106250152f35b60405162461bcd60e51b815260206004820152601f60248201527f6e206d757374206265203132382c203235362c203531322c206f7220373638006044820152606490fd5b50610300881461010e565b506102008814610107565b506101008814610100565b60405162461bcd60e51b815260206004820152601860248201527f457870697279206d75737420626520696e2066757475726500000000000000006044820152606490fd5b60405162461bcd60e51b815260206004820152600f60248201526e24b73b30b634b2103837b4b73a32b960891b6044820152606490fd5b60405162461bcd60e51b815260206004820152600f60248201526e4d757374206861766520676174657360881b6044820152606490fd5b60405162461bcd60e51b815260206004820152601260248201527115da5c995cc81b5d5cdd081899480c4b4d8d60721b6044820152606490fd5b604091501115386100dd565b81518152602091820191016100c1565b600080fd5b634e487b7160e01b600052604160045260246000fdfe60806040526004361015610023575b361561001957600080fd5b610021610b48565b005b60003560e01c80630bd48e60146101ae578063103117c7146101a95780631a69cad5146101a4578063228cb7331461019f578063342746aa1461019a578063363c058c14610195578063399e0792146101905780633fe8e80f1461018b5780634d26bf29146101865780634eb3ffbc1461018157806350857fb21461015e578063701fd0f11461017c578063785ffb37146101775780638518b0ad146101725780638696b8871461016d5780638da5cb5b146101685780639e9d2938146101635780639ffedd171461015e578063cdb27ded14610159578063d1b92e4314610154578063d262512b1461014f578063e493ef8c1461014a578063ed2cc90f14610145578063f14fcbc8146101405763faaf4d9a0361000e5761083d565b6107a8565b61076d565b610750565b610715565b6106d4565b610699565b610385565b610654565b61060f565b6105ac565b610528565b61050a565b6103a1565b61034a565b61030f565b6102f2565b6102cf565b610282565b610263565b610245565b610229565b6101ee565b346101e95760003660031901126101e95760206040517f00000000000000000000000000000000000000000000000000000000000000008152f35b600080fd5b346101e95760003660031901126101e95760206040517f00000000000000000000000000000000000000000000000000000000000000008152f35b346101e95760003660031901126101e957602060405160408152f35b346101e95760003660031901126101e9576020600054604051908152f35b346101e95760003660031901126101e957602060405163010366408152f35b346101e95760003660031901126101e95760206040517f00000000000000000000000000000000000000000000000000000000000000008152f35b60209060031901126101e95760043590565b346101e95760206102e76102e2366102bd565b610be2565b506040519015158152f35b346101e95760003660031901126101e95760206040516102808152f35b346101e95760003660031901126101e95760206040517f00000000000000000000000000000000000000000000000000000000000000008152f35b346101e95760003660031901126101e95760206040517f00000000000000000000000000000000000000000000000000000000000000008152f35b346101e95760003660031901126101e957602060405160028152f35b346101e9576103af366102bd565b6103ca6103c56103c160015460ff1690565b1590565b61087b565b6103f57f000000000000000000000000000000000000000000000000000000000000000042106108b9565b33600090815260026020526040902061047990610473906104159061094f565b9261043a6104326020860161042c8151151561096d565b516109ab565b431015610a12565b6040805133602082019081529181018390526102e2919061046881606081015b03601f19810183528261092d565b519020855114610a51565b50610a8e565b61048a600160ff1981541617600155565b3360009081526002602052604081208181556001015560005490600080556104c2600080808086335af16104bc610aca565b50610b0a565b516040519182529033907f9b01158d4bc10c112ba32b5240cda97e49e2eb86021f03f6a0f460342ac4dfda90602090a3005b634e487b7160e01b600052601160045260246000fd5b346101e95760003660031901126101e9576020613ffc604051908152f35b346101e95760003660031901126101e9576040805190610548818361092d565b600d82526c1d1b1bdccb5b189b1bcb5bdc1d609a1b6020830152805180926020825280519081602084015260005b8281106105955750506000828201840152601f01601f19168101030190f35b602082820181015187830187015286945001610576565b346101e95760203660031901126101e9576004356001600160a01b038116908190036101e9576000526002602052604060002060206040516105ed8161090c565b8254808252600190930154910181905260408051928352602083019190915290f35b346101e95760003660031901126101e9576040517f00000000000000000000000000000000000000000000000000000000000000006001600160a01b03168152602090f35b346101e95760003660031901126101e9576040517f00000000000000000000000000000000000000000000000000000000000000006001600160a01b03168152602090f35b346101e95760003660031901126101e95760206040517f00000000000000000000000000000000000000000000000000000000000000008152f35b346101e95760003660031901126101e957602060405163ffffffff7f0000000000000000000000000000000000000000000000000000000000000000168152f35b346101e95760003660031901126101e95760206040517f00000000000000000000000000000000000000000000000000000000000000008152f35b346101e95760003660031901126101e957602060405161fff18152f35b346101e95760003660031901126101e95760206040517f00000000000000000000000000000000000000000000000000000000000000008152f35b346101e9576107b6366102bd565b6107e17f000000000000000000000000000000000000000000000000000000000000000042106108b9565b6040516107ed8161090c565b818152600160208201438152336000526002602052604060002092518355519101556040514381527f550e735193e8f8bf0398f14bcadbbbf0329d5401f6786981e63f5b010662b00e60203392a3005b346101e95760003660031901126101e957602060405160ff7f0000000000000000000000000000000000000000000000000000000000000000168152f35b1561088257565b60405162461bcd60e51b815260206004820152600f60248201526e105b1c9958591e4818db185a5b5959608a1b6044820152606490fd5b156108c057565b60405162461bcd60e51b815260206004820152600e60248201526d14d958dc995d08195e1c1a5c995960921b6044820152606490fd5b634e487b7160e01b600052604160045260246000fd5b6040810190811067ffffffffffffffff82111761092857604052565b6108f6565b90601f8019910116810190811067ffffffffffffffff82111761092857604052565b9060405161095c8161090c565b602060018294805484520154910152565b1561097457565b60405162461bcd60e51b815260206004820152600f60248201526e139bc818dbdb5b5a5d08199bdd5b99608a1b6044820152606490fd5b90600282018092116109b957565b6104f4565b60030190816003116109b957565b90608082018092116109b957565b60200190816020116109b957565b90600382018092116109b957565b9061fff182018092116109b957565b919082018092116109b957565b15610a1957565b60405162461bcd60e51b815260206004820152601060248201526f52657665616c20746f6f206561726c7960801b6044820152606490fd5b15610a5857565b60405162461bcd60e51b815260206004820152600e60248201526d125b9d985b1a59081c995d99585b60921b6044820152606490fd5b15610a9557565b60405162461bcd60e51b815260206004820152600d60248201526c125b9d985b1a59081a5b9c1d5d609a1b6044820152606490fd5b3d15610b05573d9067ffffffffffffffff82116109285760405191610af9601f8201601f19166020018461092d565b82523d6000602084013e565b606090565b15610b1157565b60405162461bcd60e51b815260206004820152600f60248201526e151c985b9cd9995c8819985a5b1959608a1b6044820152606490fd5b6000543481018091116109b957600055565b604051906080610b6a818461092d565b368337565b6000198101919082116109b957565b919082039182116109b957565b906003820291808304600314901517156109b957565b908160011b91808304600214901517156109b957565b600281901b91906001600160fe1b038116036109b957565b818102929181159184041417156109b957565b610bea610b5a565b50610c1a600160ff7f0000000000000000000000000000000000000000000000000000000000000000161b610b6f565b811690610c4f610c497f00000000000000000000000000000000000000000000000000000000000000006110ab565b91611125565b610c58836111cd565b9163ffffffff7f000000000000000000000000000000000000000000000000000000000000000016613ffc91610c8d83610b8b565b927f000000000000000000000000000000000000000000000000000000000000000093610ccb610cc6610cc08760041c90565b96610ba1565b6109ab565b94610cdd610cd887610bb7565b6109be565b936000978260051b905b878a10610e0657505050505050505050508091604051610d138161045a60208201948560209181520190565b5190207f0000000000000000000000000000000000000000000000000000000000000000149081610ddb575b81610dad575b81610d7f575b81610d54575091565b6060019050517f00000000000000000000000000000000000000000000000000000000000000001491565b60408101517f0000000000000000000000000000000000000000000000000000000000000000149150610d4b565b60208101517f0000000000000000000000000000000000000000000000000000000000000000149150610d45565b80517f0000000000000000000000000000000000000000000000000000000000000000149150610d3f565b90919293949596979899610e198b6109cc565b908982116110a3575b8b5b828110610e6f5750610e61918d610e5b92610e538151610e448360200190565b51186040830151189160600190565b511818611301565b9a6109cc565b989796959493929190610ce7565b9c8b90610ee08f610e838d610e8892610bcf565b6109da565b610eda818a015194610ed4603f610e9f8860f81c90565b1696600187610eca8282603f610ec181610eb98960f01c90565b169760e81c90565b161c1660011b90565b921c1617936109e8565b92610bcf565b90610a05565b866000808a84015b8c8210610f645750506001949392610f12610f1f9361fff1610f17940692018c015160f01c6109f6565b610b7e565b61fff1900690565b8a8c82119182610f5a575b5050600090600014610f5157508260ff815b168183851c1618831b921b1916179d01610e24565b60ff8491610f3c565b1090508a38610f2a565b9181600192945060051b602081850151918c01015161ffff811661ffff8316029261ffff8260101c1661ffff8460101c16029261ffff8360201c1661ffff8260201c16029261ffff8160301c1661ffff8360301c16029261ffff8260401c1661ffff8460401c16029261ffff8360501c1661ffff8260501c16029261ffff8160601c1661ffff8360601c16029261ffff8260701c1661ffff8460701c16029261ffff8360801c1661ffff8260801c16029261ffff8160901c1661ffff8360901c16029261ffff8260a01c1661ffff8460a01c16029261ffff8360b01c1661ffff8260b01c16029261ffff8160c01c1661ffff8360c01c16029261ffff8260d01c1661ffff8460d01c16029261ffff8360e01c1661ffff8260e01c16029260f01c9060f01c02010101010101010101010101010101019201899291610ee8565b899150610e22565b803b906000198201908282116109b95760019060405193603e601f19910116840160405282845260208401903c90565b67ffffffffffffffff81116109285760051b60200190565b906110fd826110db565b61110a604051918261092d565b828152809261111b601f19916110db565b0190602036910137565b907f000000000000000000000000000000000000000000000000000000000000000060041c611153816110f3565b604051938452926020810160005b83811061116e5750505050565b8082526040832060009081905b60108210611198575050600582901b870160200152600101611161565b909160019083600f0360041b61ffff84821c169061fff18210156111c1575b1b1792019061117b565b9061fff01901906111b7565b906111d6610b5a565b9160ff7f0000000000000000000000000000000000000000000000000000000000000000167f000000000000000000000000000000000000000000000000000000000000000091604051916000602084019060408501905b6040811061123f5750505050505050565b86865260008084528183526060872081805b8782106112815750505090600191601f1982841b168b019061ffff8251911660f08460041b161b1790520161122e565b828a5280875260408a206000905b89841060108310166112a5575050600101611251565b909261ffff828560041b1c1661fff18110156112f7575b60018c831c166112d5575b50600180910193019061128f565b9095019461fff18610156112ea575b386112c7565b61fff019909501946112e4565b61fff019016112bc565b91909161130c610b5a565b9260ff7f000000000000000000000000000000000000000000000000000000000000000016917f000000000000000000000000000000000000000000000000000000000000000092604051926000602085019160408601915b60408110611377575050505050505050565b8787528184528083526060872060009081825b8882106113ba5750505090600191601f1982841b168c019061ffff8251911660f08460041b161b17905201611365565b828b5280885260408b206000905b8a841060108310166113de57505060010161138a565b909261ffff828560041b1c1661fff1811015611430575b60018d831c1661140e575b5060018091019301906113c8565b9095019461fff1861015611423575b38611400565b61fff0199095019461141d565b61fff019016113f556fea2646970667358221220623b463a6a6f0edd8555e11a8218c8acb04b15c2b76c0eb776d5ad4807e4928e64736f6c634300081f0033","linkReferences":{}},"methodIdentifiers":{"BINDING_ROWS()":"1a69cad5","COMMIT_DELAY()":"50857fb2","Q()":"e493ef8c","THRESHOLD()":"785ffb37","check(bytes32)":"399e0792","circuitDataPointer()":"9e9d2938","circuitSeed()":"4d26bf29","commit(bytes32)":"f14fcbc8","commitDelay()":"9ffedd17","encryptedGates()":"3fe8e80f","estimatedGas()":"342746aa","expectedBindingOutput0()":"103117c7","expectedBindingOutput1()":"d262512b","expectedBindingOutput2()":"ed2cc90f","expectedBindingOutput3()":"cdb27ded","expectedOutputHash()":"0bd48e60","getCommit(address)":"8696b887","lbloN()":"4eb3ffbc","numGates()":"d1b92e43","numWires()":"faaf4d9a","owner()":"8da5cb5b","reveal(bytes32)":"701fd0f1","reward()":"228cb733","scheme()":"8518b0ad","secretExpiry()":"363c058c"},"id":1}