{"abi":[{"type":"constructor","inputs":[{"name":"_circuitDataPointer","type":"address","internalType":"address"},{"name":"_numWires","type":"uint8","internalType":"uint8"},{"name":"_numGates","type":"uint32","internalType":"uint32"},{"name":"_expectedOutputHash","type":"bytes32","internalType":"bytes32"},{"name":"_circuitSeed","type":"bytes32","internalType":"bytes32"},{"name":"_expectedBindingOutput","type":"uint256[4]","internalType":"uint256[4]"},{"name":"_secretExpiry","type":"uint256","internalType":"uint256"}],"stateMutability":"payable"},{"type":"receive","stateMutability":"payable"},{"type":"function","name":"BINDING_ROWS","inputs":[],"outputs":[{"name":"","type":"uint256","internalType":"uint256"}],"stateMutability":"view"},{"type":"function","name":"COMMIT_DELAY","inputs":[],"outputs":[{"name":"","type":"uint256","internalType":"uint256"}],"stateMutability":"view"},{"type":"function","name":"LBLO_N","inputs":[],"outputs":[{"name":"","type":"uint256","internalType":"uint256"}],"stateMutability":"view"},{"type":"function","name":"M_WEAK","inputs":[],"outputs":[{"name":"","type":"uint256","internalType":"uint256"}],"stateMutability":"view"},{"type":"function","name":"N_WEAK","inputs":[],"outputs":[{"name":"","type":"uint256","internalType":"uint256"}],"stateMutability":"view"},{"type":"function","name":"PUZZLE_DOMAIN","inputs":[],"outputs":[{"name":"","type":"bytes32","internalType":"bytes32"}],"stateMutability":"view"},{"type":"function","name":"PUZZLE_THRESHOLD_SQ","inputs":[],"outputs":[{"name":"","type":"uint256","internalType":"uint256"}],"stateMutability":"view"},{"type":"function","name":"Q","inputs":[],"outputs":[{"name":"","type":"uint256","internalType":"uint256"}],"stateMutability":"view"},{"type":"function","name":"Q_WEAK","inputs":[],"outputs":[{"name":"","type":"uint256","internalType":"uint256"}],"stateMutability":"view"},{"type":"function","name":"THRESHOLD","inputs":[],"outputs":[{"name":"","type":"uint256","internalType":"uint256"}],"stateMutability":"view"},{"type":"function","name":"check","inputs":[{"name":"","type":"bytes32","internalType":"bytes32"}],"outputs":[{"name":"","type":"bool","internalType":"bool"}],"stateMutability":"pure"},{"type":"function","name":"checkWithPuzzle","inputs":[{"name":"input","type":"bytes32","internalType":"bytes32"},{"name":"puzzleSolution","type":"int8[48]","internalType":"int8[48]"}],"outputs":[{"name":"","type":"bool","internalType":"bool"}],"stateMutability":"view"},{"type":"function","name":"circuitDataPointer","inputs":[],"outputs":[{"name":"","type":"address","internalType":"address"}],"stateMutability":"view"},{"type":"function","name":"circuitSeed","inputs":[],"outputs":[{"name":"","type":"bytes32","internalType":"bytes32"}],"stateMutability":"view"},{"type":"function","name":"commit","inputs":[{"name":"commitHash","type":"bytes32","internalType":"bytes32"}],"outputs":[],"stateMutability":"nonpayable"},{"type":"function","name":"commitDelay","inputs":[],"outputs":[{"name":"","type":"uint256","internalType":"uint256"}],"stateMutability":"pure"},{"type":"function","name":"encryptedGates","inputs":[],"outputs":[{"name":"","type":"uint256","internalType":"uint256"}],"stateMutability":"pure"},{"type":"function","name":"estimatedGas","inputs":[],"outputs":[{"name":"","type":"uint256","internalType":"uint256"}],"stateMutability":"pure"},{"type":"function","name":"expectedBindingOutput0","inputs":[],"outputs":[{"name":"","type":"uint256","internalType":"uint256"}],"stateMutability":"view"},{"type":"function","name":"expectedBindingOutput1","inputs":[],"outputs":[{"name":"","type":"uint256","internalType":"uint256"}],"stateMutability":"view"},{"type":"function","name":"expectedBindingOutput2","inputs":[],"outputs":[{"name":"","type":"uint256","internalType":"uint256"}],"stateMutability":"view"},{"type":"function","name":"expectedBindingOutput3","inputs":[],"outputs":[{"name":"","type":"uint256","internalType":"uint256"}],"stateMutability":"view"},{"type":"function","name":"expectedOutputHash","inputs":[],"outputs":[{"name":"","type":"bytes32","internalType":"bytes32"}],"stateMutability":"view"},{"type":"function","name":"getCommit","inputs":[{"name":"committer","type":"address","internalType":"address"}],"outputs":[{"name":"","type":"bytes32","internalType":"bytes32"},{"name":"","type":"uint256","internalType":"uint256"}],"stateMutability":"view"},{"type":"function","name":"getPuzzleSeed","inputs":[{"name":"x","type":"bytes32","internalType":"bytes32"}],"outputs":[{"name":"","type":"bytes32","internalType":"bytes32"}],"stateMutability":"pure"},{"type":"function","name":"isExpired","inputs":[],"outputs":[{"name":"","type":"bool","internalType":"bool"}],"stateMutability":"view"},{"type":"function","name":"numGates","inputs":[],"outputs":[{"name":"","type":"uint32","internalType":"uint32"}],"stateMutability":"view"},{"type":"function","name":"numWires","inputs":[],"outputs":[{"name":"","type":"uint8","internalType":"uint8"}],"stateMutability":"view"},{"type":"function","name":"owner","inputs":[],"outputs":[{"name":"","type":"address","internalType":"address"}],"stateMutability":"view"},{"type":"function","name":"reclaimExpired","inputs":[],"outputs":[],"stateMutability":"nonpayable"},{"type":"function","name":"reveal","inputs":[{"name":"","type":"bytes32","internalType":"bytes32"}],"outputs":[],"stateMutability":"pure"},{"type":"function","name":"revealWithPuzzle","inputs":[{"name":"input","type":"bytes32","internalType":"bytes32"},{"name":"puzzleSolution","type":"int8[48]","internalType":"int8[48]"}],"outputs":[],"stateMutability":"nonpayable"},{"type":"function","name":"reward","inputs":[],"outputs":[{"name":"","type":"uint256","internalType":"uint256"}],"stateMutability":"view"},{"type":"function","name":"scheme","inputs":[],"outputs":[{"name":"","type":"string","internalType":"string"}],"stateMutability":"pure"},{"type":"function","name":"secretExpiry","inputs":[],"outputs":[{"name":"","type":"uint256","internalType":"uint256"}],"stateMutability":"view"},{"type":"function","name":"timeRemaining","inputs":[],"outputs":[{"name":"","type":"uint256","internalType":"uint256"}],"stateMutability":"view"},{"type":"event","name":"Claimed","inputs":[{"name":"claimer","type":"address","indexed":true,"internalType":"address"},{"name":"commitHash","type":"bytes32","indexed":true,"internalType":"bytes32"},{"name":"reward","type":"uint256","indexed":false,"internalType":"uint256"}],"anonymous":false},{"type":"event","name":"Committed","inputs":[{"name":"committer","type":"address","indexed":true,"internalType":"address"},{"name":"commitHash","type":"bytes32","indexed":true,"internalType":"bytes32"},{"name":"blockNumber","type":"uint256","indexed":false,"internalType":"uint256"}],"anonymous":false},{"type":"event","name":"PuzzleSolved","inputs":[{"name":"solver","type":"address","indexed":true,"internalType":"address"},{"name":"inputHash","type":"bytes32","indexed":true,"internalType":"bytes32"},{"name":"normSq","type":"uint256","indexed":false,"internalType":"uint256"}],"anonymous":false}],"bytecode":{"object":"0x6101e06040819052611fea3881900390601f8201601f19168301906001600160401b038211848310176103365782916040528339810190610140818303126103315780516001600160a01b038116929091908383036103315760208201519360ff8516948581036103315760408401519063ffffffff821692838303610331576060860151936080870151958060bf890112156103315760405197608089016001600160401b0381118a82101761033657604052889061012081019283116103315760a001905b82821061032157505051988015159081610315575b50156102db57156102a4571561026d57428711156102285760609560805260a05260c05260e0526101005280516101405260208101516101605260408101516101805201516101a05261012052336101c05234600055604051611c9d908161034d82396080518181816108200152611485015260a051818181610bf80152818161145701528181611a430152611b7d015260c051818181610a4d01526114c3015260e051818181610293015261151a01526101005181818161051a01528181611a660152611b5b015261012051818181610343015281816103a0015281816104420152818161087f01528181610b5c0152610fe60152610140518181816102ce01526115e1015261016051818181610a8901526115b6015261018051818181610b20015261158801526101a051818181610a0d015261155e01526101c05181818161040f01526107bf0152f35b60405162461bcd60e51b815260206004820152601860248201527f457870697279206d75737420626520696e2066757475726500000000000000006044820152606490fd5b60405162461bcd60e51b815260206004820152600f60248201526e24b73b30b634b2103837b4b73a32b960891b6044820152606490fd5b60405162461bcd60e51b815260206004820152600f60248201526e4d757374206861766520676174657360881b6044820152606490fd5b60405162461bcd60e51b815260206004820152601260248201527115da5c995cc81b5d5cdd081899480c4b4d8d60721b6044820152606490fd5b604091501115386100db565b81518152602091820191016100c6565b600080fd5b634e487b7160e01b600052604160045260246000fdfe60806040526004361015610023575b361561001957600080fd5b610021611020565b005b60003560e01c8063026c41af146102595780630bd48e6014610254578063103117c71461024f5780631a69cad5146101d2578063228cb7331461024a5780632f13b60c14610245578063342746aa14610240578063363c058c1461023b578063399e0792146102365780633fe8e80f1461023157806342f370bc1461022c5780634bdbbf1c146102275780634d26bf291461022257806350857fb2146101eb578063701fd0f11461021d57806371cc826c14610218578063785ffb371461021357806381465e021461020e5780638518b0ad146102095780638696b8871461020457806386ce902f146101ff5780638da5cb5b146101fa578063933bd7c3146101f55780639e9d2938146101f05780639ffedd17146101eb578063aff35879146101e6578063cdb27ded146101e1578063d1b92e43146101dc578063d262512b146101d7578063d9d09c2f146101d2578063e3cfef60146101cd578063e493ef8c146101c8578063e798fbd8146101c3578063ed2cc90f146101be578063f14fcbc8146101b95763faaf4d9a0361000e57610bde565b610b43565b610b08565b610aec565b610acf565b610aac565b6102f1565b610a71565b610a30565b6109f5565b61084f565b61053d565b61080a565b6107ee565b6107a9565b61076e565b61070b565b610684565b610625565b610607565b6105ce565b610559565b610502565b6104e5565b6103fc565b6103df565b6103c3565b610388565b610369565b61032b565b61030d565b6102b6565b61027b565b346102765760003660031901126102765760206040516102008152f35b600080fd5b346102765760003660031901126102765760206040517f00000000000000000000000000000000000000000000000000000000000000008152f35b346102765760003660031901126102765760206040517f00000000000000000000000000000000000000000000000000000000000000008152f35b3461027657600036600319011261027657602060405160408152f35b34610276576000366003190112610276576020600054604051908152f35b346102765760003660031901126102765760206040517f00000000000000000000000000000000000000000000000000000000000000004210158152f35b346102765760003660031901126102765760206040516303473bc08152f35b346102765760003660031901126102765760206040517f00000000000000000000000000000000000000000000000000000000000000008152f35b3461027657602036600319011261027657602060405160008152f35b346102765760003660031901126102765760206040516102808152f35b34610276576000366003190112610276577f00000000000000000000000000000000000000000000000000000000000000006001600160a01b031633036104b3576104697f0000000000000000000000000000000000000000000000000000000000000000421015610c1c565b61048461047f61047b60015460ff1690565b1590565b610c5a565b610495600160ff1981541617600155565b61002160008080808054818055335af16104ad610cf1565b50610d31565b60405162461bcd60e51b815260206004820152600a60248201526927b7363c9037bbb732b960b11b6044820152606490fd5b346102765760003660031901126102765760206040516108008152f35b346102765760003660031901126102765760206040517f00000000000000000000000000000000000000000000000000000000000000008152f35b3461027657600036600319011261027657602060405160028152f35b346102765760203660031901126102765760405162461bcd60e51b815260206004820152601c60248201527f5573652072657665616c5769746850757a7a6c6520696e7374656164000000006044820152606490fd5b9061062060031983011261027657600435916106241161027657602490565b346102765760206105e76105e1366105af565b90610d6f565b6040519015158152f35b634e487b7160e01b600052601160045260246000fd5b34610276576000366003190112610276576020613ffc604051908152f35b34610276576020366003190112610276576020600435604051828101917f3044314c80c80e7c8cd87bf2b39878d9f6d019111b80738ef0160d9fd5a42e838352604082015260408152610679606082610ccf565b519020604051908152f35b346102765760003660031901126102765760408051906106a48183610ccf565b601082526f746c6f732d6c626c6f2d70757a7a6c6560801b6020830152805180926020825280519081602084015260005b8281106106f45750506000828201840152601f01601f19168101030190f35b6020828201810151878301870152869450016106d5565b34610276576020366003190112610276576004356001600160a01b038116908190036102765760005260026020526040600020602060405161074c81610cae565b8254808252600190930154910181905260408051928352602083019190915290f35b346102765760003660031901126102765760206040517f3044314c80c80e7c8cd87bf2b39878d9f6d019111b80738ef0160d9fd5a42e838152f35b34610276576000366003190112610276576040517f00000000000000000000000000000000000000000000000000000000000000006001600160a01b03168152602090f35b3461027657600036600319011261027657602060405160308152f35b34610276576000366003190112610276576040517f00000000000000000000000000000000000000000000000000000000000000006001600160a01b03168152602090f35b346102765761092961098061097a610866366105af565b939061087a61047f61047b60015460ff1690565b6108a57f00000000000000000000000000000000000000000000000000000000000000004210610db3565b336000908152600260205260409020610920906108c190610d95565b956108e66108de602089016108d881511515610df0565b51610e2e565b431015610e6a565b61091a604051602081019061090f8161090186893387610eb4565b03601f198101835282610ccf565b519020885114610f07565b8261115f565b91939093610f44565b604051602081019061094381610901868560209181520190565b5190206040519182529033907f7f7dd62a04c0085603d36be920ab49a8ec4081253ed09f7793ddc02125bee2c090602090a3611442565b50610f90565b610991600160ff1981541617600155565b3360009081526002602052604081208181556001015560005490600080556109c3600080808086335af16104ad610cf1565b516040519182529033907f9b01158d4bc10c112ba32b5240cda97e49e2eb86021f03f6a0f460342ac4dfda90602090a3005b346102765760003660031901126102765760206040517f00000000000000000000000000000000000000000000000000000000000000008152f35b3461027657600036600319011261027657602060405163ffffffff7f0000000000000000000000000000000000000000000000000000000000000000168152f35b346102765760003660031901126102765760206040517f00000000000000000000000000000000000000000000000000000000000000008152f35b34610276576000366003190112610276576020610ac7610fe4565b604051908152f35b3461027657600036600319011261027657602060405161fff18152f35b3461027657600036600319011261027657602060405160808152f35b346102765760003660031901126102765760206040517f00000000000000000000000000000000000000000000000000000000000000008152f35b3461027657602036600319011261027657600435610b827f00000000000000000000000000000000000000000000000000000000000000004210610db3565b604051610b8e81610cae565b818152600160208201438152336000526002602052604060002092518355519101556040514381527f550e735193e8f8bf0398f14bcadbbbf0329d5401f6786981e63f5b010662b00e60203392a3005b3461027657600036600319011261027657602060405160ff7f0000000000000000000000000000000000000000000000000000000000000000168152f35b15610c2357565b60405162461bcd60e51b815260206004820152600f60248201526e139bdd08195e1c1a5c9959081e595d608a1b6044820152606490fd5b15610c6157565b60405162461bcd60e51b815260206004820152600f60248201526e105b1c9958591e4818db185a5b5959608a1b6044820152606490fd5b634e487b7160e01b600052604160045260246000fd5b6040810190811067ffffffffffffffff821117610cca57604052565b610c98565b90601f8019910116810190811067ffffffffffffffff821117610cca57604052565b3d15610d2c573d9067ffffffffffffffff8211610cca5760405191610d20601f8201601f191660200184610ccf565b82523d6000602084013e565b606090565b15610d3857565b60405162461bcd60e51b815260206004820152600f60248201526e151c985b9cd9995c8819985a5b1959608a1b6044820152606490fd5b90610d7a908261115f565b509015610d8e57610d8a91611442565b5090565b5050600090565b90604051610da281610cae565b602060018294805484520154910152565b15610dba57565b60405162461bcd60e51b815260206004820152600e60248201526d14d958dc995d08195e1c1a5c995960921b6044820152606490fd5b15610df757565b60405162461bcd60e51b815260206004820152600f60248201526e139bc818dbdb5b5a5d08199bdd5b99608a1b6044820152606490fd5b9060028201809211610e3c57565b6105f1565b9060108201809211610e3c57565b9060808201809211610e3c57565b91908201809211610e3c57565b15610e7157565b60405162461bcd60e51b815260206004820152601060248201526f52657665616c20746f6f206561726c7960801b6044820152606490fd5b8060000b0361027657565b6001600160a01b039091168152602081019190915261064081019291906000906040015b60308210610ee557505050565b6020806001928535610ef681610ea9565b60000b815201930191019091610ed8565b15610f0e57565b60405162461bcd60e51b815260206004820152600e60248201526d125b9d985b1a59081c995d99585b60921b6044820152606490fd5b15610f4b57565b60405162461bcd60e51b815260206004820152601760248201527f496e76616c69642070757a7a6c6520736f6c7574696f6e0000000000000000006044820152606490fd5b15610f9757565b60405162461bcd60e51b8152602060048201526016602482015275125b9d985b1a590818da5c98dd5a5d081bdd5d1c1d5d60521b6044820152606490fd5b600019810191908211610e3c57565b7f00000000000000000000000000000000000000000000000000000000000000008042101561101a57428103908111610e3c5790565b50600090565b600054348101809111610e3c57600055565b9060308110156110435760051b0190565b634e487b7160e01b600052603260045260246000fd5b3561106381610ea9565b90565b6000198114610e3c5760010190565b908160041b9180830460101490151715610e3c57565b818102929160008212600160ff1b821416610e3c578184051490151715610e3c57565b90610800820191600061080084129112908015821691151617610e3c57565b91909160008382019384129112908015821691151617610e3c57565b906107ff198201918213600116610e3c57565b81810392916000138015828513169184121617610e3c57565b600160ff1b8114610e3c5760000390565b906000825b6030821061113d575050506106000190565b602080600192853561114e81610ea9565b60000b81520193019101909161112b565b909160009160005b603081106113cc57506040516111af816109016020820194856040917f3044314c80c80e7c8cd87bf2b39878d9f6d019111b80738ef0160d9fd5a42e83825260208201520190565b519020906000916000906104005b604083106111f457505050610200821093846111d65750565b9092506040516111ee81610901602082019485611126565b51902091565b9091936040516020810190611225816109018988869091604392825262726f7760e81b602083015260238201520190565b51902060009081905b603082106112d55750506001916112a86112916112896112ae94611283896109016112798e60405192839160208301958690916041928252603160f91b602083015260218201520190565b5190206107ff1690565b906110fc565b610800900790565b858113156112b7576112a2906110e9565b8061108b565b90610e5d565b940191906111bd565b6112c086611115565b8112156112a2576112d0906110ae565b6112a2565b969293916112e7829a97969260041c90565b6040516113088161090160208201948d869091604092825260208201520190565b519020986000915b60108310838d826113b6575b50501561139b5761138f611395916113898e6113808f8e6113758a61136f61136861136161135b61137b9761135086611075565b1b61ffff60f01b1690565b60f01c90565b61ffff1690565b6107ff1690565b95610e5d565b90611032565b611059565b60000b9061108b565b906110cd565b92611066565b91611310565b939594989296979a9099506113b09150610e41565b9061122e565b60309250906113c491610e5d565b10838d61131c565b6000196113dc61137b8388611032565b60000b128015611403575b6113f357600101611167565b5050915050600090600090600090565b50600161141361137b8388611032565b60000b136113e7565b60405190608061142c8184610ccf565b368337565b6040519061010061142c8184610ccf565b61144a61141c565b506114af61147d600160ff7f0000000000000000000000000000000000000000000000000000000000000000161b610fd5565b8216926114a97f0000000000000000000000000000000000000000000000000000000000000000611832565b92611862565b906114b983611a35565b9160009161bff4917f000000000000000000000000000000000000000000000000000000000000000063ffffffff1691613ffc5b8386106116085750505050505080916040516115158161090160208201948560209181520190565b5190207f00000000000000000000000000000000000000000000000000000000000000001490816115dd575b816115af575b81611581575b81611556575091565b6060019050517f00000000000000000000000000000000000000000000000000000000000000001491565b60408101517f000000000000000000000000000000000000000000000000000000000000000014915061154d565b60208101517f0000000000000000000000000000000000000000000000000000000000000000149150611547565b80517f0000000000000000000000000000000000000000000000000000000000000000149150611541565b90919293949561161787610e4f565b9085821161182a575b602061040b8902850101602061040b84028601015b80821061167d575050611673918961166d9261166581516116568360200190565b51186040830151189160600190565b511818611b4e565b96610e4f565b94939291906114ed565b90998a5190610102603f8360f81c1692600183603f600282828660e81c161c841b169360f01c161c1617028c01600090815b600881106116f0575061fff18061040b95949381610103600195015160f01c910690030106888d82109111168183851c1618831b921b1916179a0190611635565b916001908360051b60038185010151908d015161ffff811661ffff8316029261ffff8260101c1661ffff8460101c16029261ffff8360201c1661ffff8260201c16029261ffff8160301c1661ffff8360301c16029261ffff8260401c1661ffff8460401c16029261ffff8360501c1661ffff8260501c16029261ffff8160601c1661ffff8360601c16029261ffff8260701c1661ffff8460701c16029261ffff8360801c1661ffff8260801c16029261ffff8160901c1661ffff8360901c16029261ffff8260a01c1661ffff8460a01c16029261ffff8360b01c1661ffff8260b01c16029261ffff8160c01c1661ffff8360c01c16029261ffff8260d01c1661ffff8460d01c16029261ffff8360e01c1661ffff8260e01c16029260f01c9060f01c020101010101010101010101010101010192016116af565b859150611620565b803b90600019820190828211610e3c5760019060405193603e601f19910116840160405282845260208401903c90565b919091610901611890611873611431565b946040519283916020830195869091604092825260208201520190565b51902061189b611431565b9060405160208101906118bd8161090185856040918152600060208201520190565b519020825260405160208101906118e38161090185856040918152600160208201520190565b5190206020830152604051602081019061190c8161090185856040918152600260208201520190565b519020604083015260405160208101906119358161090185856040918152600360208201520190565b5190206060830152604051602081019061195e8161090185856040918152600460208201520190565b519020608083015260405160208101906119878161090185856040918152600560208201520190565b51902060a083015260405160208101906119b08161090185856040918152600660208201520190565b51902060c08301526040516119d8816109016020820194856040918152600760208201520190565b51902060e082015260005b600881106119ef575050565b8060051b808301519060009182905b60108210611a135750508501526001016119e3565b909260019084600f0360041b61fff161ffff85831c1606901b179301906119fe565b90611a3e61141c565b9160ff7f000000000000000000000000000000000000000000000000000000000000000016907f00000000000000000000000000000000000000000000000000000000000000009060005b60408110611a975750505050565b604051838152602081016000815282604083015260608220906000928391845b898410611ae957505050505090600191601f1982841b1688019061ffff8251911660f08460041b161b17905201611a89565b848352808252604083206000905b8b86106010831016611b0d575050600101611ab7565b909460018a821c16611b27575b6001809101950190611af7565b9661fff161ffff838860041b1c1606019661fff18810611b1a5761fff01990970196611b1a565b9190611b5861141c565b927f0000000000000000000000000000000000000000000000000000000000000000907f000000000000000000000000000000000000000000000000000000000000000060ff1660005b60408110611bb1575050505050565b6040518481526020810186815282604083015260608220906000928391845b878410611c0257505050505090600191601f1982841b1689019061ffff8251911660f08460041b161b17905201611ba2565b848352808252604083206000905b8986106010831016611c26575050600101611bd0565b909460018b821c16611c40575b6001809101950190611c10565b9661fff161ffff838860041b1c1606019661fff18810611c335761fff01990970196611c3356fea2646970667358221220ccb1188df118df53491c6489015398e1a7a9e2fd85491f2ec4bc495af587a42f64736f6c634300081f0033","linkReferences":{}},"methodIdentifiers":{"BINDING_ROWS()":"1a69cad5","COMMIT_DELAY()":"50857fb2","LBLO_N()":"e798fbd8","M_WEAK()":"d9d09c2f","N_WEAK()":"933bd7c3","PUZZLE_DOMAIN()":"86ce902f","PUZZLE_THRESHOLD_SQ()":"026c41af","Q()":"e493ef8c","Q_WEAK()":"4bdbbf1c","THRESHOLD()":"785ffb37","check(bytes32)":"399e0792","checkWithPuzzle(bytes32,int8[48])":"71cc826c","circuitDataPointer()":"9e9d2938","circuitSeed()":"4d26bf29","commit(bytes32)":"f14fcbc8","commitDelay()":"9ffedd17","encryptedGates()":"3fe8e80f","estimatedGas()":"342746aa","expectedBindingOutput0()":"103117c7","expectedBindingOutput1()":"d262512b","expectedBindingOutput2()":"ed2cc90f","expectedBindingOutput3()":"cdb27ded","expectedOutputHash()":"0bd48e60","getCommit(address)":"8696b887","getPuzzleSeed(bytes32)":"81465e02","isExpired()":"2f13b60c","numGates()":"d1b92e43","numWires()":"faaf4d9a","owner()":"8da5cb5b","reclaimExpired()":"42f370bc","reveal(bytes32)":"701fd0f1","revealWithPuzzle(bytes32,int8[48])":"aff35879","reward()":"228cb733","scheme()":"8518b0ad","secretExpiry()":"363c058c","timeRemaining()":"e3cfef60"},"id":3}