{"abi":[{"type":"constructor","inputs":[{"name":"_circuitDataPointer","type":"address","internalType":"address"},{"name":"_numWires","type":"uint8","internalType":"uint8"},{"name":"_numGates","type":"uint32","internalType":"uint32"},{"name":"_expectedOutputHash","type":"bytes32","internalType":"bytes32"},{"name":"_circuitSeed","type":"bytes32","internalType":"bytes32"},{"name":"_expectedBindingOutput","type":"uint256[4]","internalType":"uint256[4]"},{"name":"_secretExpiry","type":"uint256","internalType":"uint256"},{"name":"_puzzleSeed","type":"bytes32","internalType":"bytes32"},{"name":"_puzzleBPointer","type":"address","internalType":"address"}],"stateMutability":"payable"},{"type":"receive","stateMutability":"payable"},{"type":"function","name":"BINDING_ROWS","inputs":[],"outputs":[{"name":"","type":"uint256","internalType":"uint256"}],"stateMutability":"view"},{"type":"function","name":"COMMIT_DELAY","inputs":[],"outputs":[{"name":"","type":"uint256","internalType":"uint256"}],"stateMutability":"view"},{"type":"function","name":"LBLO_N","inputs":[],"outputs":[{"name":"","type":"uint256","internalType":"uint256"}],"stateMutability":"view"},{"type":"function","name":"M_WEAK","inputs":[],"outputs":[{"name":"","type":"uint256","internalType":"uint256"}],"stateMutability":"view"},{"type":"function","name":"N_WEAK","inputs":[],"outputs":[{"name":"","type":"uint256","internalType":"uint256"}],"stateMutability":"view"},{"type":"function","name":"PUZZLE_THRESHOLD_SQ","inputs":[],"outputs":[{"name":"","type":"uint256","internalType":"uint256"}],"stateMutability":"view"},{"type":"function","name":"Q","inputs":[],"outputs":[{"name":"","type":"uint256","internalType":"uint256"}],"stateMutability":"view"},{"type":"function","name":"Q_WEAK","inputs":[],"outputs":[{"name":"","type":"uint256","internalType":"uint256"}],"stateMutability":"view"},{"type":"function","name":"THRESHOLD","inputs":[],"outputs":[{"name":"","type":"uint256","internalType":"uint256"}],"stateMutability":"view"},{"type":"function","name":"check","inputs":[{"name":"","type":"bytes32","internalType":"bytes32"}],"outputs":[{"name":"","type":"bool","internalType":"bool"}],"stateMutability":"pure"},{"type":"function","name":"checkWithPuzzle","inputs":[{"name":"input","type":"bytes32","internalType":"bytes32"},{"name":"puzzleSolution","type":"int8[48]","internalType":"int8[48]"}],"outputs":[{"name":"","type":"bool","internalType":"bool"}],"stateMutability":"view"},{"type":"function","name":"circuitDataPointer","inputs":[],"outputs":[{"name":"","type":"address","internalType":"address"}],"stateMutability":"view"},{"type":"function","name":"circuitSeed","inputs":[],"outputs":[{"name":"","type":"bytes32","internalType":"bytes32"}],"stateMutability":"view"},{"type":"function","name":"commit","inputs":[{"name":"commitHash","type":"bytes32","internalType":"bytes32"}],"outputs":[],"stateMutability":"nonpayable"},{"type":"function","name":"commitDelay","inputs":[],"outputs":[{"name":"","type":"uint256","internalType":"uint256"}],"stateMutability":"pure"},{"type":"function","name":"encryptedGates","inputs":[],"outputs":[{"name":"","type":"uint256","internalType":"uint256"}],"stateMutability":"pure"},{"type":"function","name":"estimatedGas","inputs":[],"outputs":[{"name":"","type":"uint256","internalType":"uint256"}],"stateMutability":"pure"},{"type":"function","name":"expectedBindingOutput0","inputs":[],"outputs":[{"name":"","type":"uint256","internalType":"uint256"}],"stateMutability":"view"},{"type":"function","name":"expectedBindingOutput1","inputs":[],"outputs":[{"name":"","type":"uint256","internalType":"uint256"}],"stateMutability":"view"},{"type":"function","name":"expectedBindingOutput2","inputs":[],"outputs":[{"name":"","type":"uint256","internalType":"uint256"}],"stateMutability":"view"},{"type":"function","name":"expectedBindingOutput3","inputs":[],"outputs":[{"name":"","type":"uint256","internalType":"uint256"}],"stateMutability":"view"},{"type":"function","name":"expectedOutputHash","inputs":[],"outputs":[{"name":"","type":"bytes32","internalType":"bytes32"}],"stateMutability":"view"},{"type":"function","name":"getCommit","inputs":[{"name":"committer","type":"address","internalType":"address"}],"outputs":[{"name":"","type":"bytes32","internalType":"bytes32"},{"name":"","type":"uint256","internalType":"uint256"}],"stateMutability":"view"},{"type":"function","name":"isExpired","inputs":[],"outputs":[{"name":"","type":"bool","internalType":"bool"}],"stateMutability":"view"},{"type":"function","name":"numGates","inputs":[],"outputs":[{"name":"","type":"uint32","internalType":"uint32"}],"stateMutability":"view"},{"type":"function","name":"numWires","inputs":[],"outputs":[{"name":"","type":"uint8","internalType":"uint8"}],"stateMutability":"view"},{"type":"function","name":"owner","inputs":[],"outputs":[{"name":"","type":"address","internalType":"address"}],"stateMutability":"view"},{"type":"function","name":"puzzleBPointer","inputs":[],"outputs":[{"name":"","type":"address","internalType":"address"}],"stateMutability":"view"},{"type":"function","name":"puzzleSeed","inputs":[],"outputs":[{"name":"","type":"bytes32","internalType":"bytes32"}],"stateMutability":"view"},{"type":"function","name":"reclaimExpired","inputs":[],"outputs":[],"stateMutability":"nonpayable"},{"type":"function","name":"reveal","inputs":[{"name":"","type":"bytes32","internalType":"bytes32"}],"outputs":[],"stateMutability":"pure"},{"type":"function","name":"revealWithPuzzle","inputs":[{"name":"input","type":"bytes32","internalType":"bytes32"},{"name":"puzzleSolution","type":"int8[48]","internalType":"int8[48]"}],"outputs":[],"stateMutability":"nonpayable"},{"type":"function","name":"reward","inputs":[],"outputs":[{"name":"","type":"uint256","internalType":"uint256"}],"stateMutability":"view"},{"type":"function","name":"scheme","inputs":[],"outputs":[{"name":"","type":"string","internalType":"string"}],"stateMutability":"pure"},{"type":"function","name":"secretExpiry","inputs":[],"outputs":[{"name":"","type":"uint256","internalType":"uint256"}],"stateMutability":"view"},{"type":"function","name":"timeRemaining","inputs":[],"outputs":[{"name":"","type":"uint256","internalType":"uint256"}],"stateMutability":"view"},{"type":"event","name":"Claimed","inputs":[{"name":"claimer","type":"address","indexed":true,"internalType":"address"},{"name":"commitHash","type":"bytes32","indexed":true,"internalType":"bytes32"},{"name":"reward","type":"uint256","indexed":false,"internalType":"uint256"}],"anonymous":false},{"type":"event","name":"Committed","inputs":[{"name":"committer","type":"address","indexed":true,"internalType":"address"},{"name":"commitHash","type":"bytes32","indexed":true,"internalType":"bytes32"},{"name":"blockNumber","type":"uint256","indexed":false,"internalType":"uint256"}],"anonymous":false},{"type":"event","name":"PuzzleSolved","inputs":[{"name":"solver","type":"address","indexed":true,"internalType":"address"},{"name":"solutionHash","type":"bytes32","indexed":true,"internalType":"bytes32"},{"name":"normSq","type":"uint256","indexed":false,"internalType":"uint256"}],"anonymous":false}],"bytecode":{"object":"0x6102206040819052611e5a3881900390601f8201601f19168301906001600160401b038211848310176103d25782916040528339810190610180818303126103cd5761004a816103e8565b60208201519060ff8216938483036103cd5760408401519263ffffffff8416938481036103cd576060860151906080870151928460bf890112156103cd5760405194608086016001600160401b038111878210176103d257604052856101208a019182116103cd5760a08a01905b8282106103bd57505051966100d66101606101408b01519a016103e8565b9980151590816103b1575b50156103775715610340576001600160a01b038616156102fb576001600160a01b038916156102b657428711156102715760609560805260a05260c05260e0526101005280516101405260208101516101605260408101516101805201516101a052610120526101c0526101e052336102005234600055604051611a5d90816103fd823960805181818161080b0152611389015260a051818181610be10152818161135b01528181611803015261193d015260c051818181610a1901526113c7015260e051818181610298015261141e01526101005181818161056301528181611826015261191b01526101205181818161038d015281816103e90152818161048b0152818161086a01528181610b450152610fb30152610140518181816102d301526114e5015261016051818181610a5501526114ba015261018051818181610b09015261148c01526101a0518181816109d9015261146201526101c05181818161059e015261110e01526101e05181818161030c01526110d901526102005181818161045801526107aa0152f35b60405162461bcd60e51b815260206004820152601860248201527f457870697279206d75737420626520696e2066757475726500000000000000006044820152606490fd5b60405162461bcd60e51b815260206004820152601660248201527f496e76616c69642070757a7a6c6520706f696e746572000000000000000000006044820152606490fd5b60405162461bcd60e51b815260206004820152601760248201527f496e76616c6964206369726375697420706f696e7465720000000000000000006044820152606490fd5b60405162461bcd60e51b815260206004820152600f60248201526e4d757374206861766520676174657360881b6044820152606490fd5b60405162461bcd60e51b815260206004820152601260248201527115da5c995cc81b5d5cdd081899480c4b4d8d60721b6044820152606490fd5b604091501115386100e1565b81518152602091820191016100b8565b600080fd5b634e487b7160e01b600052604160045260246000fd5b51906001600160a01b03821682036103cd5756fe60806040526004361015610023575b361561001957600080fd5b610021610fed565b005b60003560e01c8063026c41af1461025e5780630bd48e6014610259578063103117c71461025457806313cb74af1461024f5780631a69cad51461024a578063228cb733146102455780632f13b60c14610240578063342746aa1461023b578063363c058c14610236578063399e0792146102315780633fe8e80f1461022c57806342f370bc146102275780634bdbbf1c146102225780634d26bf291461021d5780634fad71881461021857806350857fb2146101eb578063701fd0f11461021357806371cc826c1461020e578063785ffb37146102095780638518b0ad146102045780638696b887146101ff5780638da5cb5b146101fa578063933bd7c3146101f55780639e9d2938146101f05780639ffedd17146101eb578063aff35879146101e6578063cdb27ded146101e1578063d1b92e43146101dc578063d262512b146101d7578063d9d09c2f146101d2578063e3cfef60146101cd578063e493ef8c146101c8578063e798fbd8146101c3578063ed2cc90f146101be578063f14fcbc8146101b95763faaf4d9a0361000e57610bc7565b610b2c565b610af1565b610ad4565b610ab7565b610a94565b610a78565b610a3d565b6109fc565b6109c1565b61083a565b6105c1565b6107f5565b6107d9565b610794565b610731565b6106a9565b61068b565b610652565b6105dd565b610586565b61054b565b61052e565b610445565b610428565b61040c565b6103d1565b6103b3565b610375565b610357565b61033b565b6102f6565b6102bb565b610280565b3461027b57600036600319011261027b57602060405161012c8152f35b600080fd5b3461027b57600036600319011261027b5760206040517f00000000000000000000000000000000000000000000000000000000000000008152f35b3461027b57600036600319011261027b5760206040517f00000000000000000000000000000000000000000000000000000000000000008152f35b3461027b57600036600319011261027b576040517f00000000000000000000000000000000000000000000000000000000000000006001600160a01b03168152602090f35b3461027b57600036600319011261027b57602060405160408152f35b3461027b57600036600319011261027b576020600054604051908152f35b3461027b57600036600319011261027b5760206040517f00000000000000000000000000000000000000000000000000000000000000004210158152f35b3461027b57600036600319011261027b576020604051628954408152f35b3461027b57600036600319011261027b5760206040517f00000000000000000000000000000000000000000000000000000000000000008152f35b3461027b57602036600319011261027b57602060405160008152f35b3461027b57600036600319011261027b5760206040516102808152f35b3461027b57600036600319011261027b577f00000000000000000000000000000000000000000000000000000000000000006001600160a01b031633036104fc576104b27f0000000000000000000000000000000000000000000000000000000000000000421015610c05565b6104cd6104c86104c460015460ff1690565b1590565b610c43565b6104de600160ff1981541617600155565b61002160008080808054818055335af16104f6610cda565b50610d1a565b60405162461bcd60e51b815260206004820152600a60248201526927b7363c9037bbb732b960b11b6044820152606490fd5b3461027b57600036600319011261027b5760206040516107f78152f35b3461027b57600036600319011261027b5760206040517f00000000000000000000000000000000000000000000000000000000000000008152f35b3461027b57600036600319011261027b5760206040517f00000000000000000000000000000000000000000000000000000000000000008152f35b3461027b57600036600319011261027b57602060405160028152f35b3461027b57602036600319011261027b5760405162461bcd60e51b815260206004820152601c60248201527f5573652072657665616c5769746850757a7a6c6520696e7374656164000000006044820152606490fd5b9061062060031983011261027b57600435916106241161027b57602490565b3461027b57602061066b61066536610633565b90610d58565b6040519015158152f35b634e487b7160e01b600052601160045260246000fd5b3461027b57600036600319011261027b576020613ffc604051908152f35b3461027b57600036600319011261027b5760408051906106c98183610cb8565b60118252701d1b1bdccb5b1dd94b5c1d5e9e9b19558d607a1b6020830152805180926020825280519081602084015260005b82811061071a5750506000828201840152601f01601f19168101030190f35b6020828201810151878301870152869450016106fb565b3461027b57602036600319011261027b576004356001600160a01b0381169081900361027b5760005260026020526040600020602060405161077281610c97565b8254808252600190930154910181905260408051928352602083019190915290f35b3461027b57600036600319011261027b576040517f00000000000000000000000000000000000000000000000000000000000000006001600160a01b03168152602090f35b3461027b57600036600319011261027b57602060405160308152f35b3461027b57600036600319011261027b576040517f00000000000000000000000000000000000000000000000000000000000000006001600160a01b03168152602090f35b3461027b5761091361094c61094661085136610633565b93906108656104c86104c460015460ff1690565b6108907f00000000000000000000000000000000000000000000000000000000000000004210610d9b565b33600090815260026020526040902061090a906108ac90610d7d565b956108d16108c9602089016108c381511515610dd8565b51610e16565b431015610e37565b61090560405160208101906108fa816108ec86893387610e81565b03601f198101835282610cb8565b519020885114610ed4565b6110c4565b90938492610f11565b60405190815233907f7f7dd62a04c0085603d36be920ab49a8ec4081253ed09f7793ddc02125bee2c090602090a3611346565b50610f5d565b61095d600160ff1981541617600155565b33600090815260026020526040812081815560010155600054906000805561098f600080808086335af16104f6610cda565b516040519182529033907f9b01158d4bc10c112ba32b5240cda97e49e2eb86021f03f6a0f460342ac4dfda90602090a3005b3461027b57600036600319011261027b5760206040517f00000000000000000000000000000000000000000000000000000000000000008152f35b3461027b57600036600319011261027b57602060405163ffffffff7f0000000000000000000000000000000000000000000000000000000000000000168152f35b3461027b57600036600319011261027b5760206040517f00000000000000000000000000000000000000000000000000000000000000008152f35b3461027b57600036600319011261027b57602060405160488152f35b3461027b57600036600319011261027b576020610aaf610fb1565b604051908152f35b3461027b57600036600319011261027b57602060405161fff18152f35b3461027b57600036600319011261027b5760206040516101808152f35b3461027b57600036600319011261027b5760206040517f00000000000000000000000000000000000000000000000000000000000000008152f35b3461027b57602036600319011261027b57600435610b6b7f00000000000000000000000000000000000000000000000000000000000000004210610d9b565b604051610b7781610c97565b818152600160208201438152336000526002602052604060002092518355519101556040514381527f550e735193e8f8bf0398f14bcadbbbf0329d5401f6786981e63f5b010662b00e60203392a3005b3461027b57600036600319011261027b57602060405160ff7f0000000000000000000000000000000000000000000000000000000000000000168152f35b15610c0c57565b60405162461bcd60e51b815260206004820152600f60248201526e139bdd08195e1c1a5c9959081e595d608a1b6044820152606490fd5b15610c4a57565b60405162461bcd60e51b815260206004820152600f60248201526e105b1c9958591e4818db185a5b5959608a1b6044820152606490fd5b634e487b7160e01b600052604160045260246000fd5b6040810190811067ffffffffffffffff821117610cb357604052565b610c81565b90601f8019910116810190811067ffffffffffffffff821117610cb357604052565b3d15610d15573d9067ffffffffffffffff8211610cb35760405191610d09601f8201601f191660200184610cb8565b82523d6000602084013e565b606090565b15610d2157565b60405162461bcd60e51b815260206004820152600f60248201526e151c985b9cd9995c8819985a5b1959608a1b6044820152606490fd5b90610d62906110c4565b509015610d7657610d7291611346565b5090565b5050600090565b90604051610d8a81610c97565b602060018294805484520154910152565b15610da257565b60405162461bcd60e51b815260206004820152600e60248201526d14d958dc995d08195e1c1a5c995960921b6044820152606490fd5b15610ddf57565b60405162461bcd60e51b815260206004820152600f60248201526e139bc818dbdb5b5a5d08199bdd5b99608a1b6044820152606490fd5b9060028201809211610e2457565b610675565b9060808201809211610e2457565b15610e3e57565b60405162461bcd60e51b815260206004820152601060248201526f52657665616c20746f6f206561726c7960801b6044820152606490fd5b8060000b0361027b57565b6001600160a01b039091168152602081019190915261064081019291906000906040015b60308210610eb257505050565b6020806001928535610ec381610e76565b60000b815201930191019091610ea5565b15610edb57565b60405162461bcd60e51b815260206004820152600e60248201526d125b9d985b1a59081c995d99585b60921b6044820152606490fd5b15610f1857565b60405162461bcd60e51b815260206004820152601760248201527f496e76616c69642070757a7a6c6520736f6c7574696f6e0000000000000000006044820152606490fd5b15610f6457565b60405162461bcd60e51b8152602060048201526016602482015275125b9d985b1a590818da5c98dd5a5d081bdd5d1c1d5d60521b6044820152606490fd5b600019810191908211610e2457565b7f000000000000000000000000000000000000000000000000000000000000000080421015610fe757428103908111610e245790565b50600090565b600054348101809111610e2457600055565b634e487b7160e01b600052603260045260246000fd5b9060308110156110265760051b0190565b610fff565b3561103581610e76565b90565b1561103f57565b60405162461bcd60e51b8152602060048201526013602482015272496e76616c69642070757a7a6c65206461746160681b6044820152606490fd5b908151811015611026570160200190565b906000825b603082106110a2575050506106000190565b60208060019285356110b381610e76565b60000b815201930191019091611090565b9060009060005b603081106112d457506110fd7f0000000000000000000000000000000000000000000000000000000000000000611736565b9061110c609083511015611038565b7f0000000000000000000000000000000000000000000000000000000000000000916000926000916103fb905b60488410611171575050505061012c821093846111535750565b90925060405161116b816108ec60208201948561108b565b51902091565b909192946040516020810190611197816108ec8a89869091604092825260208201520190565b5190208287600092835b6003811061123b5750509161120c916112016111ed6111e76111d960016111f96111f36111ed6111e76111d9859e9d861b809b61107a565b516001600160f81b03191690565b60f81c90565b60ff1690565b60081b90565b95018a61107a565b1790036107f7900790565b84811315611227576107f619015b8002019501929190611139565b8460000381121561121a576107f70161121a565b915091506040516020810190611261816108ec8587869091604092825260208201520190565b5190206000905b6010821061127f575b5050600101849189916111a1565b90938c858460041b0160308110156112cc57906112bf6112ba600194936112b461ffff888c600f0360041b1c166107f7900790565b93611015565b61102b565b60000b0201940190611268565b505093611271565b6000196112e46112ba8387611015565b60000b128015611307575b6112fb576001016110cb565b50600092508291508190565b5060016113176112ba8387611015565b60000b136112ef565b6040519060806113308184610cb8565b368337565b604051906103006113308184610cb8565b61134e611320565b506113b3611381600160ff7f0000000000000000000000000000000000000000000000000000000000000000161b610fa2565b8216926113ad7f0000000000000000000000000000000000000000000000000000000000000000611736565b92611766565b906113bd836117f5565b9160009161bff4917f000000000000000000000000000000000000000000000000000000000000000063ffffffff1691613ffc5b83861061150c575050505050508091604051611419816108ec60208201948560209181520190565b5190207f00000000000000000000000000000000000000000000000000000000000000001490816114e1575b816114b3575b81611485575b8161145a575091565b6060019050517f00000000000000000000000000000000000000000000000000000000000000001491565b60408101517f0000000000000000000000000000000000000000000000000000000000000000149150611451565b60208101517f000000000000000000000000000000000000000000000000000000000000000014915061144b565b80517f0000000000000000000000000000000000000000000000000000000000000000149150611445565b90919293949561151b87610e29565b9085821161172e575b6020610c0b89028501016020610c0b84028601015b808210611581575050611577918961157192611569815161155a8360200190565b51186040830151189160600190565b51181861190e565b96610e29565b94939291906113f1565b90998a5190610302603f8360f81c1692600183603f600282828660e81c161c841b169360f01c161c1617028c01600090815b601881106115f4575061fff180610c0b95949381610303600195015160f01c910690030106888d82109111168183851c1618831b921b1916179a0190611539565b916001908360051b60038185010151908d015161ffff811661ffff8316029261ffff8260101c1661ffff8460101c16029261ffff8360201c1661ffff8260201c16029261ffff8160301c1661ffff8360301c16029261ffff8260401c1661ffff8460401c16029261ffff8360501c1661ffff8260501c16029261ffff8160601c1661ffff8360601c16029261ffff8260701c1661ffff8460701c16029261ffff8360801c1661ffff8260801c16029261ffff8160901c1661ffff8360901c16029261ffff8260a01c1661ffff8460a01c16029261ffff8360b01c1661ffff8260b01c16029261ffff8160c01c1661ffff8360c01c16029261ffff8260d01c1661ffff8460d01c16029261ffff8360e01c1661ffff8260e01c16029260f01c9060f01c020101010101010101010101010101010192016115b3565b859150611524565b803b90600019820190828211610e245760019060405193603e601f19910116840160405282845260208401903c90565b9190916108ec611794611777611335565b946040519283916020830195869091604092825260208201520190565b51902060005b601881106117a6575050565b8160005280602052604060002060009081905b601082106117d3575050600582901b85015260010161179a565b909160019083600f0360041b61fff161ffff85831c1606901b179201906117b9565b906117fe611320565b9160ff7f000000000000000000000000000000000000000000000000000000000000000016907f00000000000000000000000000000000000000000000000000000000000000009060005b604081106118575750505050565b604051838152602081016000815282604083015260608220906000928391845b8984106118a957505050505090600191601f1982841b1688019061ffff8251911660f08460041b161b17905201611849565b848352808252604083206000905b8b861060108310166118cd575050600101611877565b909460018a821c166118e7575b60018091019501906118b7565b9661fff161ffff838860041b1c1606019661fff188106118da5761fff019909701966118da565b9190611918611320565b927f0000000000000000000000000000000000000000000000000000000000000000907f000000000000000000000000000000000000000000000000000000000000000060ff1660005b60408110611971575050505050565b6040518481526020810186815282604083015260608220906000928391845b8784106119c257505050505090600191601f1982841b1689019061ffff8251911660f08460041b161b17905201611962565b848352808252604083206000905b89861060108310166119e6575050600101611990565b909460018b821c16611a00575b60018091019501906119d0565b9661fff161ffff838860041b1c1606019661fff188106119f35761fff019909701966119f356fea26469706673582212200194a2c4284213f8919a1f661e364cecdc5ba93532b38056e44b794403f4558264736f6c634300081f0033","linkReferences":{}},"methodIdentifiers":{"BINDING_ROWS()":"1a69cad5","COMMIT_DELAY()":"50857fb2","LBLO_N()":"e798fbd8","M_WEAK()":"d9d09c2f","N_WEAK()":"933bd7c3","PUZZLE_THRESHOLD_SQ()":"026c41af","Q()":"e493ef8c","Q_WEAK()":"4bdbbf1c","THRESHOLD()":"785ffb37","check(bytes32)":"399e0792","checkWithPuzzle(bytes32,int8[48])":"71cc826c","circuitDataPointer()":"9e9d2938","circuitSeed()":"4d26bf29","commit(bytes32)":"f14fcbc8","commitDelay()":"9ffedd17","encryptedGates()":"3fe8e80f","estimatedGas()":"342746aa","expectedBindingOutput0()":"103117c7","expectedBindingOutput1()":"d262512b","expectedBindingOutput2()":"ed2cc90f","expectedBindingOutput3()":"cdb27ded","expectedOutputHash()":"0bd48e60","getCommit(address)":"8696b887","isExpired()":"2f13b60c","numGates()":"d1b92e43","numWires()":"faaf4d9a","owner()":"8da5cb5b","puzzleBPointer()":"13cb74af","puzzleSeed()":"4fad7188","reclaimExpired()":"42f370bc","reveal(bytes32)":"701fd0f1","revealWithPuzzle(bytes32,int8[48])":"aff35879","reward()":"228cb733","scheme()":"8518b0ad","secretExpiry()":"363c058c","timeRemaining()":"e3cfef60"},"id":0}