{"abi":[{"type":"function","name":"M_WEAK","inputs":[],"outputs":[{"name":"","type":"uint256","internalType":"uint256"}],"stateMutability":"view"},{"type":"function","name":"N_WEAK","inputs":[],"outputs":[{"name":"","type":"uint256","internalType":"uint256"}],"stateMutability":"view"},{"type":"function","name":"PUZZLE_DOMAIN","inputs":[],"outputs":[{"name":"","type":"bytes32","internalType":"bytes32"}],"stateMutability":"view"},{"type":"function","name":"Q_WEAK","inputs":[],"outputs":[{"name":"","type":"uint256","internalType":"uint256"}],"stateMutability":"view"},{"type":"function","name":"THRESHOLD_SQ","inputs":[],"outputs":[{"name":"","type":"uint256","internalType":"uint256"}],"stateMutability":"view"},{"type":"function","name":"getPlantedSecret","inputs":[{"name":"x","type":"bytes32","internalType":"bytes32"}],"outputs":[{"name":"","type":"int8[40]","internalType":"int8[40]"}],"stateMutability":"pure"},{"type":"function","name":"getPuzzleSeed","inputs":[{"name":"x","type":"bytes32","internalType":"bytes32"}],"outputs":[{"name":"","type":"bytes32","internalType":"bytes32"}],"stateMutability":"pure"},{"type":"function","name":"verifyPuzzle","inputs":[{"name":"x","type":"bytes32","internalType":"bytes32"},{"name":"solution","type":"int8[40]","internalType":"int8[40]"}],"outputs":[{"name":"valid","type":"bool","internalType":"bool"},{"name":"sHash","type":"bytes32","internalType":"bytes32"}],"stateMutability":"pure"}],"bytecode":{"object":"0x608080604052346015576107a5908161001b8239f35b600080fdfe6080604052600436101561001257600080fd5b60003560e01c8063370d26ad146103155780634bdbbf1c146102f857806370ad866a146102db57806381465e021461028e57806386ce902f14610265578063933bd7c3146102495780639a6218f5146100955763d9d09c2f1461007457600080fd5b34610090576000366003190112610090576020604051603c8152f35b600080fd5b3461009057602036600319011261009057610500806040516100b78282610372565b369037604051602081019060008051602061075083398151915282526004356040820152604081526100ea606082610372565b519020604051906100fb8383610372565b82368337604051602081019182526d1c1b185b9d19590b5cd958dc995d60921b6040820152602e815261012f604e82610372565b519020906000915b6028831061016f576040518490836000825b6028821061015657505050f35b602080600192855160000b815201930191019091610149565b60405160208101908282528460041c604082015260408152610192606082610372565b5190209360005b6010811080610236575b1561021f5780600f03600f8111610209578060041b90810460101482600f1417156102095761ffff876003921c160660001981019081136001166102095760000b6101f76101f18388610742565b8661034b565b52600019811461020957600101610199565b634e487b7160e01b600052601160045260246000fd5b509350909160108101809111610209579190610137565b5060286102438287610742565b106101a3565b3461009057600036600319011261009057602060405160288152f35b346100905760003660031901126100905760206040516000805160206107508339815191528152f35b346100905760203660031901126100905760206040518181019060008051602061075083398151915282526004356040820152604081526102d0606082610372565b519020604051908152f35b3461009057600036600319011261009057602060405161012c8152f35b346100905760003660031901126100905760206040516107f78152f35b346100905761052036600319011261009057366105241161009057604061033d6004356103bb565b825191151582526020820152f35b90602881101561035c5760051b0190565b634e487b7160e01b600052603260045260246000fd5b90601f8019910116810190811067ffffffffffffffff82111761039457604052565b634e487b7160e01b600052604160045260246000fd5b90603081101561035c5760051b0190565b602491600091825b602881106106b25750604051602081019160008051602061075083398151915283526040820152604081526103f9606082610372565b51902060405161060061040c8183610372565b36823760405160208101908382526d1c1b185b9d19590b5cd958dc995d60921b6040820152602e8152610440604e82610372565b51902060005b600381106106395750506000906000925b603c84106104c657505061012c91501092836104705750565b909150604051602081019182906000915b602883106104a357505050610500815261049d61052082610372565b51902090565b8135908160000b8092036100905760208160019382935201920192019190610481565b90916040516020810190838252856040820152604081526104e8606082610372565b5190206000908190825b60038110610585575050600192916107f78092604051906005602083018981526432b93937b960d91b60408501528b604585015260458452610535606585610372565b88199351902006010107906000821261057c575b03076103fb811315610568576107f619015b8002019301929190610457565b6103fa1981121561055b576107f70161055b565b90820190610549565b6040516020810190838252826040820152604081526105a5606082610372565b5190206000905b601082106105bf575b50506001016104f2565b909394848360041b01956028871015610631578d6107f761ffff8589600f0360041b1c160790600060288a101561062057508860051b01358060000b8091036100905760019361061391830201988c6103aa565b51830b02019401906105ac565b634e487b7160e01b81526032600452fd5b9450946105b5565b604051602081019083825282604082015260408152610659606082610372565b51902060005b60108110610672575b5050600101610446565b808360041b0160288110156106ac57906001916106a5600019600361ffff8786600f0360041b1c160601840b91886103aa565b520161065f565b50610668565b6000602882101561072f57508060051b850180358060000b908181036100905760001982129283156106f9575b5050506106ee576001016103c3565b506000935083925050565b909192506000602885101561071c575050819003610090576001123880806106df565b634e487b7160e01b815260326004528890fd5b634e487b7160e01b815260326004528590fd5b919082018092116102095756fe53f075f97ed66ed7614d405485269018468e3b50904bbb09686073623f0e7056a2646970667358221220090f5ace57ac5322b3dc90b0357f67af1e33195b3074c52f96a69eccfd903f7364736f6c634300081f0033","linkReferences":{}},"methodIdentifiers":{"M_WEAK()":"d9d09c2f","N_WEAK()":"933bd7c3","PUZZLE_DOMAIN()":"86ce902f","Q_WEAK()":"4bdbbf1c","THRESHOLD_SQ()":"70ad866a","getPlantedSecret(bytes32)":"9a6218f5","getPuzzleSeed(bytes32)":"81465e02","verifyPuzzle(bytes32,int8[40])":"370d26ad"},"id":8}