{"abi":[{"type":"constructor","inputs":[{"name":"_circuitDataPointer","type":"address","internalType":"address"},{"name":"_numWires","type":"uint8","internalType":"uint8"},{"name":"_numGates","type":"uint32","internalType":"uint32"},{"name":"_expectedOutputHash","type":"bytes32","internalType":"bytes32"},{"name":"_circuitSeed","type":"bytes32","internalType":"bytes32"},{"name":"_expectedBindingOutput","type":"uint256[4]","internalType":"uint256[4]"},{"name":"_secretExpiry","type":"uint256","internalType":"uint256"}],"stateMutability":"payable"},{"type":"receive","stateMutability":"payable"},{"type":"function","name":"BINDING_ROWS","inputs":[],"outputs":[{"name":"","type":"uint256","internalType":"uint256"}],"stateMutability":"view"},{"type":"function","name":"COMMIT_DELAY","inputs":[],"outputs":[{"name":"","type":"uint256","internalType":"uint256"}],"stateMutability":"view"},{"type":"function","name":"LBLO_N","inputs":[],"outputs":[{"name":"","type":"uint256","internalType":"uint256"}],"stateMutability":"view"},{"type":"function","name":"M_WEAK","inputs":[],"outputs":[{"name":"","type":"uint256","internalType":"uint256"}],"stateMutability":"view"},{"type":"function","name":"N_WEAK","inputs":[],"outputs":[{"name":"","type":"uint256","internalType":"uint256"}],"stateMutability":"view"},{"type":"function","name":"PUZZLE_DOMAIN","inputs":[],"outputs":[{"name":"","type":"bytes32","internalType":"bytes32"}],"stateMutability":"view"},{"type":"function","name":"PUZZLE_THRESHOLD_SQ","inputs":[],"outputs":[{"name":"","type":"uint256","internalType":"uint256"}],"stateMutability":"view"},{"type":"function","name":"Q","inputs":[],"outputs":[{"name":"","type":"uint256","internalType":"uint256"}],"stateMutability":"view"},{"type":"function","name":"Q_WEAK","inputs":[],"outputs":[{"name":"","type":"uint256","internalType":"uint256"}],"stateMutability":"view"},{"type":"function","name":"THRESHOLD","inputs":[],"outputs":[{"name":"","type":"uint256","internalType":"uint256"}],"stateMutability":"view"},{"type":"function","name":"check","inputs":[{"name":"","type":"bytes32","internalType":"bytes32"}],"outputs":[{"name":"","type":"bool","internalType":"bool"}],"stateMutability":"pure"},{"type":"function","name":"checkWithPuzzle","inputs":[{"name":"input","type":"bytes32","internalType":"bytes32"},{"name":"puzzleSolution","type":"int8[48]","internalType":"int8[48]"}],"outputs":[{"name":"","type":"bool","internalType":"bool"}],"stateMutability":"view"},{"type":"function","name":"circuitDataPointer","inputs":[],"outputs":[{"name":"","type":"address","internalType":"address"}],"stateMutability":"view"},{"type":"function","name":"circuitSeed","inputs":[],"outputs":[{"name":"","type":"bytes32","internalType":"bytes32"}],"stateMutability":"view"},{"type":"function","name":"commit","inputs":[{"name":"commitHash","type":"bytes32","internalType":"bytes32"}],"outputs":[],"stateMutability":"nonpayable"},{"type":"function","name":"commitDelay","inputs":[],"outputs":[{"name":"","type":"uint256","internalType":"uint256"}],"stateMutability":"pure"},{"type":"function","name":"encryptedGates","inputs":[],"outputs":[{"name":"","type":"uint256","internalType":"uint256"}],"stateMutability":"pure"},{"type":"function","name":"estimatedGas","inputs":[],"outputs":[{"name":"","type":"uint256","internalType":"uint256"}],"stateMutability":"pure"},{"type":"function","name":"expectedBindingOutput0","inputs":[],"outputs":[{"name":"","type":"uint256","internalType":"uint256"}],"stateMutability":"view"},{"type":"function","name":"expectedBindingOutput1","inputs":[],"outputs":[{"name":"","type":"uint256","internalType":"uint256"}],"stateMutability":"view"},{"type":"function","name":"expectedBindingOutput2","inputs":[],"outputs":[{"name":"","type":"uint256","internalType":"uint256"}],"stateMutability":"view"},{"type":"function","name":"expectedBindingOutput3","inputs":[],"outputs":[{"name":"","type":"uint256","internalType":"uint256"}],"stateMutability":"view"},{"type":"function","name":"expectedOutputHash","inputs":[],"outputs":[{"name":"","type":"bytes32","internalType":"bytes32"}],"stateMutability":"view"},{"type":"function","name":"getCommit","inputs":[{"name":"committer","type":"address","internalType":"address"}],"outputs":[{"name":"","type":"bytes32","internalType":"bytes32"},{"name":"","type":"uint256","internalType":"uint256"}],"stateMutability":"view"},{"type":"function","name":"getPlantedSecret","inputs":[{"name":"x","type":"bytes32","internalType":"bytes32"}],"outputs":[{"name":"secret","type":"int8[48]","internalType":"int8[48]"}],"stateMutability":"pure"},{"type":"function","name":"getPuzzleSeed","inputs":[{"name":"x","type":"bytes32","internalType":"bytes32"}],"outputs":[{"name":"","type":"bytes32","internalType":"bytes32"}],"stateMutability":"pure"},{"type":"function","name":"isExpired","inputs":[],"outputs":[{"name":"","type":"bool","internalType":"bool"}],"stateMutability":"view"},{"type":"function","name":"numGates","inputs":[],"outputs":[{"name":"","type":"uint32","internalType":"uint32"}],"stateMutability":"view"},{"type":"function","name":"numWires","inputs":[],"outputs":[{"name":"","type":"uint8","internalType":"uint8"}],"stateMutability":"view"},{"type":"function","name":"owner","inputs":[],"outputs":[{"name":"","type":"address","internalType":"address"}],"stateMutability":"view"},{"type":"function","name":"reclaimExpired","inputs":[],"outputs":[],"stateMutability":"nonpayable"},{"type":"function","name":"reveal","inputs":[{"name":"","type":"bytes32","internalType":"bytes32"}],"outputs":[],"stateMutability":"pure"},{"type":"function","name":"revealWithPuzzle","inputs":[{"name":"input","type":"bytes32","internalType":"bytes32"},{"name":"puzzleSolution","type":"int8[48]","internalType":"int8[48]"}],"outputs":[],"stateMutability":"nonpayable"},{"type":"function","name":"reward","inputs":[],"outputs":[{"name":"","type":"uint256","internalType":"uint256"}],"stateMutability":"view"},{"type":"function","name":"scheme","inputs":[],"outputs":[{"name":"","type":"string","internalType":"string"}],"stateMutability":"pure"},{"type":"function","name":"secretExpiry","inputs":[],"outputs":[{"name":"","type":"uint256","internalType":"uint256"}],"stateMutability":"view"},{"type":"function","name":"timeRemaining","inputs":[],"outputs":[{"name":"","type":"uint256","internalType":"uint256"}],"stateMutability":"view"},{"type":"event","name":"Claimed","inputs":[{"name":"claimer","type":"address","indexed":true,"internalType":"address"},{"name":"commitHash","type":"bytes32","indexed":true,"internalType":"bytes32"},{"name":"reward","type":"uint256","indexed":false,"internalType":"uint256"}],"anonymous":false},{"type":"event","name":"Committed","inputs":[{"name":"committer","type":"address","indexed":true,"internalType":"address"},{"name":"commitHash","type":"bytes32","indexed":true,"internalType":"bytes32"},{"name":"blockNumber","type":"uint256","indexed":false,"internalType":"uint256"}],"anonymous":false},{"type":"event","name":"PuzzleSolved","inputs":[{"name":"solver","type":"address","indexed":true,"internalType":"address"},{"name":"inputHash","type":"bytes32","indexed":true,"internalType":"bytes32"},{"name":"normSq","type":"uint256","indexed":false,"internalType":"uint256"}],"anonymous":false}],"bytecode":{"object":"0x6101e0604081905261219f3881900390601f8201601f19168301906001600160401b038211848310176103365782916040528339810190610140818303126103315780516001600160a01b038116929091908383036103315760208201519360ff8516948581036103315760408401519063ffffffff821692838303610331576060860151936080870151958060bf890112156103315760405197608089016001600160401b0381118a82101761033657604052889061012081019283116103315760a001905b82821061032157505051988015159081610315575b50156102db57156102a4571561026d57428711156102285760609560805260a05260c05260e0526101005280516101405260208101516101605260408101516101805201516101a05261012052336101c05234600055604051611e52908161034d8239608051818181610992015261161a015260a051818181610d78015281816115ec01528181611bd80152611d12015260c051818181610bb10152611658015260e0518181816102a801526116af01526101005181818161052e01528181611bfb0152611cf0015261012051818181610358015281816103b401528181610456015281816109f101528181610cdc01526111ec0152610140518181816102e30152611776015261016051818181610bed015261174b015261018051818181610ca0015261171d01526101a051818181610b7101526116f301526101c05181818161042301526107b10152f35b60405162461bcd60e51b815260206004820152601860248201527f457870697279206d75737420626520696e2066757475726500000000000000006044820152606490fd5b60405162461bcd60e51b815260206004820152600f60248201526e24b73b30b634b2103837b4b73a32b960891b6044820152606490fd5b60405162461bcd60e51b815260206004820152600f60248201526e4d757374206861766520676174657360881b6044820152606490fd5b60405162461bcd60e51b815260206004820152601260248201527115da5c995cc81b5d5cdd081899480c4b4d8d60721b6044820152606490fd5b604091501115386100db565b81518152602091820191016100c6565b600080fd5b634e487b7160e01b600052604160045260246000fdfe60806040526004361015610023575b361561001957600080fd5b610021611226565b005b60003560e01c8063026c41af1461026e5780630bd48e6014610269578063103117c7146102645780631a69cad51461025f578063228cb7331461025a5780632f13b60c14610255578063342746aa14610250578063363c058c1461024b578063399e0792146102465780633fe8e80f1461024157806342f370bc1461023c5780634bdbbf1c146102375780634d26bf291461023257806350857fb2146101f6578063701fd0f11461022d57806371cc826c14610228578063785ffb371461022357806381465e021461021e5780638518b0ad146102195780638696b8871461021457806386ce902f1461020f5780638da5cb5b1461020a578063933bd7c3146102055780639a6218f5146102005780639e9d2938146101fb5780639ffedd17146101f6578063aff35879146101f1578063cdb27ded146101ec578063d1b92e43146101e7578063d262512b146101e2578063d9d09c2f146101dd578063e3cfef60146101d8578063e493ef8c146101d3578063e798fbd8146101ce578063ed2cc90f146101c9578063f14fcbc8146101c45763faaf4d9a0361000e57610d5e565b610cc3565b610c88565b610c6c565b610c4f565b610c2c565b610c10565b610bd5565b610b94565b610b59565b6109c1565b610551565b61097c565b61082e565b6107e0565b61079b565b610772565b61070f565b610686565b610639565b61061b565b6105e2565b61056d565b610516565b6104f9565b610410565b6103f3565b6103d7565b61039c565b61037e565b610340565b610322565b610306565b6102cb565b610290565b3461028b57600036600319011261028b57602060405161012c8152f35b600080fd5b3461028b57600036600319011261028b5760206040517f00000000000000000000000000000000000000000000000000000000000000008152f35b3461028b57600036600319011261028b5760206040517f00000000000000000000000000000000000000000000000000000000000000008152f35b3461028b57600036600319011261028b57602060405160408152f35b3461028b57600036600319011261028b576020600054604051908152f35b3461028b57600036600319011261028b5760206040517f00000000000000000000000000000000000000000000000000000000000000004210158152f35b3461028b57600036600319011261028b576020604051628954408152f35b3461028b57600036600319011261028b5760206040517f00000000000000000000000000000000000000000000000000000000000000008152f35b3461028b57602036600319011261028b57602060405160008152f35b3461028b57600036600319011261028b5760206040516102808152f35b3461028b57600036600319011261028b577f00000000000000000000000000000000000000000000000000000000000000006001600160a01b031633036104c75761047d7f0000000000000000000000000000000000000000000000000000000000000000421015610d9c565b61049861049361048f60015460ff1690565b1590565b610dda565b6104a9600160ff1981541617600155565b61002160008080808054818055335af16104c1610e71565b50610eb1565b60405162461bcd60e51b815260206004820152600a60248201526927b7363c9037bbb732b960b11b6044820152606490fd5b3461028b57600036600319011261028b5760206040516107f78152f35b3461028b57600036600319011261028b5760206040517f00000000000000000000000000000000000000000000000000000000000000008152f35b3461028b57600036600319011261028b57602060405160028152f35b3461028b57602036600319011261028b5760405162461bcd60e51b815260206004820152601c60248201527f5573652072657665616c5769746850757a7a6c6520696e7374656164000000006044820152606490fd5b9061062060031983011261028b57600435916106241161028b57602490565b3461028b5760206105fb6105f5366105c3565b90610eef565b6040519015158152f35b634e487b7160e01b600052601160045260246000fd5b3461028b57600036600319011261028b576020613ffc604051908152f35b3461028b57602036600319011261028b57602060043560405182810191600080516020611dfd833981519152835260408201526040815261067b606082610e4f565b519020604051908152f35b3461028b57600036600319011261028b5760408051906106a68183610e4f565b60128252713a3637b996b631363796b83abd3d3632ab1960711b6020830152805180926020825280519081602084015260005b8281106106f85750506000828201840152601f01601f19168101030190f35b6020828201810151878301870152869450016106d9565b3461028b57602036600319011261028b576004356001600160a01b0381169081900361028b5760005260026020526040600020602060405161075081610e2e565b8254808252600190930154910181905260408051928352602083019190915290f35b3461028b57600036600319011261028b576020604051600080516020611dfd8339815191528152f35b3461028b57600036600319011261028b576040517f00000000000000000000000000000000000000000000000000000000000000006001600160a01b03168152602090f35b3461028b57600036600319011261028b57602060405160308152f35b91906106008301926000905b6030821061081557505050565b602080600192855160000b815201930191019091610808565b3461028b57602036600319011261028b5760043561084a610f33565b9060405161088681610878602082019485604091600080516020611dfd833981519152825260208201520190565b03601f198101835282610e4f565b5190206040516108b981610878602082019485602e9181526d1c1b185b9d19590b5cd958dc995d60921b60208201520190565b51902060005b600381106108d957604051806108d585826107fc565b0390f35b60408051602081018481529181018390526108f78160608101610878565b51902060005b60108110610910575b50506001016108bf565b6109228161091d85610f6a565b610fa1565b6030811015610976579061097060019261096861095e61095961ffff8861095061094b89610fae565b610f6a565b1c166003900690565b610fcb565b60000b9189610fdd565b9060000b9052565b016108fd565b50610906565b3461028b57600036600319011261028b576040517f00000000000000000000000000000000000000000000000000000000000000006001600160a01b03168152602090f35b3461028b57610a8d610ae4610ade6109d8366105c3565b93906109ec61049361048f60015460ff1690565b610a177f00000000000000000000000000000000000000000000000000000000000000004210611004565b336000908152600260205260409020610a8490610a3390610f15565b95610a58610a5060208901610a4a81511515611041565b51610f85565b43101561107f565b610a7e6040516020810190610a7381610878868933876110c9565b51902088511461111c565b8261127e565b91939093611159565b6040516020810190610aa781610878868560209181520190565b5190206040519182529033907f7f7dd62a04c0085603d36be920ab49a8ec4081253ed09f7793ddc02125bee2c090602090a36115d7565b506111a5565b610af5600160ff1981541617600155565b336000908152600260205260408120818155600101556000549060008055610b27600080808086335af16104c1610e71565b516040519182529033907f9b01158d4bc10c112ba32b5240cda97e49e2eb86021f03f6a0f460342ac4dfda90602090a3005b3461028b57600036600319011261028b5760206040517f00000000000000000000000000000000000000000000000000000000000000008152f35b3461028b57600036600319011261028b57602060405163ffffffff7f0000000000000000000000000000000000000000000000000000000000000000168152f35b3461028b57600036600319011261028b5760206040517f00000000000000000000000000000000000000000000000000000000000000008152f35b3461028b57600036600319011261028b57602060405160488152f35b3461028b57600036600319011261028b576020610c476111ea565b604051908152f35b3461028b57600036600319011261028b57602060405161fff18152f35b3461028b57600036600319011261028b57602060405160808152f35b3461028b57600036600319011261028b5760206040517f00000000000000000000000000000000000000000000000000000000000000008152f35b3461028b57602036600319011261028b57600435610d027f00000000000000000000000000000000000000000000000000000000000000004210611004565b604051610d0e81610e2e565b818152600160208201438152336000526002602052604060002092518355519101556040514381527f550e735193e8f8bf0398f14bcadbbbf0329d5401f6786981e63f5b010662b00e60203392a3005b3461028b57600036600319011261028b57602060405160ff7f0000000000000000000000000000000000000000000000000000000000000000168152f35b15610da357565b60405162461bcd60e51b815260206004820152600f60248201526e139bdd08195e1c1a5c9959081e595d608a1b6044820152606490fd5b15610de157565b60405162461bcd60e51b815260206004820152600f60248201526e105b1c9958591e4818db185a5b5959608a1b6044820152606490fd5b634e487b7160e01b600052604160045260246000fd5b6040810190811067ffffffffffffffff821117610e4a57604052565b610e18565b90601f8019910116810190811067ffffffffffffffff821117610e4a57604052565b3d15610eac573d9067ffffffffffffffff8211610e4a5760405191610ea0601f8201601f191660200184610e4f565b82523d6000602084013e565b606090565b15610eb857565b60405162461bcd60e51b815260206004820152600f60248201526e151c985b9cd9995c8819985a5b1959608a1b6044820152606490fd5b90610efa908261127e565b509015610f0e57610f0a916115d7565b5090565b5050600090565b90604051610f2281610e2e565b602060018294805484520154910152565b60405190610600610f448184610e4f565b368337565b604051906080610f448184610e4f565b60405190610100610f448184610e4f565b908160041b9180830460101490151715610f8057565b610605565b9060028201809211610f8057565b9060808201809211610f8057565b91908201809211610f8057565b600f0390600f8211610f8057565b600019810191908211610f8057565b906000198201918213600116610f8057565b906030811015610fee5760051b0190565b634e487b7160e01b600052603260045260246000fd5b1561100b57565b60405162461bcd60e51b815260206004820152600e60248201526d14d958dc995d08195e1c1a5c995960921b6044820152606490fd5b1561104857565b60405162461bcd60e51b815260206004820152600f60248201526e139bc818dbdb5b5a5d08199bdd5b99608a1b6044820152606490fd5b1561108657565b60405162461bcd60e51b815260206004820152601060248201526f52657665616c20746f6f206561726c7960801b6044820152606490fd5b8060000b0361028b57565b6001600160a01b039091168152602081019190915261064081019291906000906040015b603082106110fa57505050565b602080600192853561110b816110be565b60000b8152019301910190916110ed565b1561112357565b60405162461bcd60e51b815260206004820152600e60248201526d125b9d985b1a59081c995d99585b60921b6044820152606490fd5b1561116057565b60405162461bcd60e51b815260206004820152601760248201527f496e76616c69642070757a7a6c6520736f6c7574696f6e0000000000000000006044820152606490fd5b156111ac57565b60405162461bcd60e51b8152602060048201526016602482015275125b9d985b1a590818da5c98dd5a5d081bdd5d1c1d5d60521b6044820152606490fd5b7f00000000000000000000000000000000000000000000000000000000000000008042101561122057428103908111610f805790565b50600090565b600054348101809111610f8057600055565b35611242816110be565b90565b906000825b6030821061125c575050506106000190565b602080600192853561126d816110be565b60000b81520193019101909161124a565b909160009160005b6030811061158757506040516112bc81610878602082019485604091600080516020611dfd833981519152825260208201520190565b519020906112c8610f33565b9160405160208101906112fa816108788585602e9181526d1c1b185b9d19590b5cd958dc995d60921b60208201520190565b51902060005b600381106114f85750506000926000916103fb905b6048841061134d575050505061012c8210938461132f5750565b90925060405161134781610878602082019485611245565b51902091565b909192946040516020810190611373816108788a87869091604092825260208201520190565b5190206000908190825b60038110611438575050600192916113eb6113fe92604051906113e18c6113d4846113c660208201938d85909160459282526432b93937b960d91b602083015260258201520190565b03601f198101865285610e4f565b8819935190206005900690565b01016107f7900790565b906000821261142d575b036107f7900790565b84811315611419576107f619015b8002019501929190611315565b8460000381121561140c576107f70161140c565b906107f701906113f5565b604080516020810184815291810183905289918e9161145a8160608101610878565b5190206000915b60108310611476575b5050505060010161137d565b909296828560049894981b019060308210156114eb576114d96114d2836114df936114c66114c160019998976114bb8f8d61ffff91600f0360041b1c166107f7900790565b98610fdd565b611238565b60000b8602019b610fdd565b5160010b90565b60010b90565b0201940189918e611461565b979350508195508061146a565b60408051602081018481529181018390526115168160608101610878565b51902060005b6010811061152f575b5050600101611300565b808360041b016030811015611581579061157b60019261157361156c60001961156561ffff8988600f0360041b1c166003900690565b0160010b90565b918b610fdd565b9060010b9052565b0161151c565b50611525565b6000196115976114c18388610fdd565b60000b1280156115be575b6115ae57600101611286565b5050915050600090600090600090565b5060016115ce6114c18388610fdd565b60000b136115a2565b6115df610f49565b50611644611612600160ff7f0000000000000000000000000000000000000000000000000000000000000000161b610fbc565b82169261163e7f00000000000000000000000000000000000000000000000000000000000000006119c7565b926119f7565b9061164e83611bca565b9160009161bff4917f000000000000000000000000000000000000000000000000000000000000000063ffffffff1691613ffc5b83861061179d5750505050505080916040516116aa8161087860208201948560209181520190565b5190207f0000000000000000000000000000000000000000000000000000000000000000149081611772575b81611744575b81611716575b816116eb575091565b6060019050517f00000000000000000000000000000000000000000000000000000000000000001491565b60408101517f00000000000000000000000000000000000000000000000000000000000000001491506116e2565b60208101517f00000000000000000000000000000000000000000000000000000000000000001491506116dc565b80517f00000000000000000000000000000000000000000000000000000000000000001491506116d6565b9091929394956117ac87610f93565b908582116119bf575b602061040b8902850101602061040b84028601015b8082106118125750506118089189611802926117fa81516117eb8360200190565b51186040830151189160600190565b511818611ce3565b96610f93565b9493929190611682565b90998a5190610102603f8360f81c1692600183603f600282828660e81c161c841b169360f01c161c1617028c01600090815b60088110611885575061fff18061040b95949381610103600195015160f01c910690030106888d82109111168183851c1618831b921b1916179a01906117ca565b916001908360051b60038185010151908d015161ffff811661ffff8316029261ffff8260101c1661ffff8460101c16029261ffff8360201c1661ffff8260201c16029261ffff8160301c1661ffff8360301c16029261ffff8260401c1661ffff8460401c16029261ffff8360501c1661ffff8260501c16029261ffff8160601c1661ffff8360601c16029261ffff8260701c1661ffff8460701c16029261ffff8360801c1661ffff8260801c16029261ffff8160901c1661ffff8360901c16029261ffff8260a01c1661ffff8460a01c16029261ffff8360b01c1661ffff8260b01c16029261ffff8160c01c1661ffff8360c01c16029261ffff8260d01c1661ffff8460d01c16029261ffff8360e01c1661ffff8260e01c16029260f01c9060f01c02010101010101010101010101010101019201611844565b8591506117b5565b803b90600019820190828211610f805760019060405193603e601f19910116840160405282845260208401903c90565b919091610878611a25611a08610f59565b946040519283916020830195869091604092825260208201520190565b519020611a30610f59565b906040516020810190611a528161087885856040918152600060208201520190565b51902082526040516020810190611a788161087885856040918152600160208201520190565b51902060208301526040516020810190611aa18161087885856040918152600260208201520190565b51902060408301526040516020810190611aca8161087885856040918152600360208201520190565b51902060608301526040516020810190611af38161087885856040918152600460208201520190565b51902060808301526040516020810190611b1c8161087885856040918152600560208201520190565b51902060a08301526040516020810190611b458161087885856040918152600660208201520190565b51902060c0830152604051611b6d816108786020820194856040918152600760208201520190565b51902060e082015260005b60088110611b84575050565b8060051b808301519060009182905b60108210611ba8575050850152600101611b78565b909260019084600f0360041b61fff161ffff85831c1606901b17930190611b93565b90611bd3610f49565b9160ff7f000000000000000000000000000000000000000000000000000000000000000016907f00000000000000000000000000000000000000000000000000000000000000009060005b60408110611c2c5750505050565b604051838152602081016000815282604083015260608220906000928391845b898410611c7e57505050505090600191601f1982841b1688019061ffff8251911660f08460041b161b17905201611c1e565b848352808252604083206000905b8b86106010831016611ca2575050600101611c4c565b909460018a821c16611cbc575b6001809101950190611c8c565b9661fff161ffff838860041b1c1606019661fff18810611caf5761fff01990970196611caf565b9190611ced610f49565b927f0000000000000000000000000000000000000000000000000000000000000000907f000000000000000000000000000000000000000000000000000000000000000060ff1660005b60408110611d46575050505050565b6040518481526020810186815282604083015260608220906000928391845b878410611d9757505050505090600191601f1982841b1689019061ffff8251911660f08460041b161b17905201611d37565b848352808252604083206000905b8986106010831016611dbb575050600101611d65565b909460018b821c16611dd5575b6001809101950190611da5565b9661fff161ffff838860041b1c1606019661fff18810611dc85761fff01990970196611dc856fe63fa20280546824e71b86edfaf14e77c493c05e830f4486c556c6c258de4a566a26469706673582212203a1b3f104a5642187b30a06d19408daaeb8b87966ee8b558d3e916ca63c689f364736f6c634300081f0033","linkReferences":{}},"methodIdentifiers":{"BINDING_ROWS()":"1a69cad5","COMMIT_DELAY()":"50857fb2","LBLO_N()":"e798fbd8","M_WEAK()":"d9d09c2f","N_WEAK()":"933bd7c3","PUZZLE_DOMAIN()":"86ce902f","PUZZLE_THRESHOLD_SQ()":"026c41af","Q()":"e493ef8c","Q_WEAK()":"4bdbbf1c","THRESHOLD()":"785ffb37","check(bytes32)":"399e0792","checkWithPuzzle(bytes32,int8[48])":"71cc826c","circuitDataPointer()":"9e9d2938","circuitSeed()":"4d26bf29","commit(bytes32)":"f14fcbc8","commitDelay()":"9ffedd17","encryptedGates()":"3fe8e80f","estimatedGas()":"342746aa","expectedBindingOutput0()":"103117c7","expectedBindingOutput1()":"d262512b","expectedBindingOutput2()":"ed2cc90f","expectedBindingOutput3()":"cdb27ded","expectedOutputHash()":"0bd48e60","getCommit(address)":"8696b887","getPlantedSecret(bytes32)":"9a6218f5","getPuzzleSeed(bytes32)":"81465e02","isExpired()":"2f13b60c","numGates()":"d1b92e43","numWires()":"faaf4d9a","owner()":"8da5cb5b","reclaimExpired()":"42f370bc","reveal(bytes32)":"701fd0f1","revealWithPuzzle(bytes32,int8[48])":"aff35879","reward()":"228cb733","scheme()":"8518b0ad","secretExpiry()":"363c058c","timeRemaining()":"e3cfef60"},"id":4}