{"abi":[{"type":"function","name":"M_WEAK","inputs":[],"outputs":[{"name":"","type":"uint256","internalType":"uint256"}],"stateMutability":"view"},{"type":"function","name":"N_WEAK","inputs":[],"outputs":[{"name":"","type":"uint256","internalType":"uint256"}],"stateMutability":"view"},{"type":"function","name":"PUZZLE_DOMAIN","inputs":[],"outputs":[{"name":"","type":"bytes32","internalType":"bytes32"}],"stateMutability":"view"},{"type":"function","name":"Q_WEAK","inputs":[],"outputs":[{"name":"","type":"uint256","internalType":"uint256"}],"stateMutability":"view"},{"type":"function","name":"THRESHOLD_SQ","inputs":[],"outputs":[{"name":"","type":"uint256","internalType":"uint256"}],"stateMutability":"view"},{"type":"function","name":"getBValue","inputs":[{"name":"seed","type":"bytes32","internalType":"bytes32"},{"name":"row","type":"uint256","internalType":"uint256"}],"outputs":[{"name":"bVal","type":"uint16","internalType":"uint16"}],"stateMutability":"pure"},{"type":"function","name":"getMatrixRow","inputs":[{"name":"seed","type":"bytes32","internalType":"bytes32"},{"name":"row","type":"uint256","internalType":"uint256"}],"outputs":[{"name":"aRow","type":"uint16[48]","internalType":"uint16[48]"}],"stateMutability":"pure"},{"type":"function","name":"getPuzzleSeed","inputs":[{"name":"x","type":"bytes32","internalType":"bytes32"}],"outputs":[{"name":"seed","type":"bytes32","internalType":"bytes32"}],"stateMutability":"pure"},{"type":"function","name":"verifyPuzzle","inputs":[{"name":"x","type":"bytes32","internalType":"bytes32"},{"name":"solution","type":"int8[48]","internalType":"int8[48]"}],"outputs":[{"name":"valid","type":"bool","internalType":"bool"},{"name":"sHash","type":"bytes32","internalType":"bytes32"}],"stateMutability":"pure"}],"bytecode":{"object":"0x6080806040523460155761072b908161001b8239f35b600080fdfe6080604052600436101561001257600080fd5b60003560e01c806332ae37b1146100a75780634bdbbf1c146100a257806370ad866a1461009d578063716b9efe14610098578063765561261461009357806381465e021461008e57806386ce902f14610089578063933bd7c3146100845763d9d09c2f1461007f57600080fd5b61053f565b610523565b6104e8565b610489565b610436565b61027e565b610261565b610244565b346101f6576100b5366101fb565b906100f96101076100c4610593565b936100d1604082106105a9565b6040519283916020830195869091604392825262726f7760e81b602083015260238201520190565b03601f19810183528261055b565b519020906000915b6030831061012957604051806101258482610211565b0390f35b906101348360041c90565b604051610155816100f9602082019487869091604092825260208201520190565b5190209160005b60108110806101e3575b156101d057806101c66101aa61019c6101a361019c6101968a61018b6101cb9961062e565b1b61ffff60f01b1690565b60f01c90565b61ffff1690565b6107ff1690565b6101bd6101b7848a610612565b87610644565b9061ffff169052565b61061f565b61015c565b50926101dd9192506105ff565b9161010f565b5060306101f08287610612565b10610166565b600080fd5b60409060031901126101f6576004359060243590565b91906106008301926000905b6030821061022a57505050565b60208060019261ffff86511681520193019101909161021d565b346101f65760003660031901126101f65760206040516108008152f35b346101f65760003660031901126101f65760206040516102008152f35b346101f6576106203660031901126101f65760043536610624116101f657600080916102a936610679565b90835b6030811061040557506106008201917f3044314c80c80e7c8cd87bf2b39878d9f6d019111b80738ef0160d9fd5a42e83835261062081019182526040832094926000926106218301905b6040851061033d578661020087108061031d575b6040805191151582526020820192909252f35b90506040516020810190610334816100f9846106bd565b5190209061030a565b909192939487845285825260408420600090815b600381106103ad575050906108006001928a8752606285538886526107ff604188201690030761040081136103a3575b6103ff19811261039a575b8002019501939291906102f6565b6108000161038c565b6107ff1901610381565b8187528085526040872060005b601081106103cc575050600101610351565b808360041b01603081106103e4575b506001016103ba565b946001919560051b8b01516107ff8488600f0360041b1c16020194906103db565b806005959392951b8201516001811390600019131761042a57600101939091936102ac565b60408380805280602052f35b346101f65760206107ff610449366101fb565b610455604082106105a9565b60405190848201928352603160f91b604083015260418201526041815261047d60618261055b565b51902016604051908152f35b346101f65760203660031901126101f6576020600435604051828101917f3044314c80c80e7c8cd87bf2b39878d9f6d019111b80738ef0160d9fd5a42e8383526040820152604081526104dd60608261055b565b519020604051908152f35b346101f65760003660031901126101f65760206040517f3044314c80c80e7c8cd87bf2b39878d9f6d019111b80738ef0160d9fd5a42e838152f35b346101f65760003660031901126101f657602060405160308152f35b346101f65760003660031901126101f657602060405160408152f35b90601f8019910116810190811067ffffffffffffffff82111761057d57604052565b634e487b7160e01b600052604160045260246000fd5b604051906106006105a4818461055b565b368337565b156105b057565b60405162461bcd60e51b8152602060048201526011602482015270526f77206f7574206f6620626f756e647360781b6044820152606490fd5b634e487b7160e01b600052601160045260246000fd5b906010820180921161060d57565b6105e9565b9190820180921161060d57565b600019811461060d5760010190565b908160041b918083046010149015171561060d57565b9060308110156106555760051b0190565b634e487b7160e01b600052603260045260246000fd5b35908160000b82036101f657565b604051919061068a6106008461055b565b8290610624116101f6576024905b61062482106106a5575050565b602080916106b28461066b565b815201910190610698565b60246000825b603082106106d5575050506106000190565b6020806001926106e48661066b565b60000b8152019301910190916106c356fea26469706673582212206912248098f9c37969352b960e387eb54927091475654bdc9366e301dc33012964736f6c634300081f0033","linkReferences":{}},"methodIdentifiers":{"M_WEAK()":"d9d09c2f","N_WEAK()":"933bd7c3","PUZZLE_DOMAIN()":"86ce902f","Q_WEAK()":"4bdbbf1c","THRESHOLD_SQ()":"70ad866a","getBValue(bytes32,uint256)":"76556126","getMatrixRow(bytes32,uint256)":"32ae37b1","getPuzzleSeed(bytes32)":"81465e02","verifyPuzzle(bytes32,int8[48])":"716b9efe"},"id":6}