{"abi":[{"type":"constructor","inputs":[{"name":"_circuitDataPointer","type":"address","internalType":"address"},{"name":"_numWires","type":"uint8","internalType":"uint8"},{"name":"_numGates","type":"uint32","internalType":"uint32"},{"name":"_expectedOutputHash","type":"bytes32","internalType":"bytes32"},{"name":"_circuitSeed","type":"bytes32","internalType":"bytes32"},{"name":"_expectedSehOutput","type":"uint128","internalType":"uint128"},{"name":"_secretExpiry","type":"uint256","internalType":"uint256"}],"stateMutability":"payable"},{"type":"receive","stateMutability":"payable"},{"type":"function","name":"COMMIT_DELAY","inputs":[],"outputs":[{"name":"","type":"uint256","internalType":"uint256"}],"stateMutability":"view"},{"type":"function","name":"LWE_N","inputs":[],"outputs":[{"name":"","type":"uint256","internalType":"uint256"}],"stateMutability":"view"},{"type":"function","name":"Q","inputs":[],"outputs":[{"name":"","type":"uint256","internalType":"uint256"}],"stateMutability":"view"},{"type":"function","name":"SEH_DIM","inputs":[],"outputs":[{"name":"","type":"uint256","internalType":"uint256"}],"stateMutability":"view"},{"type":"function","name":"THRESHOLD","inputs":[],"outputs":[{"name":"","type":"uint256","internalType":"uint256"}],"stateMutability":"view"},{"type":"function","name":"check","inputs":[{"name":"input","type":"bytes32","internalType":"bytes32"}],"outputs":[{"name":"","type":"bool","internalType":"bool"}],"stateMutability":"view"},{"type":"function","name":"checkWithSeh","inputs":[{"name":"input","type":"bytes32","internalType":"bytes32"}],"outputs":[{"name":"valid","type":"bool","internalType":"bool"},{"name":"sehOutput","type":"uint128","internalType":"uint128"}],"stateMutability":"view"},{"type":"function","name":"circuitDataPointer","inputs":[],"outputs":[{"name":"","type":"address","internalType":"address"}],"stateMutability":"view"},{"type":"function","name":"circuitSeed","inputs":[],"outputs":[{"name":"","type":"bytes32","internalType":"bytes32"}],"stateMutability":"view"},{"type":"function","name":"commit","inputs":[{"name":"commitHash","type":"bytes32","internalType":"bytes32"}],"outputs":[],"stateMutability":"nonpayable"},{"type":"function","name":"commitDelay","inputs":[],"outputs":[{"name":"","type":"uint256","internalType":"uint256"}],"stateMutability":"pure"},{"type":"function","name":"encryptedGates","inputs":[],"outputs":[{"name":"","type":"uint256","internalType":"uint256"}],"stateMutability":"pure"},{"type":"function","name":"estimatedGas","inputs":[],"outputs":[{"name":"","type":"uint256","internalType":"uint256"}],"stateMutability":"pure"},{"type":"function","name":"expectedOutputHash","inputs":[],"outputs":[{"name":"","type":"bytes32","internalType":"bytes32"}],"stateMutability":"view"},{"type":"function","name":"expectedSehOutput","inputs":[],"outputs":[{"name":"","type":"uint128","internalType":"uint128"}],"stateMutability":"view"},{"type":"function","name":"getCommit","inputs":[{"name":"committer","type":"address","internalType":"address"}],"outputs":[{"name":"","type":"bytes32","internalType":"bytes32"},{"name":"","type":"uint256","internalType":"uint256"}],"stateMutability":"view"},{"type":"function","name":"isExpired","inputs":[],"outputs":[{"name":"","type":"bool","internalType":"bool"}],"stateMutability":"view"},{"type":"function","name":"numGates","inputs":[],"outputs":[{"name":"","type":"uint32","internalType":"uint32"}],"stateMutability":"view"},{"type":"function","name":"numWires","inputs":[],"outputs":[{"name":"","type":"uint8","internalType":"uint8"}],"stateMutability":"view"},{"type":"function","name":"owner","inputs":[],"outputs":[{"name":"","type":"address","internalType":"address"}],"stateMutability":"view"},{"type":"function","name":"reclaimExpired","inputs":[],"outputs":[],"stateMutability":"nonpayable"},{"type":"function","name":"reveal","inputs":[{"name":"input","type":"bytes32","internalType":"bytes32"}],"outputs":[],"stateMutability":"nonpayable"},{"type":"function","name":"reward","inputs":[],"outputs":[{"name":"","type":"uint256","internalType":"uint256"}],"stateMutability":"view"},{"type":"function","name":"scheme","inputs":[],"outputs":[{"name":"","type":"string","internalType":"string"}],"stateMutability":"pure"},{"type":"function","name":"secretExpiry","inputs":[],"outputs":[{"name":"","type":"uint256","internalType":"uint256"}],"stateMutability":"view"},{"type":"function","name":"timeRemaining","inputs":[],"outputs":[{"name":"","type":"uint256","internalType":"uint256"}],"stateMutability":"view"},{"type":"event","name":"Claimed","inputs":[{"name":"claimer","type":"address","indexed":true,"internalType":"address"},{"name":"commitHash","type":"bytes32","indexed":true,"internalType":"bytes32"},{"name":"reward","type":"uint256","indexed":false,"internalType":"uint256"}],"anonymous":false},{"type":"event","name":"Committed","inputs":[{"name":"committer","type":"address","indexed":true,"internalType":"address"},{"name":"commitHash","type":"bytes32","indexed":true,"internalType":"bytes32"},{"name":"blockNumber","type":"uint256","indexed":false,"internalType":"uint256"}],"anonymous":false}],"bytecode":{"object":"0x610180601f611a7038819003918201601f19168301916001600160401b038311848410176102a15780849260e09460405283398101031261029c5780516001600160a01b038116919082810361029c5760208201519260ff84169384810361029c5760408401519063ffffffff82169384830361029c5760608601519360808701519560a08801519760018060801b038916890361029c5760c00151988015159081610290575b5015610256571561021f57156101e857428711156101a35760805260a05260c05260e0526101005261014052610120523361016052346000556040516117b890816102b882396080518181816107620152610c84015260a05181818161090501528181610c530152818161156d01526116a5015260c0518181816107ae0152610cc2015260e0518181816101d60152610d3301526101005181818161044f0152818161154c0152611682015261012051818181610293015281816102f001528181610394015281816104cf015281816108690152610bfe0152610140518181816107f20152610d66015261016051818181610361015261071d0152f35b60405162461bcd60e51b815260206004820152601860248201527f457870697279206d75737420626520696e2066757475726500000000000000006044820152606490fd5b60405162461bcd60e51b815260206004820152600f60248201526e24b73b30b634b2103837b4b73a32b960891b6044820152606490fd5b60405162461bcd60e51b815260206004820152600f60248201526e4d757374206861766520676174657360881b6044820152606490fd5b60405162461bcd60e51b815260206004820152601260248201527115da5c995cc81b5d5cdd081899480c4b4d8d60721b6044820152606490fd5b604091501115386100a6565b600080fd5b634e487b7160e01b600052604160045260246000fdfe60806040526004361015610023575b361561001957600080fd5b610021610c38565b005b60003560e01c80630bd48e60146101be5780630cbc10bc146101b9578063228cb733146101b45780632b6b1142146101af5780632f13b60c146101aa578063342746aa146101a5578063363c058c146101a0578063399e07921461019b5780633fe8e80f1461019657806342f370bc146101915780634d26bf291461018c57806350857fb2146101645780636bc3030414610187578063701fd0f114610182578063785ffb371461017d5780638518b0ad146101785780638696b887146101735780638da5cb5b1461016e5780639e9d2938146101695780639ffedd1714610164578063d1b92e431461015f578063d23544121461015a578063e3cfef6014610155578063e493ef8c14610150578063f14fcbc81461014b5763faaf4d9a0361000e576108eb565b610856565b610839565b610816565b6107d2565b610791565b610472565b61074c565b610707565b6106a4565b610622565b610604565b6104aa565b61048e565b610437565b61034e565b610331565b610313565b6102d8565b6102b9565b61027b565b61024a565b61021a565b6101fe565b346101f95760003660031901126101f95760206040517f00000000000000000000000000000000000000000000000000000000000000008152f35b600080fd5b346101f95760003660031901126101f957602060405160088152f35b346101f95760003660031901126101f9576020600054604051908152f35b60209060031901126101f95760043590565b346101f95760406001600160801b0361026a61026536610238565b610c4a565b835191151582529091166020820152f35b346101f95760003660031901126101f95760206040517f00000000000000000000000000000000000000000000000000000000000000004210158152f35b346101f95760003660031901126101f95760206040516302faf0808152f35b346101f95760003660031901126101f95760206040517f00000000000000000000000000000000000000000000000000000000000000008152f35b346101f957602061032661026536610238565b506040519015158152f35b346101f95760003660031901126101f95760206040516102808152f35b346101f95760003660031901126101f9577f00000000000000000000000000000000000000000000000000000000000000006001600160a01b03163303610405576103bb7f0000000000000000000000000000000000000000000000000000000000000000421015610929565b6103d66103d16103cd60015460ff1690565b1590565b610967565b6103e7600160ff1981541617600155565b61002160008080808054818055335af16103ff6109fe565b50610a3e565b60405162461bcd60e51b815260206004820152600a60248201526927b7363c9037bbb732b960b11b6044820152606490fd5b346101f95760003660031901126101f95760206040517f00000000000000000000000000000000000000000000000000000000000000008152f35b346101f95760003660031901126101f957602060405160028152f35b346101f95760003660031901126101f957602060405160408152f35b346101f9576104b836610238565b6104ca6103d16103cd60015460ff1690565b6104f57f00000000000000000000000000000000000000000000000000000000000000004210610a7c565b336000908152600260205260409020610579906105739061051590610ab9565b9261053a6105326020860161052c81511515610ad7565b51610b15565b431015610b35565b604080513360208201908152918101839052610265919061056881606081015b03601f1981018352826109dc565b519020855114610b74565b50610bb1565b61058a600160ff1981541617600155565b3360009081526002602052604081208181556001015560005490600080556105bc600080808086335af16103ff6109fe565b516040519182529033907f9b01158d4bc10c112ba32b5240cda97e49e2eb86021f03f6a0f460342ac4dfda90602090a3005b634e487b7160e01b600052601160045260246000fd5b346101f95760003660031901126101f9576020613ffc604051908152f35b346101f95760003660031901126101f957604080519061064281836109dc565b600b82526a746c6f2d6c696f2d6c776560a81b6020830152805180926020825280519081602084015260005b82811061068d5750506000828201840152601f01601f19168101030190f35b60208282018101518783018701528694500161066e565b346101f95760203660031901126101f9576004356001600160a01b038116908190036101f9576000526002602052604060002060206040516106e5816109bb565b8254808252600190930154910181905260408051928352602083019190915290f35b346101f95760003660031901126101f9576040517f00000000000000000000000000000000000000000000000000000000000000006001600160a01b03168152602090f35b346101f95760003660031901126101f9576040517f00000000000000000000000000000000000000000000000000000000000000006001600160a01b03168152602090f35b346101f95760003660031901126101f957602060405163ffffffff7f0000000000000000000000000000000000000000000000000000000000000000168152f35b346101f95760003660031901126101f95760206040516001600160801b037f0000000000000000000000000000000000000000000000000000000000000000168152f35b346101f95760003660031901126101f9576020610831610bfc565b604051908152f35b346101f95760003660031901126101f957602060405161fff18152f35b346101f95761086436610238565b61088f7f00000000000000000000000000000000000000000000000000000000000000004210610a7c565b60405161089b816109bb565b818152600160208201438152336000526002602052604060002092518355519101556040514381527f550e735193e8f8bf0398f14bcadbbbf0329d5401f6786981e63f5b010662b00e60203392a3005b346101f95760003660031901126101f957602060405160ff7f0000000000000000000000000000000000000000000000000000000000000000168152f35b1561093057565b60405162461bcd60e51b815260206004820152600f60248201526e139bdd08195e1c1a5c9959081e595d608a1b6044820152606490fd5b1561096e57565b60405162461bcd60e51b815260206004820152600f60248201526e105b1c9958591e4818db185a5b5959608a1b6044820152606490fd5b634e487b7160e01b600052604160045260246000fd5b6040810190811067ffffffffffffffff8211176109d757604052565b6109a5565b90601f8019910116810190811067ffffffffffffffff8211176109d757604052565b3d15610a39573d9067ffffffffffffffff82116109d75760405191610a2d601f8201601f1916602001846109dc565b82523d6000602084013e565b606090565b15610a4557565b60405162461bcd60e51b815260206004820152600f60248201526e151c985b9cd9995c8819985a5b1959608a1b6044820152606490fd5b15610a8357565b60405162461bcd60e51b815260206004820152600e60248201526d14d958dc995d08195e1c1a5c995960921b6044820152606490fd5b90604051610ac6816109bb565b602060018294805484520154910152565b15610ade57565b60405162461bcd60e51b815260206004820152600f60248201526e139bc818dbdb5b5a5d08199bdd5b99608a1b6044820152606490fd5b9060028201809211610b2357565b6105ee565b91908201809211610b2357565b15610b3c57565b60405162461bcd60e51b815260206004820152601060248201526f52657665616c20746f6f206561726c7960801b6044820152606490fd5b15610b7b57565b60405162461bcd60e51b815260206004820152600e60248201526d125b9d985b1a59081c995d99585b60921b6044820152606490fd5b15610bb857565b60405162461bcd60e51b815260206004820152600d60248201526c125b9d985b1a59081a5b9c1d5d609a1b6044820152606490fd5b600019810191908211610b2357565b7f000000000000000000000000000000000000000000000000000000000000000080421015610c3257428103908111610b235790565b50600090565b600054348101809111610b2357600055565b610c79600160ff7f0000000000000000000000000000000000000000000000000000000000000000161b610bed565b811690610cae610ca87f00000000000000000000000000000000000000000000000000000000000000006113e1565b91611411565b610cba86959495611544565b5063ffffffff7f00000000000000000000000000000000000000000000000000000000000000001694613ffc9060208087019661020b890201019482600302935b868810610d94575050505050505050610d14908261167a565b90604051610d2e8161055a60208201948560209181520190565b5190207f00000000000000000000000000000000000000000000000000000000000000001480610d5b5791565b506001600160801b037f0000000000000000000000000000000000000000000000000000000000000000166001600160801b0382161491565b90919293949596988951908160f81c603f169181808260e81c603f161c60011b6002169160f01c603f161c600116176082028b0160038101516023820151908a604384015191896063860151956083015160f01c958961ffff811661ffff831602968c8260101c61ffff168460101c61ffff1602978360201c61ffff168560201c61ffff1602978460301c61ffff168660301c61ffff1602978560401c61ffff168760401c61ffff1602978660501c61ffff168860501c61ffff1602978760601c61ffff168160601c61ffff1602978060701c61ffff168260701c61ffff1602978160801c61ffff168360801c61ffff1602978260901c61ffff168460901c61ffff1602978360a01c61ffff168560a01c61ffff1602978460b01c61ffff168660b01c61ffff1602978560c01c61ffff168760c01c61ffff1602978660d01c61ffff168860d01c61ffff1602978760e01c61ffff168160e01c61ffff16029760f01c9060f01c029561ffff841661ffff861602958460101c61ffff168660101c61ffff1602958560201c61ffff168160201c61ffff1602958060301c61ffff168260301c61ffff1602958160401c61ffff168360401c61ffff1602958260501c61ffff168460501c61ffff1602958360601c61ffff168560601c61ffff1602958460701c61ffff168660701c61ffff1602958560801c61ffff168160801c61ffff1602958060901c61ffff168260901c61ffff1602958160a01c61ffff168360a01c61ffff1602958260b01c61ffff168460b01c61ffff1602958360c01c61ffff168560c01c61ffff1602958460d01c61ffff168660d01c61ffff1602958560e01c61ffff168160e01c61ffff16029560f01c9060f01c029361ffff821661ffff841602938260101c61ffff168460101c61ffff1602938360201c61ffff168160201c61ffff1602938060301c61ffff168260301c61ffff1602938160401c61ffff168360401c61ffff1602938260501c61ffff168460501c61ffff1602938360601c61ffff168160601c61ffff1602938060701c61ffff168260701c61ffff1602938160801c61ffff168360801c61ffff1602938260901c61ffff168460901c61ffff1602938360a01c61ffff168160a01c61ffff1602938060b01c61ffff168260b01c61ffff1602938160c01c61ffff168360c01c61ffff1602938260d01c61ffff168460d01c61ffff1602938360e01c61ffff168160e01c61ffff16029360f01c9060f01c029161ffff821661ffff821602918060101c61ffff168260101c61ffff1602918160201c61ffff168160201c61ffff1602918060301c61ffff168260301c61ffff1602918160401c61ffff168160401c61ffff1602918060501c61ffff168260501c61ffff1602918160601c61ffff168160601c61ffff1602918060701c61ffff168260701c61ffff1602918160801c61ffff168160801c61ffff1602918060901c61ffff168260901c61ffff1602918160a01c61ffff168160a01c61ffff1602918060b01c61ffff168260b01c61ffff1602918160c01c61ffff168160c01c61ffff1602918060d01c61ffff168260d01c61ffff1602918160e01c61ffff168160e01c61ffff16029160f01c9060f01c0261fff190060161fff190060161fff190060161fff190060161fff190060161fff190060161fff190060161fff190060161fff190060161fff190060161fff190060161fff190060161fff190060161fff190060161fff190060161fff190060161fff190060161fff190060161fff190060161fff190060161fff190060161fff190060161fff190060161fff190060161fff190060161fff190060161fff190060161fff190060161fff190060161fff190060161fff190060161fff190060161fff190060161fff190060161fff190060161fff190060161fff190060161fff190060161fff190060161fff190060161fff190060161fff190060161fff190060161fff190060161fff190060161fff190060161fff190060161fff190060161fff190060161fff190060161fff190060161fff190060161fff190060161fff190060161fff190060161fff190060161fff190060161fff190060161fff190060161fff190060161fff190060161fff190060161fff190060161fff19006900361fff10161fff190068688821091111681831c60011618821b916001901b1916179861020b0196959493929190610cfb565b803b90600019820190828211610b235760019060405193603e601f19910116840160405282845260208401903c90565b600091600091600091600091604051602081019061143e8161055a85856040918152600060208201520190565b51902060405160208101906114628161055a86856040918152600160208201520190565b5190209060405160208101906114878161055a87856040918152600260208201520190565b519020926040516114ab8161055a6020820194856040918152600360208201520190565b5190206000935b601085106114c1575050505050565b909192939560019087600f9b999a9b0360041b9861fff161ffff878c1c16068a1b179a61fff161ffff888c1c16068a1b179961fff161ffff858c1c16068a1b179861fff161ffff86831c1606901b179601939291906114b2565b908160041b9180830460101490151715610b2357565b81810292918115918404141715610b2357565b6000919082907f00000000000000000000000000000000000000000000000000000000000000007f000000000000000000000000000000000000000000000000000000000000000060ff165b6008841061159e5750505050565b90919294600060405160208101906115cc8161055a8b868a8791606093918352602083015260408201520190565b51902081905b84821061160d5750509061160260019261ffff6115ee8a61151b565b9116906001600160801b03809216901b1690565b179501929190611590565b909161167261166a60019261166461165561164e60405160208101906116438161055a8d8d869091604092825260208201520190565b51902061fff1900690565b61ffff1690565b61ffff868d8a1c169116611531565b90610b28565b61fff1900690565b9201906115d2565b6000929183917f000000000000000000000000000000000000000000000000000000000000000091907f000000000000000000000000000000000000000000000000000000000000000060ff16905b600885106116d8575050505050565b9091929395600060405160208101906117078161055a8c8a8c8791606093918352602083015260408201520190565b51902081905b8582106117355750509061172960019261ffff6115ee8b61151b565b179601939291906116c9565b909161177a61166a60019261166461176b61164e60405160208101906116438161055a8d8d869091604092825260208201520190565b61ffff868b8a1c169116611531565b92019061170d56fea26469706673582212208d7e9ce530b02da973f405ab41045318638a0823d3f661cf75480a2dc9e1dfa664736f6c634300081f0033","linkReferences":{}},"methodIdentifiers":{"COMMIT_DELAY()":"50857fb2","LWE_N()":"6bc30304","Q()":"e493ef8c","SEH_DIM()":"0cbc10bc","THRESHOLD()":"785ffb37","check(bytes32)":"399e0792","checkWithSeh(bytes32)":"2b6b1142","circuitDataPointer()":"9e9d2938","circuitSeed()":"4d26bf29","commit(bytes32)":"f14fcbc8","commitDelay()":"9ffedd17","encryptedGates()":"3fe8e80f","estimatedGas()":"342746aa","expectedOutputHash()":"0bd48e60","expectedSehOutput()":"d2354412","getCommit(address)":"8696b887","isExpired()":"2f13b60c","numGates()":"d1b92e43","numWires()":"faaf4d9a","owner()":"8da5cb5b","reclaimExpired()":"42f370bc","reveal(bytes32)":"701fd0f1","reward()":"228cb733","scheme()":"8518b0ad","secretExpiry()":"363c058c","timeRemaining()":"e3cfef60"},"id":1}